:100000000C9458000C946A000C946A000C94090A31
:100010000C946A000C946A000C946A000C946A00B8
:100020000C946A000C946A000C946A000C946A00A8
:100030000C943A0A0C946A000C946A000C946A00BE
:100040000C946A000C94EA0B0C941C0C0C946A003F
:100050000C946A000C946A000C946A000C946A0078
:100060000C9479060C946A000C946A000C946A0053
:100070000C946A000C946A000C946A000C946A0058
:100080000C946A000C946A000C9461010C946A0050
:100090000C946A000C946A000C946A000C946A0038
:1000A000CC01EA01C102F7022F0367038803B703FB
:1000B00011241FBECFEFCDBFDFE3DEBF2AE2A0E0F9
:1000C000B8E201C01D92AF32B207E1F70E94E90623
:1000D0000C94C6110C94000080E00E94370841E0A7
:1000E00060E973E680E00E94D80742E06FE973E6BA
:1000F00080E00E94D80708958DE890E20197F1F71B
:10010000000081E0809323280E94BB018091002899
:100110008230E9F118F4813041F0C1C0833009F434
:1001200068C0843009F48EC0BAC08091280480FD74
:10013000B8C08091480488234CF480E8809346043A
:1001400081E0809323280E94BB01A9C08CE090E04D
:100150000E945511882389F09091880490FF0DC06A
:1001600080E880934504E7E0F8E21386178681E093
:10017000809323280E94BB0192C0882309F48FC07A
:100180008091880480FD8BC00E946C0088C08091A3
:10019000280481FD86C08091480486FF09C080E460
:1001A0008093460481E0809323280E94BB0177C09E
:1001B0008DE090E00E945511882389F09091880489
:1001C00091FF0DC080E480934504E7E0F8E21486D7
:1001D000108A81E0809323280E94BB0160C088239D
:1001E00009F45DC08091880481FD59C00E946C00B3
:1001F00056C08091280482FD54C08091480485FF38
:1002000009C080E28093460481E0809323280E9405
:10021000BB0145C08091880482FF0DC080E28093BD
:100220004504E7E0F8E21586118A81E080932328EF
:100230000E94BB0134C08091880482FD30C00E94BE
:100240006C002DC08091280483FD2BC08091480450
:1002500084FF14C080E18093460481E080932328CA
:100260000E94BB010895EDE8F0E23197F1F700003C
:100270009091280493FD05C08F5F01C080E0883C09
:1002800090F38091280483FD0AC080E180934504A7
:100290001092152881E0809323280E94BB011092C0
:1002A00000280895E0E2F4E08FE082838BE0808B09
:1002B000818B828B838BE0E4F4E080EF8683818303
:1002C00008951F920F920FB60F9211248F93809171
:1002D000290480FF06C081E08093290480930028D0
:1002E0001FC08091290481FF06C082E08093290409
:1002F0008093002815C08091290482FF07C084E004
:100300008093290483E0809300280AC08091290407
:1003100083FF06C088E08093290484E0809300284E
:100320008F910F900FBE0F901F9018954AE050E0EC
:1003300060E070E00E9451110895CF93DF93CDB734
:10034000DEB72B97CDBFDEBF8BE0EFEAF3E6DE0131
:10035000119601900D928A95E1F74AE050E060E035
:1003600070E0CE0101960E945D112B96CDBFDEBFDD
:10037000DF91CF910895CF93DF93CDB7DEB7AA97E2
:10038000CDBFDEBF90E08830910508F01FC2FC01B0
:10039000E05BFF4F0C94860E8FE0EAEBF3E6DE01A4
:1003A000119601900D928A95E1F787E098E20E94FC
:1003B000960180E290E28E8B9F8B80E290E0888FA6
:1003C000998F67E078E2CE0146960E948C0E1092DB
:1003D000232810C280E1E9ECF3E6DE0111960190DA
:1003E0000D928A95E1F78091480484FF0AC085E068
:1003F000E9EDF3E6DE01569601900D928A95E1F75C
:1004000009C085E0EEEDF3E6DE01569601900D920F
:100410008A95E1F78091480485FF0EC0DE0156966B
:100420000D900020E9F7119785E0E9EDF3E60190E2
:100430000D928A95E1F71FC080911828882371F0EA
:10044000DE0156960D900020E9F7119785E0E3EE66
:10045000F3E601900D928A95E1F70DC0DE01569604
:100460000D900020E9F7119785E0EEEDF3E601909D
:100470000D928A95E1F78DE090E00E94551181116F
:100480000EC0DE0156960D900020E9F7119785E029
:10049000E8EEF3E601900D928A95E1F731C0809184
:1004A000480486FF0EC0DE0156960D900020E9F745
:1004B000119785E0E9EDF3E601900D928A95E1F759
:1004C0001FC080911728882371F0DE0156960D9089
:1004D0000020E9F7119785E0E3EEF3E601900D9235
:1004E0008A95E1F70DC0DE0156960D900020E9F7E0
:1004F000119785E0EEEDF3E601900D928A95E1F714
:100500008CE090E00E94551181110CC0FE0176969E
:1005100001900020E9F7319780E298E5808391838C
:1005200012822BC080914804882364F4FE017696E1
:1005300001900020E9F7319780E29FE48083918366
:1005400012821BC080911628882361F0FE017696E6
:1005500001900020E9F7319780E294E58083918350
:1005600012820BC0FE01769601900020E9F73197C8
:1005700080E293E480839183128281E08093232838
:1005800039C18DE0EDEEF3E6DE01119601900D929A
:100590008A95E1F780911C28823098F41F928F93FE
:1005A0008AEF93E69F938F93CE0146969F938F9306
:1005B0000E949E0E0F900F900F900F900F900F9033
:1005C00012C01F928F9384E094E69F938F93CE0185
:1005D00046969F938F930E949E0E0F900F900F90C0
:1005E0000F900F900F9082E08093232803C18EE03C
:1005F000EFE0F4E6DE01119601900D928A95E1F7A5
:100600008AE090E00E945511813099F41F928F93F7
:100610008AEF93E69F938F93CE0146969F938F9395
:100620000E949E0E0F900F900F900F900F900F90C2
:1006300012C01F928F9384E094E69F938F93CE0114
:1006400046969F938F930E949E0E0F900F900F904F
:100650000F900F900F9083E080932328CBC08EE003
:10066000EDE1F4E6DE01119601900D928A95E1F735
:100670008BE090E00E945511823098F41F928F9386
:100680008AEF93E69F938F93CE0146969F938F9325
:100690000E949E0E0F900F900F900F900F900F9052
:1006A00012C01F928F9384E094E69F938F93CE01A4
:1006B00046969F938F930E949E0E0F900F900F90DF
:1006C0000F900F900F9084E08093232893C08DE0CB
:1006D000EBE2F4E6DE01119601900D928A95E1F7C6
:1006E000809121281F928F9388E394E69F938F93A4
:1006F000CE0146969F938F930E949E0E85E0809335
:1007000023280F900F900F900F900F900F9072C0B2
:100710008CE090E00E945511882399F080E1EFE38E
:10072000F4E6DE01119601900D928A95E1F780E1E1
:10073000EFE4F4E6DE01569601900D928A95E1F71A
:1007400012C081E1EFE5F4E6DE01119601900D9211
:100750008A95E1F78FE0E0E7F4E6DE015696019036
:100760000D928A95E1F786E08093232843C08DE0BF
:1007700090E00E945511882399F08FE0EFE7F4E6AE
:10078000DE01119601900D928A95E1F780E1EFE488
:10079000F4E6DE01569601900D928A95E1F712C0BB
:1007A00080E1EEE8F4E6DE01119601900D928A9563
:1007B000E1F78FE0E0E7F4E6DE01569601900D9256
:1007C0008A95E1F787E08093232814C088E0EEE95A
:1007D000F4E6DE01119601900D928A95E1F788E02A
:1007E000E6EAF4E6DE01569601900D928A95E1F76D
:1007F0001092232841E0BE016F5F7F4F80E00E948E
:10080000D80742E0BE016A5E7F4F80E00E94D807B1
:10081000AA96CDBFDEBFDF91CF9108958CE090E026
:100820000E94551161E0811160E08CE090E00E942F
:100830006D111092222886E00E94BB0108958DE080
:1008400090E00E94551161E0811160E08DE090E040
:100850000E946D111092222887E00E94BB0108952A
:100860000F931F93CF93DF93CDB7DEB76597CDBFBF
:10087000DEBF82E080934904109222288AE090E053
:100880000E94551180932428813099F41F928F93F0
:100890008AEF93E69F938F93CE0101969F938F9358
:1008A0000E949E0E0F900F900F900F900F900F9040
:1008B00012C01F928F9384E094E69F938F93CE0192
:1008C00001969F938F930E949E0E0F900F900F9012
:1008D0000F900F900F9041E06EEA74E680E00E9466
:1008E000D80742E0BE016F5F7F4F80E00E94D807CB
:1008F00058C080912228873009F053C08091480465
:1009000082FD04C08091480483FD08C080914804A2
:1009100082FF0DC08091480483FD09C08091242886
:100920008F5F8093242881E08093252808C08091E0
:1009300024288150809324288FEF8093252880914C
:100940002428823020F482E08093242805C08F3F41
:1009500019F48EEF80932428809124281F928F937E
:1009600084E094E69F938F938E010F5F1F4F1F9338
:100970000F930E949E0E41E06EEA74E680E00E94B2
:10098000D80742E0B80180E00E94D80784E0809355
:100990004904109222280F900F900F900F900F9003
:1009A0000F9080912228853009F0A3CF82E08093B8
:1009B000490410922228609124288AE090E00E9445
:1009C0006D118BE090E00E945511182F8AE090E0A5
:1009D0000E945511181730F06FEF680F8BE090E010
:1009E0000E946D1183E00E94BB016596CDBFDEBF02
:1009F000DF91CF911F910F910895CF93DF93CDB7E2
:100A0000DEB76597CDBFDEBF82E0809349041092C8
:100A100022288BE090E00E94551180932428813099
:100A200099F41F928F938AEF93E69F938F93CE0151
:100A300001969F938F930E949E0E0F900F900F90A0
:100A40000F900F900F9012C01F928F9384E094E646
:100A50009F938F93CE0101969F938F930E949E0E3A
:100A60000F900F900F900F900F900F9041E06FEB51
:100A700074E680E00E94D80742E0BE016F5F7F4FBE
:100A800080E00E94D80779C080912228873009F041
:100A900074C08091480482FD04C08091480483FDA5
:100AA00008C08091480482FF0DC08091480483FDF6
:100AB00009C0809124288F5F8093242881E080934F
:100AC000252808C0809124288150809324288FEF06
:100AD0008093252880912428811104C081E080938F
:100AE000242805C08F3F19F48EEF809324288AE0D4
:100AF00090E00E94551190912428981718F0815089
:100B00008093242880912428813099F41F928F9318
:100B10008AEF93E69F938F93CE0101969F938F93D5
:100B20000E949E0E0F900F900F900F900F900F90BD
:100B300012C01F928F9384E094E69F938F93CE010F
:100B400001969F938F930E949E0E0F900F900F908F
:100B50000F900F900F9041E06FEB74E680E00E94E1
:100B6000D80742E0BE016F5F7F4F80E00E94D80748
:100B700084E08093490410922228809122288530B5
:100B800009F082CF82E0809349041092222860917C
:100B900024288BE090E00E946D1184E00E94BB014C
:100BA0006596CDBFDEBFDF91CF910895E0E4F4E01C
:100BB00081E0828B83E0818B08958CE090E00E943D
:100BC0005511882379F08091480488235CF0809146
:100BD000880480FF07C080E880934504E7E0F8E2DE
:100BE000138617868DE090E00E945511882379F0D6
:100BF0008091480486FD0BC08091880481FF07C066
:100C000080E480934504E7E0F8E21486108A80913E
:100C10002328813011F40E94BB018AE090E00E94F9
:100C2000551180931C28089580912828882329F045
:100C3000809123280E94BB0108958091222887304B
:100C400089F58091480482FD04C08091480483FDA9
:100C500008C08091480482FF0DC08091480483FD44
:100C600009C0809124288F5F8093242881E080939D
:100C7000252808C0809124288150809324288FEF54
:100C8000809325289091252880912328890F8770AB
:100C90008093232894E090934904109222280E9484
:100CA000BB01089580912228853011F58091232879
:100CB000843089F028F4823041F0833049F013C049
:100CC000863061F0873069F00EC00E94DD050BC0F0
:100CD0000E94300408C00E94FD0405C00E940E045A
:100CE00002C00E941F0482E08093490410922228CF
:100CF00008951F920F920FB60F9211248F93809137
:100D0000490481FF04C085E08093222807C08091B8
:100D1000490482FF03C087E0809322288F910F90BF
:100D20000FBE0F901F901895CF93DF93C7E0D8E2C6
:100D30008CE08E8B8AE090E00E9455118D8B1B8693
:100D40001C861D861E861F86188A198A1A8A1B8A87
:100D50001C8A0E9483088A8FDF91CF910895E0E07A
:100D6000F4E084E0858B868B80935004E0E6F4E029
:100D7000808B818B828B838B848B858B868B878BFF
:100D8000E0EAF4E0808B818B828B838B848B858B74
:100D9000808B089510920128109205281092032844
:100DA0000E94AF060E94BE0A0E9452010E94D60510
:100DB0000E94540A0E94DA090E9458080E94940670
:100DC00080E00E941E070E949D0180E00E94BB01FE
:100DD00008950E94CA0678948091002881110E948B
:100DE0007C008091222881110E94140680910128A4
:100DF00081110E94DB088091052881110E94DE0884
:100E00008091022881110E94420980912A29882319
:100E100019F30E94F80AE0CFCF93DF93D62FC42FA7
:100E200060E00E945F0A8D2F0E94990A8C2F0E9419
:100E3000990A0E94950ADF91CF910895CF93E0E03F
:100E4000F4E090E896839183A6E4B0E11197F1F77E
:100E500000C09583811102C0CCE301C0CDE34AE21A
:100E600060E08C2F0E940C0741E760E08C2F0E940D
:100E70000C074CE560E48C2F0E940C0748E260E010
:100E80008C2F0E940C0748E060E08C2F0E940C071A
:100E90004AE260E08C2F0E940C0749E760E08C2F4B
:100EA0000E940C0745ED60E08C2F0E940C0740E784
:100EB00060E08C2F0E940C0748E760E08C2F0E94B6
:100EC0000C0748E060E08C2F0E940C0746E060E0D1
:100ED0008C2F0E940C0742E760E08C2F0E940C07C9
:100EE00040E060E48C2F0E940C074AE260E08C2F07
:100EF0000E940C0749E760E08C2F0E940C074AED26
:100F000060E08C2F0E940C0740E060E08C2F0E9474
:100F10000C074CED60E08C2F0E940C0740E060E075
:100F20008C2F0E940C0741E860E08C2F0E940C0778
:100F30004FE760E08C2F0E940C0749ED60E08C2F9A
:100F40000E940C0741EF60E08C2F0E940C074BEDD4
:100F500060E08C2F0E940C0740E460E08C2F0E9420
:100F60000C0748E760E08C2F0E940C0748E260E025
:100F70008C2F0E940C0741E060E08C2F0E940C0730
:100F800040E860E08C2F0E940C074CE060E08C2F62
:100F90000E940C07BAE624E081E0B1502040804076
:100FA000E1F700C01092262810922728CF910895CB
:100FB000EF92FF920F931F93CF93DF93CDB7DEB7DE
:100FC000E297CDBFDEBF142F91E1E0EDF4E6DE0144
:100FD000929601900D929A95E1F7811102C00CE36F
:100FE00001C00DE3CE0101967C010E94970EF7012E
:100FF00001900020E9F73197EE19FF09719708F089
:10100000198ABE016E5D7F4FCE0101960E948C0E43
:10101000113039F440E860E0802F0E940C0710E0A6
:1010200012C040EC60E0802F0E940C07F8CFE1E096
:10103000F0E0EC0FFD1FE10FF11D408160E4802F17
:101040000E940C071F5F103190F381E090E08093C5
:1010500026289093272810922828E296CDBFDEBF3D
:10106000DF91CF911F910F91FF90EF9008951F9303
:10107000CF93DF931F92CDB7DEB7182F198241E0CF
:10108000BE016F5F7F4F0E94D80742E0BE016F5FD5
:101090007F4F812F0E94D807109226281092272870
:1010A00081E0809328280F90DF91CF911F910895C0
:1010B00084E080937004E0E0F6E0808184608083C7
:1010C000A0EAB0E08C9180638C93A2E0B6E08C91B2
:1010D0008C938C9180648C93109206068081816041
:1010E0008083E8E0F6E080818160808301C00000B9
:1010F0008091080680FDFBCF80911006909111062B
:10110000109221280895CF92DF92EF92FF92CF9311
:10111000C12CD12C7601C0E01BC0E8E0F6E0808154
:101120008160808301C000008091080680FDFBCFB4
:101130006091100670E080E090E00E94670D9B01D6
:10114000AC01C701B6010E94550C6B017C01CF5F59
:10115000CA3018F320E030E040E251E4C701B601A4
:101160000E94C60C2EE53AEB49E55FE30E94190E9A
:101170002FE135E845EC51E40E94540C6B017C01F1
:1011800020E030E0A9010E94C10C88231CF4C12C8E
:10119000D12C760120E030E040E05FE3C701B601EA
:1011A0000E94550C0E94380D862FCF91FF90EF9032
:1011B000DF90CF900895109201280895CF938091E9
:1011C00004288F5F809304288C3328F081E080937B
:1011D0000128109204281092052880914804882341
:1011E0008CF4E7E0F8E2C385CF5FC3878BE090E043
:1011F0000E945511C81730F080E88093460481E0C2
:10120000809316288091480486FF11C0E7E0F8E239
:10121000C485CF5FC4878BE090E00E945511C8174A
:1012200030F080E48093460481E080931728809119
:10123000480485FF13C0E7E0F8E285858F5F858766
:10124000843160F0E0E4F4E080E2868380E186832C
:10125000E7E0F8E281E0818B8CE0868B80914804A6
:1012600084FF05C0E7E0F8E286858F5F8687E7E0C8
:10127000F8E285898150858B811102C00E94DD05CD
:10128000CF91089510920228809103288C3328F082
:1012900081E080930528109203280E9483088093A0
:1012A0002128809148048823F4F48091880480FDEB
:1012B0001AC080911A28833030F080E88093460469
:1012C00010921A2803C08F5F80931A2880912328D8
:1012D000813049F48091262890912728892B19F094
:1012E00081E00E94BB018091480486FF1EC080916E
:1012F000880481FD1AC080911B28833030F080E47F
:101300008093460410921B2803C08F5F80931B2894
:1013100080912328813049F48091262890912728B4
:10132000892B19F081E00E94BB018091480485FF60
:101330002AC08091880482FD26C0809119288530BA
:1013400090F0E0E4F4E080E286831092192824E52E
:1013500088E594E1215080409040E1F700C000C052
:1013600080E1868303C08F5F8093192880912328B2
:10137000813049F48091262890912728892B19F0F3
:1013800081E00E94BB018091262890912728009738
:1013900081F08B30910540F080E00E943708109278
:1013A0002628109227280895019680932628909346
:1013B00027280895E0E6F0E0848D8E7F98ED94BFB5
:1013C000848F01C000008091630086FDFBCFE0E6C2
:1013D000F0E0848D8B7F98ED94BF848F848D816045
:1013E00094BF848F01C00000809141018111FBCF27
:1013F000E0E4F1E08FEF91E08287938782E08783DA
:1014000085818160858381EB808382818160828395
:1014100008951F920F920FB60F9211248F939F93EE
:1014200091E090934301809103288F5F809303287C
:10143000909302289F918F910F900FBE0F901F9055
:1014400018951092292810922A2825E03DE0AC0139
:10145000429FC001439F900D529F900D1124E0E8E0
:10146000FAE08487958781E08583808308951092D0
:10147000800A08951F920F920FB60F9211248F9336
:101480009F9381E08093860A8091292890912A2851
:1014900001968093292890932A289F918F910F90ED
:1014A0000FBE0F901F901895E0EAF8E08BE086835E
:1014B0008381816083838581816085830895613024
:1014C00039F490E0880F991F81608093A70803C0CA
:1014D000880F8093A70881E090E00E94210A0BC04A
:1014E0008091292890912A280B9720F00E94370A92
:1014F00084E0089500008091A508807C89F30E9413
:10150000370A8091A50882FD0CC08091A50883FD53
:101510000AC09091A508892F807194FF05C085E0CD
:10152000089583E0089582E0089587E08093A408F9
:10153000089501C000009091A50896FFFBCF80930D
:10154000A80881E090E00E94210A0BC00000809171
:10155000292890912A28C39720F00E94370A84E016
:1015600008958091A50886FFF1CF0E94370A9091D7
:10157000A508892F807194FD86E00895E0E0F4E0ED
:1015800081E085838183E0E0F8E02DE635E0208787
:101590003187958190689583968190649683968132
:1015A0009068968310922C2910922E2A10922B2943
:1015B00010922D2A10922A2980932C2A0895DC015A
:1015C00060932E2A10922D2A10922C2A90E008C0A7
:1015D000E92FF0E08C91E35DF64D80839F5F1196DB
:1015E0009617B0F3E0E0F8E0858180628583089586
:1015F000AF92BF92CF92DF92EF92FF920F931F9321
:10160000CF93DF93CDB7DEB7C35AD109CDBFDEBFCD
:101610008FE3E1EEF4E6DE01119601900D928A95DA
:10162000E1F710922A298091480484FF05C00F2E0B
:10163000FFE4FF2EF02D04C00F2EF3E4FF2EF02D5B
:1016400080911828811109C08091480485FF0AC043
:101650000F2EFFE4EF2EF02D09C00F2EF4E5EF2E34
:10166000F02D04C00F2EF3E4EF2EF02D8DE090E06E
:101670000E945511882369F08091172881110EC0AE
:101680008091480486FF0FC00F2EFFE4DF2EF02D5F
:101690000EC00F2EF8E5DF2EF02D09C00F2EF4E559
:1016A000DF2EF02D04C00F2EF3E4DF2EF02D8CE0A2
:1016B00090E00E945511882369F0809116288111CD
:1016C0000EC08091480488237CF40F2EFFE4AF2ED7
:1016D000F02D0EC00F2EF8E5AF2EF02D09C00F2E05
:1016E000F4E5AF2EF02D04C00F2EF3E4AF2EF02D55
:1016F0008AE090E00E945511B82E07E018E2F80148
:10170000C5888BE090E00E945511F801928D2091E0
:10171000880422FF02C028E401C023E43091880439
:1017200031FF02C038E401C033E44091880440FF37
:1017300002C048E401C043E41F924F931F923F93BD
:101740001F922F931F929F931F92BF921F928F936E
:101750001F92CF921F92AF921F92DF921F92EF9231
:101760001F92FF92CE0101969F938F93CF969F93E6
:101770008F930E949E0E81E090E00E94210ACDBFCF
:10178000DEBF08C08091292890912A28893E934085
:1017900090F4000080912C2A8823A1F3CE01805C74
:1017A0009F4FFC0101900020E9F73197BF01681BB2
:1017B000790B0E94DF0ACD55DF4FCDBFDEBFDF9131
:1017C000CF911F910F91FF90EF90DF90CF90BF903E
:1017D000AF9008951F920F920FB60F9211248F931E
:1017E0009F93AF93BF93EF93FF93809100089091E5
:1017F0002C299F3FB1F08D3051F4E0912C29F0E07D
:10180000E55DF74D108281E080932A290AC0ACE2A1
:10181000B9E2EC9191E09E0F9C93F0E0E55DF74D0D
:101820008083FF91EF91BF91AF919F918F910F9026
:101830000FBE0F901F9018951F920F920FB60F9228
:1018400011248F939F93AF93BF93CF93DF93EF9325
:10185000FF93C0E0D8E08D818F7D8D83ADE2BAE249
:10186000EC9181E08E0F8C93F0E0E35DF64D80818A
:101870008A8390912E2A8C91981304C081E08093E2
:101880002C2A05C0E0E0F8E0858180628583FF9125
:10189000EF91DF91CF91BF91AF919F918F910F9079
:1018A0000FBE0F901F9018955058BB27AA270E9473
:1018B0006C0C0C94DF0D0E94D10D38F00E94D80DF5
:1018C00020F039F49F3F19F426F40C94CE0D0EF459
:1018D000E095E7FB0C94C80DE92F0E94F00D58F33A
:1018E000BA17620773078407950720F079F4A6F505
:1018F0000C94120E0EF4E0950B2EBA2FA02D0B01B6
:10190000B90190010C01CA01A0011124FF27591B44
:1019100099F0593F50F4503E68F11A16F040A22F4A
:10192000232F342F4427585FF3CF469537952795BB
:10193000A795F0405395C9F77EF41F16BA0B620BBA
:10194000730B840BBAF09150A1F0FF0FBB1F661F01
:10195000771F881FC2F70EC0BA0F621F731F841F44
:1019600048F4879577956795B795F7959E3F08F06A
:10197000B0CF9395880F08F09927EE0F979587952C
:1019800008950E94A40D08F481E008950E94DA0CE5
:101990000C94DF0D0E94D80D58F00E94D10D40F03C
:1019A00029F45F3F29F00C94C80D51110C94130ECB
:1019B0000C94CE0D0E94F00D68F39923B1F35523DA
:1019C00091F3951B550BBB27AA2762177307840752
:1019D00038F09F5F5F4F220F331F441FAA1FA9F3E8
:1019E00035D00E2E3AF0E0E832D091505040E695D6
:1019F000001CCAF72BD0FE2F29D0660F771F881F37
:101A0000BB1F261737074807AB07B0E809F0BB0B29
:101A1000802DBF01FF2793585F4F3AF09E3F51053D
:101A200078F00C94C80D0C94130E5F3FE4F3983ECD
:101A3000D4F3869577956795B795F7959F5FC9F726
:101A4000880F911D9695879597F90895E1E0660FA7
:101A5000771F881FBB1F621773078407BA0720F020
:101A6000621B730B840BBA0BEE1F88F7E095089589
:101A70000E94F80D88F09F5798F0B92F9927B75119
:101A8000B0F0E1F0660F771F881F991F1AF0BA9522
:101A9000C9F714C0B13091F00E94120EB1E0089560
:101AA0000C94120E672F782F8827B85F39F0B93F52
:101AB000CCF3869577956795B395D9F73EF49095D5
:101AC0008095709561957F4F8F4F9F4F0895E89453
:101AD00009C097FB3EF490958095709561957F4F76
:101AE0008F4F9F4F9923A9F0F92F96E9BB27939524
:101AF000F695879577956795B795F111F8CFFAF434
:101B0000BB0F11F460FF1BC06F5F7F4F8F4F9F4F64
:101B100016C0882311F096E911C0772321F09EE8C2
:101B2000872F762F05C0662371F096E8862F70E028
:101B300060E02AF09A95660F771F881FDAF7880F02
:101B40009695879597F90895990F0008550FAA0B58
:101B5000E0E8FEEF16161706E807F907C0F01216C0
:101B60001306E407F50798F0621B730B840B950BC3
:101B700039F40A2661F0232B242B252B21F4089518
:101B80000A2609F4A140A6958FEF811D811D0895B5
:101B900097F99F6780E870E060E008959FEF80EC20
:101BA000089500240A9416161706180609060895C3
:101BB00000240A9412161306140605060895092E29
:101BC0000394000C11F4882352F0BB0F40F4BF2B98
:101BD00011F460FF04C06F5F7F4F8F4F9F4F0895D8
:101BE00057FD9058440F551F59F05F3F71F04795CE
:101BF000880F97FB991F61F09F3F79F087950895B3
:101C0000121613061406551FF2CF4695F1DF08C0D1
:101C1000161617061806991FF1CF869571056105EE
:101C200008940895E894BB2766277727CB0197F996
:101C300008950E942C0E0C94DF0D0E94D10D38F0F7
:101C40000E94D80D20F0952311F00C94C80D0C942F
:101C5000CE0D11240C94130E0E94F00D70F3959F7D
:101C6000C1F3950F50E0551F629FF001729FBB2793
:101C7000F00DB11D639FAA27F00DB11DAA1F649F2F
:101C80006627B00DA11D661F829F2227B00DA11DE2
:101C9000621F739FB00DA11D621F839FA00D611D68
:101CA000221F749F3327A00D611D231F849F600D89
:101CB000211D822F762F6A2F11249F5750409AF0B2
:101CC000F1F088234AF0EE0FFF1FBB1F661F771F3E
:101CD000881F91505040A9F79E3F510580F00C9409
:101CE000C80D0C94130E5F3FE4F3983ED4F3869531
:101CF00077956795B795F795E7959F5FC1F7FE2BA9
:101D0000880F911D9695879597F90895EE0FFF1FFF
:101D10000590F491E02D0994FB01DC010D90002069
:101D2000E9F7119701900D920020E1F70895FB016A
:101D3000DC0101900D920020E1F70895AEE0B0E0E3
:101D4000E4EAFEE00C949A110D891E8986E08C83EA
:101D500009831A838FEF9FE78D839E83AE01475ED1
:101D60005F4F6F89788DCE0101960E94C00EEF8182
:101D7000F885E00FF11F10822E96E4E00C94B31169
:101D8000ABE0B0E0E6ECFEE00C948C116C017B0162
:101D90008A01FC0116821782838181FFCCC1CE01AA
:101DA00001963C01F6019381F70193FD859193FF24
:101DB00081917F01882309F4BAC1853239F493FDFA
:101DC000859193FF81917F01853229F4B60190E0DE
:101DD0000E94B710E7CF912C212C312CFFE1F31595
:101DE000D8F08B3279F038F4803279F08332A1F474
:101DF000232D20611DC08D3261F0803369F4232DC5
:101E0000216016C0832D8260382EE32DE4603E2EC3
:101E10002AC0F32DF8601DC037FC2DC020ED280F1F
:101E20002A3040F08E32B9F436FC81C1232D206473
:101E3000322E19C036FE06C08AE0989E200D11246D
:101E4000922E11C0EAE02E9E200D1124222EF32D99
:101E5000F0623F2E08C08C3621F4832D8068382E26
:101E600002C0883641F4F70193FD859193FF81917B
:101E70007F018111B3CF982F9F7D9554933028F423
:101E80000C5F1F4F9FE399830DC0833631F083377A
:101E900071F0833509F059C021C0F8018081898330
:101EA0000E5F1F4F88248394912C530113C0280187
:101EB000F2E04F0E511CF801A080B18036FE03C045
:101EC000692D70E002C06FEF7FEFC5010E94AC107A
:101ED0004C018201F32DFF773F2E16C0280122E02E
:101EE000420E511CF801A080B18036FE03C0692D5E
:101EF00070E002C06FEF7FEFC5010E94A1104C019E
:101F0000F32DF0683F2E820133FC1BC0822D90E040
:101F100088169906B0F4B60180E290E00E94B710EE
:101F20002A94F4CFF50137FC859137FE81915F014A
:101F3000B60190E00E94B71021102A9421E0821A85
:101F400091088114910471F7E8C0843611F0893644
:101F500041F5F80137FE07C060817181828193816C
:101F60000C5F1F4F08C060817181072E000C880B29
:101F7000990B0E5F1F4FF32DFF763F2E97FF09C081
:101F800090958095709561957F4F8F4F9F4FF0682A
:101F90003F2E2AE030E0A3010E94F310882E86181D
:101FA00045C0853731F4232D2F7EB22E2AE030E054
:101FB00025C0932D997FB92E8F36C1F018F488353E
:101FC00079F0B5C0803719F0883721F0B0C0E92F1B
:101FD000E061BE2EB4FE0DC0FB2DF460BF2E09C023
:101FE00034FE0AC0292F2660B22E06C028E030E059
:101FF00005C020E130E002C020E132E0F801B7FE88
:1020000007C060817181828193810C5F1F4F06C080
:102010006081718180E090E00E5F1F4FA3010E94FC
:10202000F310882E8618FB2DFF773F2E36FE0DC04D
:10203000232D2E7FA22E891458F434FE0BC032FCBF
:1020400009C0832D8E7EA82E05C0B82CA32C03C0FA
:10205000B82C01C0B92CA4FE0FC0FE01E80DF11D83
:102060008081803321F49A2D997EA92E09C0A2FE89
:1020700006C0B394B39404C08A2D867809F0B39453
:10208000A3FC11C0A0FE06C0B21488F4280C922C48
:102090009B180EC0B21460F4B60180E290E00E947A
:1020A000B710B394F7CFB21418F42B1802C0982CC1
:1020B000212CA4FE10C0B60180E390E00E94B7106E
:1020C000A2FE17C0A1FC03C088E790E002C088E52B
:1020D00090E0B6010CC08A2D867859F0A1FE02C0AE
:1020E0008BE201C080E2A7FC8DE2B60190E00E9485
:1020F000B710891438F4B60180E390E00E94B7105D
:102100009A94F7CF8A94F301E80DF11D8081B6010E
:1021100090E00E94B7108110F5CF222009F442CE42
:10212000B60180E290E00E94B7102A94F6CFF60143
:102130008681978102C08FEF9FEF2B96E2E10C948E
:10214000A511FC010590615070400110D8F78095F1
:1021500090958E0F9F1F0895FC0161507040019073
:102160000110D8F7809590958E0F9F1F08950F93BB
:102170001F93CF93DF93FB01238121FD03C08FEFDA
:102180009FEF2CC022FF16C04681578124813581E4
:102190004217530744F4A081B1819D012F5F3F4F47
:1021A000208331838C93268137812F5F3F4F268395
:1021B000378314C08B01EC01FB010084F185E02D15
:1021C0000995892BE1F6D80116968D919C91179768
:1021D000019616968D939C931797CE01DF91CF9120
:1021E0001F910F910895FA01AA27283051F120314B
:1021F00081F1E8946F936E7F6E5F7F4F8F4F9F4F9B
:10220000AF4FB1E03ED0B4E03CD0670F781F891FDC
:102210009A1FA11D680F791F8A1F911DA11D6A0FAA
:10222000711D811D911DA11D20D009F468943F915D
:102230002AE0269F11243019305D3193DEF6CF015C
:102240000895462F4770405D4193B3E00FD0C9F722
:10225000F6CF462F4F70405D4A3318F0495D31FD8F
:102260004052419302D0A9F7EACFB4E0A6959795E2
:10227000879577956795BA95C9F7009761057105B8
:1022800008959B01AC010A2E069457954795379502
:102290002795BA95C9F7620F731F841F951FA01D5C
:1022A000089560507C4E0C94BD1103D08081992715
:1022B0000895FC01E050FC4E0895DC01A40FB51F09
:1022C0004150504048F0CB01840F951F2E910E9441
:1022D0006E1141505040D0F70895262F0E94591199
:1022E0000080021619F00E94791101970197089554
:1022F000262FAF93BF93E0E0F0E1328131FDFDCFB7
:10230000DC01A050BC4E2C932DE924BF23E0208398
:102310000196BF91AF9108952F923F924F925F9295
:102320006F927F928F929F92AF92BF92CF92DF92E5
:10233000EF92FF920F931F93CF93DF93CDB7DEB74A
:10234000CA1BDB0BCDBFDEBF09942A8839884888B9
:102350005F846E847D848C849B84AA84B984C884C1
:10236000DF80EE80FD800C811B81AA81B981CE0FB8
:10237000D11DCDBFDEBFED010895FB01DC0102C020
:1023800001900D9241505040D8F70895F894FFCF36
:1023900053656E736F7220636F6C64206F7200639D
:1023A00061626C6520756E706C756767656400327C
:1023B0003032322D31302D30370020204C4E32203B
:1023C0004175746F66696C6C0053555020425546D8
:1023D0002052454420424C5500204F2020002043ED
:1023E000202000205420200020582020004E657816
:1023F000742066696C6C20696E002564206D696EBE
:10240000757465002564206D696E7574657300468A
:10241000696C6C20696E74657276616C004D6178D0
:10242000206F70656E2074696D65004C4E322070AF
:1024300072657373757265002564206B506100428C
:102440004C554520697320454E41424C454400504F
:1024500075736820746F2064697361626C650042F3
:102460006C75652069732044495341424C454400D2
:102470005075736820746F20656E61626C650052E0
:10248000454420697320454E41424C454400524525
:10249000442069732044495341424C4544006465DB
:1024A0006661756C74006F76657272756E0050753A
:1024B000736820746F2073657420696E74760050A1
:1024C00075736820746F20736574206D61786F0078
:1024D00020202020202020202020202020202020FC
:1024E0000025632563256325632C25642C4E5854F1
:1024F0002C25642C4D41582C25642C494E542C25F8
:10250000642C505245532C25632C544255462C259F
:10251000632C545245442C25632C54424C550D00D9
:00000001FF
