:100000000C9457000C9469000C9469000C94E80758
:100010000C9469000C9469000C9469000C946900BC
:100020000C9469000C9469000C9469000C946900AC
:100030000C9469000C9469000C9469000C9469009C
:100040000C9469000C94A1030C94D4030C946900E3
:100050000C9469000C9469000C9469000C9469007C
:100060000C9421010C94C3000C9469000C94690059
:100070000C9469000C9454010C9469000C94690070
:100080000C9469000C9469000C94ED000C949A088F
:100090000C9469000C9469000C9469000C9469003C
:1000A000BF02C502CB02D102D7021003F60211240F
:1000B0001FBECFEFCDBFDFE3DEBF28E2A0E0B8E296
:1000C00001C01D92AE3EB207E1F70E9469090C948F
:1000D000250D0C940000E0E0F4E088E0808B818B3B
:1000E000828B838B848B858B868B878BE0E2F4E01D
:1000F000808B818B828B838B848B858BE0E4F4E017
:10010000808B818B828B838B848B858B868B878B7B
:10011000E0E6F4E094E0908B918B928B938B948B40
:10012000958B968B978BE0E8F4E0808B818B828BAC
:10013000838BE0EAF4E0808B818B828B838B848BD2
:10014000858B868B0895E0EAF4E080E285838183E5
:100150000895E0E4F4E0808181608083E4E4F4E0E9
:10016000808181608083E0EAFAE08CE292E084871B
:100170009587808181608083808182608083858192
:100180008160858308951F920F920FB60F921124FC
:100190008F93EF93FF9381E08093A60AE0E4F4E06D
:1001A000878181608783FF91EF918F910F900FBEC0
:1001B0000F901F901895E0E2F4E08BE0828B838B28
:1001C000808B818BE0E4F4E0838B818B8093B60499
:1001D000109268281092002808951F920F920FB66F
:1001E0000F9211248F938091290482FF06C084E02E
:1001F0008093290481E0809300288091290483FF63
:1002000006C088E08093290482E0809300288091D2
:10021000290480FF06C081E08093290483E0809355
:1002200000288091290481FF06C082E08093290480
:1002300084E0809300288F910F900FBE0F901F9045
:1002400018951F920F920FB60F9211248F93EF9370
:10025000FF938091490481FF06C082E080934904A6
:1002600085E0809300288091490483FF15C0E0E475
:10027000F4E088E08187808582FF06C0809168284D
:100280008F5F8093682805C0809168288150809393
:10029000682887E080930028FF91EF918F910F905D
:1002A0000FBE0F901F9018951F920F920FB60F92CE
:1002B00011248F938091A90486FF08C080E4809365
:1002C000A9041092682886E0809300288F910F90EF
:1002D0000FBE0F901F901895E0EAF8E08BE0868340
:1002E0008381826083838381816083838581816050
:1002F00085830895613009F48160E0EAF8E087833E
:10030000858186FD04C00000858186FFFCCF0895AD
:10031000E0EAF8E084818360848308956623B1F085
:10032000DC016150262F30E02F5F3F4F280F391F2F
:10033000E0EAF8E09D919087958196FD04C0000069
:10034000958196FFFCCFA217B307A1F708950F93ED
:100350001F93CF93DF9300D0CDB7DEB7182F062FB2
:1003600060E088E70E947A010A83113039F419822B
:1003700062E0CE0101960E948E0109C0111107C0F2
:1003800080E4898362E0CE0101960E948E010E9482
:1003900088010F900F90DF91CF911F910F910895D9
:1003A0006AE281E00E94A70161E781E00E94A70163
:1003B00060E080E00E94A70168E281E00E94A7015E
:1003C00068E081E00E94A7016AE281E00E94A70143
:1003D00069E781E00E94A70165ED81E00E94A70125
:1003E00060E781E00E94A70168E781E00E94A70121
:1003F00068E081E00E94A70166E081E00E94A70119
:1004000062E781E00E94A70160E080E00E94A7010E
:100410006AE281E00E94A70169E781E00E94A701EA
:100420006AED81E00E94A70160E081E00E94A701DF
:100430006CED81E00E94A70160E081E00E94A701CD
:1004400061E881E00E94A7016FE781E00E94A701B7
:1004500069ED81E00E94A70161EF81E00E94A701A0
:100460006BED81E00E94A70160E481E00E94A7019A
:1004700068E781E00E94A70168E281E00E94A7018D
:1004800061E081E00E94A70160E881E00E94A7018D
:100490006CE081E00E94A7012AE684E091E021500F
:1004A00080409040E1F700C00895EF92FF920F93D3
:1004B0001F93CF93DF93CDB7DEB7EA97CDBFDEBFF3
:1004C0009C01162F91E1EEE4FAE5DE019A96019087
:1004D0000D929A95E1F7B901CE0101960E94B909F2
:1004E000BE01665D7F4FCE0101960E94AE091130BC
:1004F00029F460E881E00E94A7010FC060EC81E070
:100500000E94A7010AC0F80161918F0180E00E945A
:10051000A7010E151F05B9F708C08E010F5F1F4F09
:100520007E01F1E1EF0EF11CEECFEA96CDBFDEBF0A
:10053000DF91CF911F910F91FF90EF9008950F934E
:100540001F93CF93DF93CDB7DEB76197CDBFDEBFEB
:1005500061E081E00E94A70185E09DE00197F1F74D
:100560000000E09100288E2F90E0FC013197E730E9
:10057000F10508F074C0E05BFF4F0C948A0961E05C
:100580008FE59AE50E9455026FC061E08BE69AE51F
:100590000E94550269C061E086E79AE50E94550213
:1005A00063C061E084E89AE50E9455025DC08091D5
:1005B00068281F928F9382E99AE59F938F938E010B
:1005C0000F5F1F4F1F930F930E94ED0961E0C80159
:1005D0000E94550262E08DE99AE50E9455020F9053
:1005E0000F900F900F900F900F903EC08091682851
:1005F0001F928F9382E99AE59F938F938E010F5FED
:100600001F4F1F930F930E94ED0961E0C8010E94E4
:1006100055020F900F900F900F900F900F9024C0E5
:10062000809168281F928F9382E99AE59F938F9318
:100630008E010F5F1F4F1F930F930E94ED0961E022
:10064000C8010E94550262E08CEA9AE50E945502B8
:100650000F900F900F900F900F900F9005C061E0DA
:100660008AEB9AE50E945502109200286196CDBF50
:10067000DEBFDF91CF911F910F910895CF93DF934C
:10068000C0EDD8E28BE0E0ECFAE5DE0101900D92DE
:100690008A95E1F74AE050E060E070E0CE010E9408
:1006A000BC0C81E0898B8A8B8AE090E00E94B40CBC
:1006B0008B8B8C8B1D8A1E8A1F8A188E8BE090E094
:1006C0000E94B40C898F1A8E1B8E1C8E1D8EDF919A
:1006D000CF910895E0E4F4E0148A158A168A178A07
:1006E00080EF868381830895E0E0F4E081E08583F4
:1006F0008183E0E0F8E02DE635E0208731879581C1
:10070000906895839681906496839681906896838D
:100710008093CE281092662808958091CE2881116A
:1007200006C0EEECF8E2000080818823E1F310922D
:10073000CF281092CE28E0E0F8E0858180628583A2
:1007400008951F920F920FB60F9211248F939F93CB
:10075000AF93BF93EF93FF93809100088D3079F4AE
:1007600081E080936628A7E6B8E2EC91F0E0EF5FC5
:10077000F74D10828C91809365281C920AC0A7E6E1
:10078000B8E2EC9191E09E0F9C93F0E0EF5FF74DA3
:100790008083FF91EF91BF91AF919F918F910F90C7
:1007A0000FBE0F901F9018951F920F920FB60F92C9
:1007B00011248F939F93AF93BF93CF93DF93EF93C6
:1007C000FF93C0E0D8E08D818F7D8D83AFECB8E2E0
:1007D000EC9181E08E0F8C93F0E0E759F74D80812A
:1007E0008A839C918091CD28981720F081E0809396
:1007F000CE2805C0E0E0F8E0858180628583FF9126
:10080000EF91DF91CF91BF91AF919F918F910F9019
:100810000FBE0F901F901895CF92DF92EF92FF922C
:100820000F931F93CF93DF93CDB7DEB76497CDBF00
:10083000DEBFE8E0F6E080818160808309E618E2AF
:1008400086E595E6F8018083918382E790E08283D4
:10085000938360ED78E2C8010E94AE09F80101902F
:100860000020E9F731976894CC24C5F8D12CC082D8
:10087000D182F80101900020E9F731978EE498E7E2
:100880008083918384E790E0828393830F2EF0ED41
:10089000EF2EF8E2FF2EF02DF70184894AE0BE0129
:1008A0006F5F7F4F90E00E94C009BC01C8010E94A9
:1008B000AE09F80101900020E9F73197C082D1829A
:1008C000F80101900020E9F7319782E49CE68083EB
:1008D000918386E590E082839383F701818981117A
:1008E0000BC0F80101900020E9F7319784E490E211
:1008F00080839183128228C0809148048823CCF49D
:100900008091E5284AE0BE016F5F7F4F90E00E9432
:10091000C009BC0189E698E20E94AE09E9E6F8E266
:1009200001900020E9F7319780E290E08083918385
:100930000BC0E9E6F8E201900020E9F7319783E483
:1009400090E2808391831282E9E6F8E20190002030
:10095000E9F7319782E594E68083918386E590E01C
:10096000828393838091E22881110CC0E9E6F8E24A
:1009700001900020E9F7319784E490E2808391832D
:10098000128228C08091480486FF19C08091E62811
:100990004AE0BE016F5F7F4F90E00E94C009BC013A
:1009A00089E698E20E94AE09E9E6F8E201900020AB
:1009B000E9F7319780E290E0808391830BC0E9E60C
:1009C000F8E201900020E9F7319783E490E2808318
:1009D00091831282E9E6F8E201900020E9F731976D
:1009E00082E495E78083918386E590E08283938318
:1009F0008091480485FF19C08091E7284AE0BE0134
:100A00006F5F7F4F90E00E94C009BC0189E698E2C9
:100A10000E94AE09E9E6F8E201900020E9F731977B
:100A200080E290E0808391830BC0E9E6F8E20190D8
:100A30000020E9F7319783E490E28083918312826A
:100A4000E9E6F8E201900020E9F7319783E595E7C0
:100A50008083918386E590E082839383809148042C
:100A600084FF19C08091E8284AE0BE016F5F7F4F84
:100A700090E00E94C009BC0189E698E20E94AE099C
:100A8000E9E6F8E201900020E9F7319780E290E092
:100A9000808391830BC0E9E6F8E201900020E9F73A
:100AA000319783E490E2808391831282E9E6F8E251
:100AB00001900020E9F7319782E49CE680839183DE
:100AC00084E590E0828393838091880480FF0CC04A
:100AD000E9E6F8E201900020E9F7319787E590E236
:100AE0008083918312820BC0E9E6F8E20190002036
:100AF000E9F7319783E490E2808391831282E9E6FB
:100B0000F8E201900020E9F7319782E594E68083CE
:100B1000918384E590E0828393838091880481FFB0
:100B20000CC0E9E6F8E201900020E9F7319787E58B
:100B300090E28083918312820BC0E9E6F8E2019093
:100B40000020E9F7319783E490E280839183128259
:100B5000E9E6F8E201900020E9F7319782E495E7B1
:100B60008083918384E590E08283938380918804DD
:100B700082FF0CC0E9E6F8E201900020E9F7319726
:100B800087E590E28083918312820BC0E9E6F8E268
:100B900001900020E9F7319783E490E2808391830C
:100BA000128209E618E2F80101900020E9F7319776
:100BB00089E49EE68083918384E790E08283938337
:100BC0000F2EF0EDCF2EF8E2DF2EF02DF601838907
:100BD0004AE0BE016F5F7F4F90E00E94C009BC01F8
:100BE000C8010E94AE09F80101900020E9F7319791
:100BF0006894EE24E5F8F12CE082F182F80101908E
:100C00000020E9F731978DE491E68083918388E7AE
:100C100090E082839383F601818D4AE0BE016F5F8D
:100C20007F4F90E00E94C009BC01C8010E94AE093C
:100C3000F80101900020E9F73197E082F18280917C
:100C4000080680FF06C0E8E0F6E00000808180FD35
:100C5000FCCF80911006909111068093ED2809E653
:100C600018E2F80101900020E9F7319720E533E719
:100C70002083318329E630E0228333834AE0BE01BA
:100C80006F5F7F4F90E00E94C009BC01C8010E94C5
:100C9000AE09F80101900020E9F731978DE09AE064
:100CA000808391831282F80101900020E9F7319747
:100CB0008F01095618420093CD280E948D03649637
:100CC000CDBFDEBFDF91CF911F910F91FF90EF90CD
:100CD000DF90CF900895CF93DF93809101288536E0
:100CE00009F458C038F4833679F0C8F5882309F43C
:100CF00060C032C1833709F497C0873709F497C0C1
:100D00008F3609F029C15BC080910228823641F4F8
:100D1000E0E4F4E08681806886831092E52817C1BC
:100D2000823741F4E0E4F4E08681806486831092A7
:100D3000E6280DC1823441F4E0E4F4E0868180626B
:100D400086831092E72803C1833709F005C1E0E4E8
:100D5000F4E08681806186831092E828F8C0809153
:100D60000228823651F4E0E4F4E0868180688683CC
:100D7000E0EDF8E2158A118AEAC0823709F0ECC08A
:100D8000E0E4F4E0868180648683E0EDF8E2168A90
:100D9000128ADDC080910228823621F481E080939E
:100DA000E128D5C0823709F0D7C081E08093E228DE
:100DB000CEC08091CE28882309F4A0C0ACC0809119
:100DC0000228823669F48091E128882309F4C4C09E
:100DD000E0E4F4E08581806885831092E528B7C05F
:100DE000823769F48091E228882309F4B5C0E0E4F1
:100DF000F4E08581806485831092E628A8C082345F
:100E000041F4E0E4F4E08581806285831092E72874
:100E10009EC0833709F0A0C0E0E4F4E085818061E2
:100E200085831092E82893C00E940C0490C08091A2
:100E30000228863789F44AE050E060E070E083E001
:100E400098E20E94BC0C4AE050E060E070E080ED67
:100E500098E20E94B00C7BC0893669F583E098E285
:100E60000E9490098D3320F08CE38093E32808C022
:100E7000823018F08093E32803C082E08093E32857
:100E8000C0EDD8E26B898AE090E00E94CC0C8AE049
:100E900090E00E94B40C8B8B982F9695298D921719
:100EA00010F49093E9289091E428891708F04FC036
:100EB0008093E4284CC08D3609F04EC083E098E260
:100EC0000E949009E0EDF8E2818F9389969598173A
:100ED00018F49093E92805C0833018F481E08093DA
:100EE000E928C0EDD8E2698D8BE090E00E94CC0C3F
:100EF0008BE090E00E94B40C898F29C091E003C080
:100F000091E001C090E0EEECF8E2000080818823DF
:100F1000E1F3992339F08EE390E080936928909370
:100F20006A2806C08FE390E08093692890936A282E
:100F3000E9E6F8E201900020E9F73197E956F84236
:100F4000E093CD280E948D03109266280AC08091FC
:100F5000CE288823A9F2DFCF8091CE28882391F272
:100F6000E1CFDF91CF910895E0E6F0E0848D8E7FB0
:100F700098ED94BF848F838186FF04C00000838135
:100F800086FDFCCFE0E6F0E0848D8B7F98ED94BF8A
:100F9000848F848D816094BF848F809141018823E8
:100FA00031F0E0E4F1E0000081818111FCCFE0E468
:100FB000F1E08FEF97E78287938782E087838581CF
:100FC0008160858381EB8083828181608283089543
:100FD0001F920F920FB60F9211242F938F939F930E
:100FE000AF93BF93EF93FF9381E080934301809190
:100FF0004804882304F5E0EDF8E285898F5F858B4E
:10100000918D8917C0F0E0E4F4E0868180688683E2
:10101000E0EDF8E2158A81E0828F8289882359F019
:101020008091880481FF07C0E0E4F4E0858180645A
:1010300085831092E6288091480486FF12C0E0ED77
:10104000F8E286898F5F868B918D891750F0E0E4F6
:10105000F4E0868180648683E0EDF8E2168A81E020
:10106000838F8091480485FF22C0E0EDF8E28789F4
:101070008F5F878B8F31D8F0E0E4F4E08681806168
:101080008683A0EDB8E258961C9258972AE08BE828
:1010900092E0215080409040E1F700C0868180625C
:1010A000868358961C92589781E05C968C93809129
:1010B000480484FF05C0E0EDF8E2808D8F5F808FEB
:1010C000E0EDF8E284898150848B811127C0809102
:1010D000E128882371F08091880480FF0AC0E0E451
:1010E000F4E0858180688583E0EDF8E2158A128E50
:1010F00011C08091E228882369F08091880481FFE3
:1011000009C0E0E4F4E0858180648583E0EDF8E2E5
:10111000168A138EE0EDF8E28389848BFF91EF91BC
:10112000BF91AF919F918F912F910F900FBE0F9014
:101130001F9018951F920F920FB60F9211242F93A4
:101140008F939F93AF93BF93CF93DF93EF93FF93CF
:101150008091890480FF23C0E0E8F4E0818581600C
:101160008187A0E4B4E016968C9116978068169655
:101170008C931092E528808580FD11C0E0EDF8E2A7
:10118000128E8289882359F08091880481FF07C0DC
:10119000E0E4F4E08581806485831092E628809104
:1011A000890481FF13C0E0E8F4E0818582608187D3
:1011B000A0E4B4E016968C911697806416968C93F2
:1011C0001092E628808581FF1092EB288091890497
:1011D00082FF23C0A0E8B4E019968C91199784602F
:1011E00019968C931997E0E4F4E0868180628683F7
:1011F000C0EDD8E21F8A1C8E2AE08BE892E02150D5
:1012000080409040E1F700C0868180618683188E1F
:1012100018968C9182FF1092EC28FF91EF91DF914C
:10122000CF91BF91AF919F918F912F910F900FBE52
:101230000F901F90189584E080937004E0E0F6E032
:10124000808184608083A0EAB0E08C9180638C937D
:10125000A2E0B6E08C918C938C9180648C9381E0B9
:1012600080930606808181608083E8E0F6E08081DB
:1012700081608083808180FF04C00000808180FDC8
:10128000FCCF80911006909111068093ED2808956F
:101290000E946B000E94A3000E94B4070E94A90054
:1012A0000E94DB000E946A030E9474030E946C018A
:1012B0000E94D0010E941B090E943E0361E08BEC5A
:1012C0009AE50E94550262E080ED98E20E94550284
:1012D00008950E9448097894E0E4F4E085818068EC
:1012E000858300EA14E0C6E6D8E282E896E001973A
:1012F000F1F700C080910028882331F00E949F02FE
:10130000F8018781806287838881882371F30E9436
:101310006B06EBCFEE0FFF1F0590F491E02D0994C3
:10132000FC0188279927E89421912032E9F329309C
:1013300010F02E30C8F32B3241F02D3239F468947E
:1013400004C00E94CB09820F911D219120532A30A5
:10135000C0F31EF4909581959F4F0895FB01DC0129
:101360000D900020E9F7119701900D920020E1F710
:101370000895FB01DC0101900D920020E1F7089532
:10138000BB274A3031F4992322F4BDE29095819530
:101390009F4F0C94D4097AE0979F902D879F802DC2
:1013A000910D11240895BB27FB015527AA27880F0B
:1013B000991FAA1FA41710F0A41B83955051B9F7C9
:1013C000A05DAA3308F0A95DA193009779F7B11148
:1013D000B1931192CB010C94060CAEE0B0E0E3EFB8
:1013E000F9E00C94F90C0D891E8986E08C83098341
:1013F0001A838FEF9FE78D839E83AE01475E5F4F19
:101400006F89788DCE0101960E940F0AEF81F885D1
:10141000E00FF11F10822E96E4E00C94120DABE069
:10142000B0E0E5E1FAE00C94EB0C6C017B018A0181
:10143000FC0116821782838181FFCCC1CE01019607
:101440003C01F6019381F70193FD859193FF819112
:101450007F01882309F4BAC1853239F493FD85915F
:1014600093FF81917F01853229F4B60190E00E94BB
:10147000160CE7CF912C212C312CFFE1F315D8F07D
:101480008B3279F038F4803279F08332A1F4232D55
:1014900020611DC08D3261F0803369F4232D2160FD
:1014A00016C0832D8260382EE32DE4603E2E2AC0C4
:1014B000F32DF8601DC037FC2DC020ED280F2A3019
:1014C00040F08E32B9F436FC81C1232D2064322ED7
:1014D00019C036FE06C08AE0989E200D1124922E77
:1014E00011C0EAE02E9E200D1124222EF32DF06271
:1014F0003F2E08C08C3621F4832D8068382E02C020
:10150000883641F4F70193FD859193FF81917F0126
:101510008111B3CF982F9F7D9554933028F40C5FA1
:101520001F4F9FE399830DC0833631F0833771F0ED
:10153000833509F059C021C0F801808189830E5F8D
:101540001F4F88248394912C530113C02801F2E08B
:101550004F0E511CF801A080B18036FE03C0692DEA
:1015600070E002C06FEF7FEFC5010E94FB0B4C01E2
:101570008201F32DFF773F2E16C0280122E0420E94
:10158000511CF801A080B18036FE03C0692D70E0C7
:1015900002C06FEF7FEFC5010E94F00B4C01F32DED
:1015A000F0683F2E820133FC1BC0822D90E088162C
:1015B0009906B0F4B60180E290E00E94160C2A94DD
:1015C000F4CFF50137FC859137FE81915F01B601BB
:1015D00090E00E94160C21102A9421E0821A9108B2
:1015E0008114910471F7E8C0843611F0893641F511
:1015F000F80137FE07C060817181828193810C5FA1
:101600001F4F08C060817181072E000C880B990B59
:101610000E5F1F4FF32DFF763F2E97FF09C0909569
:101620008095709561957F4F8F4F9F4FF0683F2E4B
:101630002AE030E0A3010E94520C882E861845C093
:10164000853731F4232D2F7EB22E2AE030E025C0DD
:10165000932D997FB92E8F36C1F018F4883579F023
:10166000B5C0803719F0883721F0B0C0E92FE061AC
:10167000BE2EB4FE0DC0FB2DF460BF2E09C034FE9B
:101680000AC0292F2660B22E06C028E030E005C02F
:1016900020E130E002C020E132E0F801B7FE07C0EF
:1016A00060817181828193810C5F1F4F06C06081D0
:1016B000718180E090E00E5F1F4FA3010E94520CE9
:1016C000882E8618FB2DFF773F2E36FE0DC0232D6A
:1016D0002E7FA22E891458F434FE0BC032FC09C0B0
:1016E000832D8E7EA82E05C0B82CA32C03C0B82C49
:1016F00001C0B92CA4FE0FC0FE01E80DF11D8081D0
:10170000803321F49A2D997EA92E09C0A2FE06C02D
:10171000B394B39404C08A2D867809F0B394A3FCE3
:1017200011C0A0FE06C0B21488F4280C922C9B189D
:101730000EC0B21460F4B60180E290E00E94160C74
:10174000B394F7CFB21418F42B1802C0982C212CA4
:10175000A4FE10C0B60180E390E00E94160CA2FE29
:1017600017C0A1FC03C088E790E002C088E590E0C4
:10177000B6010CC08A2D867859F0A1FE02C08BE21A
:1017800001C080E2A7FC8DE2B60190E00E94160C39
:10179000891438F4B60180E390E00E94160C9A9404
:1017A000F7CF8A94F301E80DF11D8081B60190E036
:1017B0000E94160C8110F5CF222009F442CEB6010A
:1017C00080E290E00E94160C2A94F6CFF601868102
:1017D000978102C08FEF9FEF2B96E2E10C94040DEE
:1017E000FC010590615070400110D8F780959095EC
:1017F0008E0F9F1F0895FC016150704001900110F1
:10180000D8F7809590958E0F9F1F0895DC01FC01FD
:10181000672F71917723E1F7329704C07C916D9324
:1018200070836291AE17BF07C8F308950F931F939B
:10183000CF93DF93FB01238121FD03C08FEF9FEF47
:101840002CC022FF16C04681578124813581421762
:10185000530744F4A081B1819D012F5F3F4F208346
:1018600031838C93268137812F5F3F4F26833783C7
:1018700014C08B01EC01FB010084F185E02D09957A
:10188000892BE1F6D80116968D919C9117970196B8
:1018900016968D939C931797CE01DF91CF911F9150
:1018A0000F910895FA01AA27283051F1203181F1D2
:1018B000E8946F936E7F6E5F7F4F8F4F9F4FAF4F58
:1018C000B1E03ED0B4E03CD0670F781F891F9A1F6B
:1018D000A11D680F791F8A1F911DA11D6A0F711D1F
:1018E000811D911DA11D20D009F468943F912AE02B
:1018F000269F11243019305D3193DEF6CF01089513
:10190000462F4770405D4193B3E00FD0C9F7F6CF43
:10191000462F4F70405D4A3318F0495D31FD40520B
:10192000419302D0A9F7EACFB4E0A69597958795A1
:1019300077956795BA95C9F7009761057105089580
:101940009B01AC010A2E069457954795379527952C
:10195000BA95C9F7620F731F841F951FA01D0895C4
:1019600060507C4E0C941C0D03D080819927089503
:10197000FC01E050FC4E0895DC01A40FB51F41505E
:10198000504048F0CB01840F951F2E910E94CD0C42
:1019900041505040D0F70895262F0E94B80C008087
:1019A000021619F00E94D80C019701970895262F6E
:1019B000AF93BF93E0E0F0E1328131FDFDCFDC0178
:1019C000A050BC4E2C932DE924BF23E02083019628
:1019D000BF91AF9108952F923F924F925F926F9275
:1019E0007F928F929F92AF92BF92CF92DF92EF92AF
:1019F000FF920F931F93CF93DF93CDB7DEB7CA1B30
:101A0000DB0BCDBFDEBF09942A88398848885F8404
:101A10006E847D848C849B84AA84B984C884DF808E
:101A2000EE80FD800C811B81AA81B981CE0FD11D72
:101A3000CDBFDEBFED010895FB01DC0102C00190C6
:0E1A40000D9241505040D8F70895F894FFCF12
:101A4E002020202020202020202020202020202088
:101A5E0000426C756520627574746F6E0052656419
:101A6E0020627574746F6E004275666665722062D0
:101A7E007574746F6E00537570706C792062757426
:101A8E00746F6E00456E636F646572202564004549
:101A9E006E636F64657220627574746F6E0052654A
:101AAE0073657420656E636F646572004572726F44
:101ABE007200323032302D30322D3239004C4E32EF
:0A1ACE00204175746F66696C6C00AE
:00000001FF
