S01400004C4E32204175746F66696C6C2E73726563E4
S11300000C9458000C946A000C946A000C94BE0979
S11300100C946A000C946A000C946A000C946A00B4
S11300200C946A000C946A000C946A000C946A00A4
S11300300C94EF090C946A000C946A000C946A0006
S11300400C946A000C94E50C0C94170D0C946A0043
S11300500C946A000C946A000C946A000C946A0074
S11300600C9405060C946A000C946A000C946A00C3
S11300700C946A000C946A000C946A000C946A0054
S11300800C946A000C946A000C942F010C946A007E
S11300900C946A000C946A000C946A000C946A0034
S11300A09C01BA019102C702FF0237035803870378
S11300B011241FBECFEFCDBFDFE3DEBF28E2A0E0F7
S11300C0B8E201C01D92AE3CB207E1F70E9485067A
S11300D00C94C7120C94000080E00E94DD0741E0FC
S11300E062E975E680E00E94700742E061EA75E625
S11300F080E00E9470070895809101288230D1F138
S113010018F4813041F09AC0833009F462C084301D
S113011009F487C093C080914804882324F480E8BC
S1130120809346048BC08CE090E00E945612882392
S113013009F484C08091880480FF08C080E880931B
S11301404504E5E0F8E21386178678C080918804B8
S113015080FD74C00E946C0024E588E594E1215080
S113016080409040E1F700C000C080911E280E94AA
S11301708B0164C08091480486FF04C080E48093AE
S113018046045CC08DE090E00E945612882309F476
S113019055C08091880481FF08C080E480934504A1
S11301A0E5E0F8E21486108A49C08091880481FD54
S11301B045C00E946C0024E588E594E1215080400C
S11301C09040E1F700C000C080911E280E948B017E
S11301D035C08091480485FF04C080E280934604C2
S11301E02DC08091880482FF08C080E2809345047A
S11301F0E5E0F8E21586118A21C08091880482FD29
S11302001DC00E946C0024E588E594E121508040E3
S11302109040E1F700C000C080911E280E948B012D
S11302200DC08091480484FF04C080E1809346049B
S113023005C080E180934504109213281092012890
S113024080911E28813011F40E948B010895E0E210
S1130250F4E08BE0828B838B808B818B08951F92DB
S11302600F920FB60F9211248F938091290482FF6D
S113027007C084E08093290481E08093012820C092
S11302808091290483FF07C088E08093290482E0D9
S11302908093012815C08091290480FF07C081E064
S11302A08093290483E0809301280AC08091290463
S11302B081FF06C082E08093290484E080930128B2
S11302C08F910F900FBE0F901F9018954AE050E049
S11302D060E070E00E9452120895CF93DF93CDB78F
S11302E0DEB72B97CDBFDEBF8BE0E1EBF5E6DE0199
S11302F0119601900D928A95E1F74AE050E060E092
S113030070E0CE0101960E945E122B96CDBFDEBF37
S1130310DF91CF910895CF93DF93CDB7DEB7AA973E
S1130320CDBFDEBF90E08830910508F01FC2FC010C
S1130330E05BFF4F0C94870F8FE0ECEBF5E6DE01FA
S1130340119601900D928A95E1F785E098E20E945A
S1130350660180E290E28E8B9F8B80E290E0888F32
S1130360998F65E078E2CE0146960E948D0F109237
S11303701E2810C280E1EBECF5E6DE011196019037
S11303800D928A95E1F78091480484FF0AC085E0C4
S1130390EBEDF5E6DE01569601900D928A95E1F7B4
S11303A009C085E0E0EEF5E6DE01569601900D9277
S11303B08A95E1F78091480485FF0EC0DE015696C8
S11303C00D900020E9F7119785E0EBEDF5E601903B
S11303D00D928A95E1F71FC080911628882371F049
S11303E0DE0156960D900020E9F7119785E0E5EEC1
S11303F0F5E601900D928A95E1F70DC0DE0156965F
S11304000D900020E9F7119785E0E0EEF5E6019004
S11304100D928A95E1F78DE090E00E9456128111C9
S11304200EC0DE0156960D900020E9F7119785E085
S1130430EAEEF5E601900D928A95E1F731C08091DC
S1130440480486FF0EC0DE0156960D900020E9F7A1
S1130450119785E0EBEDF5E601900D928A95E1F7B1
S11304601FC080911528882371F0DE0156960D90E7
S11304700020E9F7119785E0E5EEF5E601900D928D
S11304808A95E1F70DC0DE0156960D900020E9F73C
S1130490119785E0E0EEF5E601900D928A95E1F77B
S11304A08CE090E00E94561281110CC0FE017696F9
S11304B001900020E9F7319780E298E580839183E9
S11304C012822BC080914804882364F4FE0176963E
S11304D001900020E9F7319780E29FE480839183C3
S11304E012821BC080911428882361F0FE01769645
S11304F001900020E9F7319780E294E580839183AD
S113050012820BC0FE01769601900020E9F7319724
S113051080E293E480839183128281E080931E2899
S113052039C18DE0EFEEF5E6DE01119601900D92F2
S11305308A95E1F780911A28823098F41F928F935C
S11305408CEF95E69F938F93CE0146969F938F935E
S11305500E949F0F0F900F900F900F900F900F908D
S113056012C01F928F9386E096E69F938F93CE01DD
S113057046969F938F930E949F0F0F900F900F901A
S11305800F900F900F9082E080931E2803C18EE09D
S1130590E1E1F6E6DE01119601900D928A95E1F70C
S11305A08AE090E00E945612813099F41F928F9352
S11305B08CEF95E69F938F93CE0146969F938F93EE
S11305C00E949F0F0F900F900F900F900F900F901D
S11305D012C01F928F9386E096E69F938F93CE016D
S11305E046969F938F930E949F0F0F900F900F90AA
S11305F00F900F900F9083E080931E28CBC08EE065
S1130600EFE1F6E6DE01119601900D928A95E1F78D
S11306108BE090E00E945612823098F41F928F93E0
S11306208CEF95E69F938F93CE0146969F938F937D
S11306300E949F0F0F900F900F900F900F900F90AC
S113064012C01F928F9386E096E69F938F93CE01FC
S113065046969F938F930E949F0F0F900F900F9039
S11306600F900F900F9084E080931E2893C08DE02C
S1130670EDE2F6E6DE01119601900D928A95E1F71E
S113068080911C281F928F938AE396E69F938F9301
S1130690CE0146969F938F930E949F0F85E080938F
S11306A01E280F900F900F900F900F900F9072C014
S11306B08CE090E00E945612882399F080E1E1E4F6
S11306C0F6E6DE01119601900D928A95E1F780E13C
S11306D0E1E5F6E6DE01569601900D928A95E1F782
S11306E012C081E1E1E6F6E6DE01119601900D9279
S11306F08A95E1F78FE0E2E7F6E6DE01569601908F
S11307000D928A95E1F786E080931E2843C08DE020
S113071090E00E945612882399F08FE0E1E8F6E613
S1130720DE01119601900D928A95E1F780E1E1E5F1
S1130730F6E6DE01569601900D928A95E1F712C015
S113074080E1E0E9F6E6DE01119601900D928A95CA
S1130750E1F78FE0E2E7F6E6DE01569601900D92AE
S11307608A95E1F787E080931E2814C088E0E0EAC8
S1130770F6E6DE01119601900D928A95E1F788E084
S1130780E8EAF6E6DE01569601900D928A95E1F7C5
S113079010921E2841E0BE016F5F7F4F80E00E94EF
S11307A0700742E0BE016A5E7F4F80E00E947007DE
S11307B0AA96CDBFDEBFDF91CF9108958CE090E083
S11307C00E94561261E0811160E08CE090E00E948A
S11307D06E1210921D2886E00E948B0108958DE010
S11307E090E00E94561261E0811160E08DE090E09B
S11307F00E946E1210921D2887E00E948B010895BA
S1130800EF92FF920F931F93CF93DF93CDB7DEB791
S11308106597CDBFDEBF8AE090E00E9456128093B8
S11308201F2880911F288130A9F480911F281F92CE
S11308308F938CEF95E69F938F93CE0101969F93B0
S11308408F930E949F0F0F900F900F900F900F9017
S11308500F9014C080911F281F928F9386E096E614
S11308609F938F93CE0101969F938F930E949F0F26
S11308700F900F900F900F900F900F9041E060EB4E
S113088076E680E00E94700742E0BE016F5F7F4F12
S113089080E00E9470070F2EFEEFEF2EF02D68947B
S11308A0FF24F1F806E016E632C080911D28873057
S11308B071F580911F28823018F4F0921F2806C029
S11308C080911F288F3F11F4E0921F2880911F28E8
S11308D01F928F931F930F9381E090E08C0F9D1FC5
S11308E09F938F930E949F0F41E061EC76E680E036
S11308F00E9470074F2DBE016F5F7F4F80E00E9402
S113090070070F900F900F900F900F900F908091A1
S11309101D28853051F610921D2860911F288AE009
S113092090E00E946E128BE090E00E945612182F05
S11309308AE090E00E945612181730F06FEF680FAB
S11309408BE090E00E946E1283E00E948B0165961A
S1130950CDBFDEBFDF91CF911F910F91FF90EF903C
S11309600895CF92DF92EF92FF920F931F93CF934C
S1130970DF93CDB7DEB76597CDBFDEBF8BE090E0E8
S11309800E94561280931F2880911F288130A9F459
S113099080911F281F928F938CEF95E69F938F93DE
S11309A0CE0101969F938F930E949F0F0F900F90FB
S11309B00F900F900F900F9014C080911F281F92DA
S11309C08F9386E096E69F938F93CE0101969F9333
S11309D08F930E949F0F0F900F900F900F900F9086
S11309E00F9041E061ED76E680E00E94700742E0FE
S11309F0BE016F5F7F4F80E00E9470070EEF11E031
S1130A000F2EF6E0EF2EF6E6FF2EF02D0F2EFCEF64
S1130A10CF2EF5E6DF2EF02D57C080911D288730AC
S1130A2009F052C080911F28811103C010931F2820
S1130A3006C080911F288F3F11F400931F288AE07D
S1130A4090E00E94561290911F28981718F0815038
S1130A5080931F2880911F288130A9F480911F283A
S1130A601F928F93DF92CF9281E090E08C0F9D1FB5
S1130A709F938F930E949F0F0F900F900F900F9052
S1130A800F900F9014C080911F281F928F93FF9294
S1130A90EF9281E090E08C0F9D1F9F938F930E94B3
S1130AA09F0F0F900F900F900F900F900F90412F6A
S1130AB061ED76E680E00E94700742E0BE016F5F60
S1130AC07F4F80E00E94700780911D28853009F0D7
S1130AD0A4CF10921D2860911F288BE090E00E9403
S1130AE06E1284E00E948B016596CDBFDEBFDF915C
S1130AF0CF911F910F91FF90EF90DF90CF900895C9
S1130B00E0E4F4E08BE0838B98E0928B818B089592
S1130B108CE090E00E945612882379F0809148047A
S1130B2088235CF08091880480FF07C080E880936C
S1130B304504E5E0F8E2138617868DE090E00E9414
S1130B405612882379F08091480486FD0BC0809169
S1130B50880481FF07C080E480934504E5E0F8E25F
S1130B601486108A80911E28813011F40E948B0112
S1130B708AE090E00E94561280931A28089580918A
S1130B802328882329F080911E280E948B01089530
S1130B9080911D288730A9F410921D2880911E2869
S1130BA090912028890F80931E2880911E2880917F
S1130BB01E28877080931E2880911E280E948B0116
S1130BC0089580911D288530F9F410921D28809194
S1130BD01E28843089F028F4823041F0833049F0B3
S1130BE00895863061F0873069F008950E94880581
S1130BF008950E94000408950E94B10408950E947B
S1130C00DE0308950E94EF0308951F920F920FB61A
S1130C100F9211248F93EF93FF938091490481FFE6
S1130C2007C082E08093490485E080931D281FC09B
S1130C308091490483FF1BC0E0E4F4E088E08187ED
S1130C40808582FF09C080911F288F5F80931F28B1
S1130C5081E08093202808C080911F2881508093D0
S1130C601F288FEF8093202887E080931D28FF9111
S1130C70EF918F910F900FBE0F901F901895CF9307
S1130C80DF938AE090E00E945612C5E0D8E28D8B93
S1130C901B861C861D861E861F86188A198A1A8A38
S1130CA01B8A1C8A0E942A088F8BDF91CF9108959A
S1130CB0E0E6F4E084E0808B818B828B838B848BF1
S1130CC0858B868B878B08951092022810920428B6
S1130CD00E9458060E944F0D0E94820A0E9427011A
S1130CE00E9480050E94090A8FEF91E00E948B09FF
S1130CF00E94FE070E943F0680E00E94B6060E9402
S1130D006D0180E00E948B0108950E94640678942E
S1130D10C7E7D8E28091012881110E947C0080916C
S1130D201D2881110E94BF058091022881110E9413
S1130D308D088091032881110E94DF08888188230F
S1130D4049F30E94BF0AE6CFCF93DF93D62FC42F77
S1130D5060E00E94140A8D2F0E94580A8C2F0E9472
S1130D60580A0E94540ADF91CF910895CF93E0E08E
S1130D70F4E090E896839183A6E4B0E11197F1F74B
S1130D8000C09583882311F0CDE301C0CCE34AE28F
S1130D9060E08C2F0E94A40641E760E08C2F0E9443
S1130DA0A4064CE560E48C2F0E94A40648E260E0AF
S1130DB08C2F0E94A40648E060E08C2F0E94A406B9
S1130DC04AE260E08C2F0E94A40649E760E08C2F81
S1130DD00E94A40645ED60E08C2F0E94A40640E723
S1130DE060E08C2F0E94A40648E760E08C2F0E94EC
S1130DF0A40648E060E08C2F0E94A40646E060E070
S1130E008C2F0E94A40642E760E08C2F0E94A40667
S1130E1040E060E48C2F0E94A4064AE260E08C2F3C
S1130E200E94A40649E760E08C2F0E94A4064AEDC4
S1130E3060E08C2F0E94A40640E060E08C2F0E94AA
S1130E40A4064CED60E08C2F0E94A40640E060E014
S1130E508C2F0E94A40641E860E08C2F0E94A40617
S1130E604FE760E08C2F0E94A40649ED60E08C2FD0
S1130E700E94A40641EF60E08C2F0E94A4064BED73
S1130E8060E08C2F0E94A40640E460E08C2F0E9456
S1130E90A40648E760E08C2F0E94A40648E260E0C4
S1130EA08C2F0E94A40641E060E08C2F0E94A406CF
S1130EB040E860E08C2F0E94A4064CE060E08C2F98
S1130EC00E94A406BAE624E081E0B15020408040AC
S1130ED0E1F700C01092212810922228CF910895A2
S1130EE0CF92DF92FF920F931F93CF93DF93CDB7EF
S1130EF0DEB7E297CDBFDEBFD42E91E1E2EEF6E697
S1130F00DE01929601900D929A95E1F7882329F0DB
S1130F100F2EFDE3FF2EF02D04C00F2EFCE3FF2E59
S1130F20F02D8E010F5F1F4FC8010E94980FF8012A
S1130F3001900020E9F73197E01BF10B719708F05D
S1130F40198ABE016E5D7F4FCE0101960E948D0FFE
S1130F5081E0D81206C040E860E08F2D0E94A4060C
S1130F6019C040EC60E08F2D0E94A40613C0F80164
S1130F7041918F0160E48F2D0E94A4060C151D057C
S1130F80B1F781E090E08093212890932228109279
S1130F90232808C08E010F5F1F4F6E01F1E1CF0EB1
S1130FA0D11CE5CFE296CDBFDEBFDF91CF911F917B
S1130FB00F91FF90DF90CF9008951F93CF93DF930D
S1130FC01F92CDB7DEB7182F198241E0BE016F5FC3
S1130FD07F4F0E94700742E0BE016F5F7F4F812FF9
S1130FE00E947007109221281092222881E0809399
S1130FF023280F90DF91CF911F91089584E080936F
S11310007004E0E0F6E0808184608083A0EAB0E0D0
S11310108C9180638C93A2E0B6E08C918C938C913C
S113102080648C9310920606808181608083E8E05E
S1131030F6E0808181608083808180FF04C00000AD
S1131040808180FDFCCF8091100690911106109252
S11310501C280895BF92CF92DF92EF92FF920F93D4
S11310601F93CF93DF930F2EFAE0BF2EF02DC12CE8
S1131070D12C7601C8E0D6E000E116E088818160D9
S11310808883888180FF04C00000888180FDFCCFB4
S1131090F801608170E080E090E00E94680E9B019E
S11310A0AC01C701B6010E94560D6B017C01BA94D4
S11310B0B110E4CF20E030E040E251E40E94C70DDB
S11310C02EE53AEB49E55FE30E941A0F2FE135E87C
S11310D045EC51E40E94550D6B017C0120E030E0A9
S11310E0A9010E94C20D88231CF4C12CD12C7601C5
S11310F020E030E040E05FE3C701B6010E94560DF6
S11311000E94390E862FDF91CF911F910F91FF908E
S1131110EF90DF90CF90BF900895CF931092022864
S11311208091480488238CF4E5E0F8E2C385CF5F1E
S1131130C3878BE090E00E945612C81730F080E815
S11311408093460481E0809314288091480486FFAC
S113115011C0E5E0F8E2C485CF5FC4878BE090E07E
S11311600E945612C81730F080E48093460481E050
S1131170809315288091480485FF0DC0E5E0F8E2CE
S113118085858F5F8587883730F080E280934604B9
S113119081E0809316288091480484FF05C0E5E02F
S11311A0F8E286858F5F8687E5E0F8E285898150DD
S11311B0858B811102C00E948805CF910895CF9339
S11311C0DF9310920328809104288C3328F081E067
S11311D08093022810920428C5E0D8E28F89809376
S11311E000280E942A088F8B809148048823F4F4F5
S11311F08091880480FD1AC0809118288A3030F0CC
S113120080E8809346041092182803C08F5F80936F
S1131210182880911E28813049F4809121289091CA
S11312202228892B19F081E00E948B0180914804C7
S113123086FF1FC08091880481FD1BC080911928FE
S11312408A3030F080E4809346041092192803C059
S11312508F5F8093192880911E28813051F48091EA
S1131260212890912228892B09F449C081E00E9409
S11312708B018091480485FF1EC08091880482FD03
S11312801AC080911728853030F080E2809346049C
S11312901092172803C08F5F8093172880911E280F
S11312A0813049F48091212890912228892BC9F01A
S11312B081E00E948B01809121289091222800973F
S11312C081F08B30910540F080E00E94DD071092A0
S11312D021281092222805C00196809321289093FA
S11312E0222890911C2880910028981789F08091D9
S11312F0232881110DC085E00E948B0109C08091D3
S1131300480485FFEECF8091880482FFBACFE9CFED
S1131310DF91CF9108959C01E0E6F0E0848D8E7F0B
S113132098ED94BF848F838186FF04C0000093816D
S113133096FDFCCFE0E6F0E0948D9B7F88ED84BFC2
S1131340948F948D916084BF948F80914101882300
S113135031F0E0E4F1E0000091819111FCCFE0E490
S1131360F1E02287338782E08783858181608583EA
S113137081EB808382818160828308951F920F9222
S11313800FB60F9211248F939F9391E09093430192
S1131390809104288F5F80930428909303289F9161
S11313A08F910F900FBE0F901F90189510922428C4
S11313B01092252825E03DE0AC01429FC001439FE7
S11313C0900D529F900D1124E0E8FAE084879587F0
S11313D081E08583808308951092800A08951F9286
S11313E00F920FB60F9211248F939F9381E08093F5
S11313F0860A809124289091252801968093242898
S1131400909325289F918F910F900FBE0F901F905E
S11314101895E0EAF8E08BE086838381816083831A
S11314208581816085830895613029F4880F816006
S11314308093A70803C0880F8093A70881E090E0F9
S11314400E94D6098091A508807CB9F48091242853
S1131450909125280B9748F4E0EAF8E00AC08091BF
S11314602428909125280B9720F00E94EC0984E011
S1131470089500008581807C91F30E94EC0980919D
S1131480A50882FD0BC08091A50883FD09C0909139
S1131490A508892F807194FD05C0089583E00895FF
S11314A082E0089585E0089587E08093A408089574
S11314B09091A50896FD06C0E0EAF8E00000958149
S11314C096FFFCCF8093A80881E090E00E94D609A3
S11314D0E0EAF8E00BC000008091242890912528D0
S11314E0C39720F00E94EC0984E00895858186FF6B
S11314F0F2CF0E94EC099091A508892F807194FD88
S113150086E00895E0E0F4E081E085838183E0E013
S1131510F8E02DE635E02087318795819068958342
S11315209681906496839681906896831092792828
S11315301092CD28109278281092CC2810927728F7
S11315408093CB2808956093CD281092CC281092D4
S1131550CB28662371F0A82FB92FEAE7F8E261508F
S1131560262F30E02558374D8D918193E217F307EC
S1131570D9F7E0E0F8E08581806285830895AF9231
S1131580BF92CF92DF92EF92FF920F931F93CF936C
S1131590DF93CDB7DEB7C25AD109CDBFDEBF1092FB
S11315A0772885E0E3EFF6E6DE01119601900D92CF
S11315B08A95E1F78091480484FF0BC0FE013196BF
S11315C001900020E9F731978FE490E080839183C4
S11315D00AC0FE01319601900020E9F7319783E4B7
S11315E090E080839183DE0111960D900020E9F74D
S11315F0119786E0E8EFF6E601900D928A95E1F7FF
S113160080911628882359F0FE013196019000201C
S1131610E9F7319784E590E08083918319C0809144
S1131620480485FF0BC0FE01319601900020E9F7C4
S113163031978FE490E0808391830AC0FE01319654
S113164001900020E9F7319783E490E0808391834F
S1131650DE0111960D900020E9F7119786E0EEEF78
S1131660F6E601900D928A95E1F78DE090E00E94F4
S1131670561281110BC0FE01319601900020E9F74A
S1131680319788E590E08083918328C08091152864
S1131690882359F0FE01319601900020E9F7319733
S11316A084E590E08083918319C08091480486FF8B
S11316B00BC0FE01319601900020E9F731978FE4C9
S11316C090E0808391830AC0FE013196019000204E
S11316D0E9F7319783E490E080839183DE011196EA
S11316E00D900020E9F7119786E0E4E0F7E6019019
S11316F00D928A95E1F78CE090E00E9456128111D8
S11317000BC0FE01319601900020E9F7319788E57E
S113171090E08083918328C080911428882359F015
S1131720FE01319601900020E9F7319784E590E0BD
S11317308083918319C08091480488235CF4FE015E
S1131740319601900020E9F731978FE490E080838F
S113175091830AC0FE01319601900020E9F7319788
S113176083E490E0808391838E010F5F1F4FD80143
S11317700D900020E9F7119786E0EAE0F7E6019082
S11317800D928A95E1F78AE090E00E9456121F922A
S11317908F930F2EF0E1CF2EF7E6DF2EF02DDF92A0
S11317A0CF927E0122E5E20EF11CFF92EF920E949D
S11317B09F0FB701C8010E948D0FD8010D90002022
S11317C0E9F7119787E0E3E1F7E601900D928A9536
S11317D0E1F70F2EF5E0AF2EF8E2BF2EF02DF50164
S11317E085891F928F93DF92CF92FF92EF920E948E
S11317F09F0FB701C8010E948D0FD8010D900020E2
S1131800E9F7119786E0EAE1F7E601900D928A95EF
S1131810E1F78BE090E00E9456121F928F93DF92C3
S1131820CF92FF92EF920E949F0FB701C8010E94CE
S11318308D0FD8010D900020E9F7119787E0E0E2C1
S1131840F7E601900D928A95E1F7F50187891F92D9
S11318508F93DF92CF92FF92EF920E949F0FB70176
S1131860C8010E948D0FD8010D900020E9F711974F
S113187087E0E7E2F7E601900D928A95E1F780911F
S11318808804CDBFDEBF82FF0AC0F80101900020AA
S1131890E9F7319788E490E0808391830AC0FE01E0
S11318A0319601900020E9F7319783E490E080833A
S11318B09183DE0111960D900020E9F7119787E0DE
S11318C0EEE2F7E601900D928A95E1F780918804A3
S11318D081FF0BC0FE01319601900020E9F731979A
S11318E088E490E0808391830AC0FE0131960190E0
S11318F00020E9F7319783E490E080839183DE014F
S113190011960D900020E9F7119787E0E5E3F7E6DB
S113191001900D928A95E1F78091880480FF0BC0B5
S1131920FE01319601900020E9F7319788E490E0B8
S1131930808391830AC0FE01319601900020E9F76B
S1131940319783E490E080839183FE013196019086
S11319500020E9F731978DE090E08083918384E65D
S113196090E00E94D6098091CB28811113C0809108
S11319702428909125280B97C8F4EBECF8E206C0D4
S113198080912428909125280B9780F40000808171
S11319908823B1F3CE010196FC0101900020E9F700
S11319A03197BF01681B790B0E94A30ACE55DF4F04
S11319B0CDBFDEBFDF91CF911F910F91FF90EF90CC
S11319C0DF90CF90BF90AF9008951F920F920FB603
S11319D00F9211248F939F93AF93BF93EF93FF9331
S11319E080910008909179289135B0F48D3051F4AC
S11319F0E0917928F0E0EA5DF74D108281E0809370
S1131A0077280AC0A9E7B8E2EC9191E09E0F9C9375
S1131A10F0E0EA5DF74D8083FF91EF91BF91AF91C4
S1131A209F918F910F900FBE0F901F9018951F924A
S1131A300F920FB60F9211248F939F93AF93BF937E
S1131A40CF93DF93EF93FF93C0E0D8E08D818F7D38
S1131A508D83ACECB8E2EC9181E08E0F8C93F0E0D6
S1131A60E658F74D80818A839091CD288C91981304
S1131A7004C081E08093CB2805C0E0E0F8E08581D4
S1131A8080628583FF91EF91DF91CF91BF91AF91F8
S1131A909F918F910F900FBE0F901F901895E0E4C7
S1131AA0F4E080EF8683818308955058BB27AA27EA
S1131AB00E946D0D0C94E00E0E94D20E38F00E942C
S1131AC0D90E20F039F49F3F19F426F40C94CF0E6C
S1131AD00EF4E095E7FB0C94C90EE92F0E94F10E79
S1131AE058F3BA17620773078407950720F079F44F
S1131AF0A6F50C94130F0EF4E0950B2EBA2FA02D1F
S1131B000B01B90190010C01CA01A0011124FF27A6
S1131B10591B99F0593F50F4503E68F11A16F040A1
S1131B20A22F232F342F4427585FF3CF46953795A0
S1131B302795A795F0405395C9F77EF41F16BA0B65
S1131B40620B730B840BBAF09150A1F0FF0FBB1F13
S1131B50661F771F881FC2F70EC0BA0F621F731F5C
S1131B60841F48F4879577956795B795F7959E3FB9
S1131B7008F0B0CF9395880F08F09927EE0F97954A
S1131B80879508950E94A50E08F481E008950E94A7
S1131B90DB0D0C94E00E0E94D90E58F00E94D20E78
S1131BA040F029F45F3F29F00C94C90E51110C94B4
S1131BB0140F0C94CF0E0E94F10E68F39923B1F325
S1131BC0552391F3951B550BBB27AA27621773075F
S1131BD0840738F09F5F5F4F220F331F441FAA1FF3
S1131BE0A9F335D00E2E3AF0E0E832D091505040AF
S1131BF0E695001CCAF72BD0FE2F29D0660F771F5D
S1131C00881FBB1F261737074807AB07B0E809F042
S1131C10BB0B802DBF01FF2793585F4F3AF09E3FC7
S1131C20510578F00C94C90E0C94140F5F3FE4F343
S1131C30983ED4F3869577956795B795F7959F5F0A
S1131C40C9F7880F911D9695879597F90895E1E056
S1131C50660F771F881FBB1F621773078407BA07B5
S1131C6020F0621B730B840BBA0BEE1F88F7E09510
S1131C7008950E94F90E88F09F5798F0B92F99277C
S1131C80B751B0F0E1F0660F771F881F991F1AF063
S1131C90BA95C9F714C0B13091F00E94130FB1E0A6
S1131CA008950C94130F672F782F8827B85F39F0A5
S1131CB0B93FCCF3869577956795B395D9F73EF4FC
S1131CC090958095709561957F4F8F4F9F4F0895A4
S1131CD0E89409C097FB3EF49095809570956195C2
S1131CE07F4F8F4F9F4F9923A9F0F92F96E9BB2778
S1131CF09395F695879577956795B795F111F8CFF4
S1131D00FAF4BB0F11F460FF1BC06F5F7F4F8F4F5E
S1131D109F4F16C0882311F096E911C0772321F054
S1131D209EE8872F762F05C0662371F096E8862FEC
S1131D3070E060E02AF09A95660F771F881FDAF743
S1131D40880F9695879597F90895990F0008550F70
S1131D50AA0BE0E8FEEF16161706E807F907C0F02D
S1131D6012161306E407F50798F0621B730B840B35
S1131D70950B39F40A2661F0232B242B252B21F40F
S1131D8008950A2609F4A140A6958FEF811D811DAF
S1131D90089597F99F6780E870E060E008959FEFE9
S1131DA080EC089500240A941616170618060906EE
S1131DB0089500240A9412161306140605060895BD
S1131DC0092E0394000C11F4882352F0BB0F40F445
S1131DD0BF2B11F460FF04C06F5F7F4F8F4F9F4F85
S1131DE0089557FD9058440F551F59F05F3F71F007
S1131DF04795880F97FB991F61F09F3F79F087956E
S1131E000895121613061406551FF2CF4695F1DFF6
S1131E1008C0161617061806991FF1CF8695710586
S1131E20610508940895E894BB2766277727CB01BA
S1131E3097F908950E942D0F0C94E00E0E94D20E83
S1131E4038F00E94D90E20F0952311F00C94C90E9D
S1131E500C94CF0E11240C94140F0E94F10E70F305
S1131E60959FC1F3950F50E0551F629FF001729F3B
S1131E70BB27F00DB11D639FAA27F00DB11DAA1F4A
S1131E80649F6627B00DA11D661F829F2227B00D97
S1131E90A11D621F739FB00DA11D621F839FA00D22
S1131EA0611D221F749F3327A00D611D231F849F72
S1131EB0600D211D822F762F6A2F11249F575040C9
S1131EC09AF0F1F088234AF0EE0FFF1FBB1F661F44
S1131ED0771F881F91505040A9F79E3F510580F00D
S1131EE00C94C90E0C94140F5F3FE4F3983ED4F3A2
S1131EF0869577956795B795F795E7959F5FC1F7B1
S1131F00FE2B880F911D9695879597F90895EE0FEE
S1131F10FF1F0590F491E02D0994FB01DC010D9065
S1131F200020E9F7119701900D920020E1F7089540
S1131F30FB01DC0101900D920020E1F70895AEE071
S1131F40B0E0E5EAFFE00C949B120D891E8986E05F
S1131F508C8309831A838FEF9FE78D839E83AE0161
S1131F60475E5F4F6F89788DCE0101960E94C10F45
S1131F70EF81F885E00FF11F10822E96E4E00C94B7
S1131F80B412ABE0B0E0E7ECFFE00C948D126C010E
S1131F907B018A01FC0116821782838181FFCCC1F7
S1131FA0CE0101963C01F6019381F70193FD8591E1
S1131FB093FF81917F01882309F4BAC1853239F4F2
S1131FC093FD859193FF81917F01853229F4B601B8
S1131FD090E00E94B811E7CF912C212C312CFFE125
S1131FE0F315D8F08B3279F038F4803279F08332FB
S1131FF0A1F4232D20611DC08D3261F0803369F47A
S1132000232D216016C0832D8260382EE32DE460D9
S11320103E2E2AC0F32DF8601DC037FC2DC020EDE4
S1132020280F2A3040F08E32B9F436FC81C1232DBA
S11320302064322E19C036FE06C08AE0989E200D18
S11320401124922E11C0EAE02E9E200D1124222E7E
S1132050F32DF0623F2E08C08C3621F4832D806866
S1132060382E02C0883641F4F70193FD859193FF21
S113207081917F018111B3CF982F9F7D9554933027
S113208028F40C5F1F4F9FE399830DC0833631F012
S1132090833771F0833509F059C021C0F80180817C
S11320A089830E5F1F4F88248394912C530113C09E
S11320B02801F2E04F0E511CF801A080B18036FED9
S11320C003C0692D70E002C06FEF7FEFC5010E946D
S11320D0AD114C018201F32DFF773F2E16C028016C
S11320E022E0420E511CF801A080B18036FE03C0EC
S11320F0692D70E002C06FEF7FEFC5010E94A2114D
S11321004C01F32DF0683F2E820133FC1BC0822D5D
S113211090E088169906B0F4B60180E290E00E943F
S1132120B8112A94F4CFF50137FC859137FE8191DB
S11321305F01B60190E00E94B81121102A9421E0B9
S1132140821A91088114910471F7E8C0843611F061
S1132150893641F5F80137FE07C0608171818281BB
S113216093810C5F1F4F08C060817181072E000CA2
S1132170880B990B0E5F1F4FF32DFF763F2E97FFB1
S113218009C090958095709561957F4F8F4F9F4FB3
S1132190F0683F2E2AE030E0A3010E94F411882E5B
S11321A0861845C0853731F4232D2F7EB22E2AE0C0
S11321B030E025C0932D997FB92E8F36C1F018F4E5
S11321C0883579F0B5C0803719F0883721F0B0C070
S11321D0E92FE061BE2EB4FE0DC0FB2DF460BF2ECE
S11321E009C034FE0AC0292F2660B22E06C028E09A
S11321F030E005C020E130E002C020E132E0F80127
S1132200B7FE07C060817181828193810C5F1F4F8B
S113221006C06081718180E090E00E5F1F4FA301D2
S11322200E94F411882E8618FB2DFF773F2E36FE70
S11322300DC0232D2E7FA22E891458F434FE0BC01A
S113224032FC09C0832D8E7EA82E05C0B82CA32C89
S113225003C0B82C01C0B92CA4FE0FC0FE01E80DC8
S1132260F11D8081803321F49A2D997EA92E09C015
S1132270A2FE06C0B394B39404C08A2D867809F0F4
S1132280B394A3FC11C0A0FE06C0B21488F4280CB9
S1132290922C9B180EC0B21460F4B60180E290E058
S11322A00E94B811B394F7CFB21418F42B1802C0DB
S11322B0982C212CA4FE10C0B60180E390E00E946B
S11322C0B811A2FE17C0A1FC03C088E790E002C0C9
S11322D088E590E0B6010CC08A2D867859F0A1FEFD
S11322E002C08BE201C080E2A7FC8DE2B60190E05F
S11322F00E94B811891438F4B60180E390E00E947A
S1132300B8119A94F7CF8A94F301E80DF11D8081F6
S1132310B60190E00E94B8118110F5CF222009F493
S113232042CEB60180E290E00E94B8112A94F6CF22
S1132330F6018681978102C08FEF9FEF2B96E2E131
S11323400C94A612FC010590615070400110D8F75E
S1132350809590958E0F9F1F0895FC0161507040E9
S113236001900110D8F7809590958E0F9F1F0895C6
S11323700F931F93CF93DF93FB01238121FD03C0B0
S11323808FEF9FEF2CC022FF16C046815781248116
S113239035814217530744F4A081B1819D012F5F19
S11323A03F4F208331838C93268137812F5F3F4FAA
S11323B02683378314C08B01EC01FB010084F18573
S11323C0E02D0995892BE1F6D80116968D919C9103
S11323D01797019616968D939C931797CE01DF91CC
S11323E0CF911F910F910895FA01AA27283051F136
S11323F0203181F1E8946F936E7F6E5F7F4F8F4F32
S11324009F4FAF4FB1E03ED0B4E03CD0670F781F90
S1132410891F9A1FA11D680F791F8A1F911DA11D75
S11324206A0F711D811D911DA11D20D009F46894AE
S11324303F912AE0269F11243019305D3193DEF656
S1132440CF010895462F4770405D4193B3E00FD00C
S1132450C9F7F6CF462F4F70405D4A3318F0495DF7
S113246031FD4052419302D0A9F7EACFB4E0A695DA
S11324709795879577956795BA95C9F700976105FC
S1132480710508959B01AC010A2E06945795479552
S113249037952795BA95C9F7620F731F841F951F47
S11324A0A01D089560507C4E0C94BE1203D0808110
S11324B099270895FC01E050FC4E0895DC01A40F17
S11324C0B51F4150504048F0CB01840F951F2E9109
S11324D00E946F1241505040D0F70895262F0E9459
S11324E05A120080021619F00E947A12019701977D
S11324F00895262FAF93BF93E0E0F0E1328131FDE0
S1132500FDCFDC01A050BC4E2C932DE924BF23E069
S113251020830196BF91AF9108952F923F924F92DD
S11325205F926F927F928F929F92AF92BF92CF925F
S1132530DF92EF92FF920F931F93CF93DF93CDB768
S1132540DEB7CA1BDB0BCDBFDEBF09942A883988EE
S113255048885F846E847D848C849B84AA84B98437
S1132560C884DF80EE80FD800C811B81AA81B98143
S1132570CE0FD11DCDBFDEBFED010895FB01DC01FF
S113258002C001900D9241505040D8F70895F8943C
S1052590FFCF77
S113259253656E736F7220636F6C64206F72006395
S11325A261626C6520756E706C7567676564003274
S11325B23032312D30392D30320020204C4E322031
S11325C24175746F66696C6C0053555020425546D0
S11325D22052454420424C5500204F2020002043E5
S11325E2202000205420200020582020004E65780E
S11325F2742066696C6C20696E002564206D696EB6
S1132602757465002564206D696E75746573004682
S1132612696C6C20696E74657276616C004D6178C8
S1132622206F70656E2074696D65004C4E322070A7
S113263272657373757265002564206B5061004284
S11326424C554520697320454E41424C4544005047
S113265275736820746F2064697361626C650042EB
S11326626C75652069732044495341424C454400CA
S11326725075736820746F20656E61626C650052D8
S1132682454420697320454E41424C45440052451D
S1132692442069732044495341424C4544006465D3
S11326A26661756C74006F76657272756E00507532
S11326B2736820746F2073657420696E7476005099
S11326C275736820746F2073657420696E7400508A
S11326D275736820746F20736574206D61786F0060
S11326E220202020202020202020202020202020E4
S11326F2005355502C002C4255462C002C52454474
S11327022C002C424C552C002C494E542C00256490
S1132712002C4E4558542C002C4D41582C002C5062
S11327225245532C002C544255462C002C545245ED
S10D2732442C002C54424C552C009A
S9030000FC
