:100000000C9458000C946A000C946A000C94EC094F
:100010000C946A000C946A000C946A000C946A00B8
:100020000C946A000C946A000C946A000C946A00A8
:100030000C941D0A0C946A000C946A000C946A00DB
:100040000C946A000C941B0C0C944D0C0C946A00DC
:100050000C946A000C946A000C946A000C946A0078
:100060000C94FF050C94510A0C946A000C946A00DD
:100070000C946A000C946A000C946A000C946A0058
:100080000C946A000C946A000C9429010C946A0088
:100090000C946A000C946A000C946A000C946A0038
:1000A0009601B4018B02C102F902310352038103AC
:1000B00011241FBECFEFCDBFDFE3DEBF2AE2A0E0F9
:1000C000B8E201C01D92AF32B207E1F70E94870685
:1000D0000C94FD110C94000080E00E94E40741E0C4
:1000E0006EEF73E680E00E94770742E06DE074E611
:1000F00080E00E9477070895809100288230C9F13E
:1001000018F4813041F096C0833009F45FC0843028
:1001100009F47DC08FC080914804882324F480E8CE
:100120008093460411C08CE090E00E948C118823DB
:10013000C1F08091880480FF0DC080E88093450461
:10014000E7E0F8E2138617868CE090E00E948C11BD
:10015000882339F08091880480FD03C00E946C00E0
:1001600069C080912328813009F064C00E94850114
:1001700061C08091480486FF04C080E480934604F7
:1001800011C08DE090E00E948C118823C1F0809115
:10019000880481FF0DC080E480934504E7E0F8E225
:1001A0001486108A8DE090E00E948C11882339F02B
:1001B0008091880481FD03C00E946C003BC0809147
:1001C00023288130B9F50E94850134C0809148040C
:1001D00085FF04C080E2809346040BC080918804B0
:1001E00082FF07C080E280934504E7E0F8E21586CD
:1001F000118A8091880482FD03C00E946C001AC09D
:10020000809123288130B1F40E94850113C0809130
:10021000480484FF04C080E18093460405C0E7E001
:10022000F8E281E0878B108E80912328813011F4D1
:100230000E9485011092002808958FE08093290480
:100240000895E0E2F4E08BE0828B838B808B818BDE
:1002500008951F920F920FB60F9211248F938091E1
:10026000290482FF07C084E08093290481E0809301
:10027000002820C08091290483FF07C088E0809374
:10028000290482E08093002815C08091290480FF12
:1002900007C081E08093290483E0809300280AC08E
:1002A0008091290481FF06C082E08093290484E0C4
:1002B000809300288F910F900FBE0F901F9018957C
:1002C0004AE050E060E070E00E9488110895CF930A
:1002D000DF93CDB7DEB72B97CDBFDEBF8BE0EDE16F
:1002E000F4E6DE01119601900D928A95E1F74AE05D
:1002F00050E060E070E0CE0101960E9494112B96D0
:10030000CDBFDEBFDF91CF910895CF93DF93CDB7FF
:10031000DEB7AA97CDBFDEBF90E08830910508F028
:100320001FC2FC01E05BFF4F0C94BD0E8FE0E8E2C2
:10033000F4E6DE01119601900D928A95E1F787E0CF
:1003400098E20E94600180E290E28E8B9F8B80E2B7
:1003500090E0888F998F67E078E2CE0146960E9400
:10036000C30E1092232810C280E1E7E3F4E6DE0119
:10037000119601900D928A95E1F78091480484FFCF
:100380000AC085E0E7E4F4E6DE01569601900D929E
:100390008A95E1F709C085E0ECE4F4E6DE015696C3
:1003A00001900D928A95E1F78091480485FF0EC077
:1003B000DE0156960D900020E9F7119785E0E7E4FD
:1003C000F4E601900D928A95E1F71FC080911828FC
:1003D000882371F0DE0156960D900020E9F7119701
:1003E00085E0E1E5F4E601900D928A95E1F70DC014
:1003F000DE0156960D900020E9F7119785E0ECE4B8
:10040000F4E601900D928A95E1F78DE090E00E946C
:100410008C1181110EC0DE0156960D900020E9F777
:10042000119785E0E6E5F4E601900D928A95E1F7F3
:1004300031C08091480486FF0EC0DE0156960D90B3
:100440000020E9F7119785E0E7E4F4E601900D92CA
:100450008A95E1F71FC080911728882371F0DE018B
:1004600056960D900020E9F7119785E0E1E5F4E656
:1004700001900D928A95E1F70DC0DE0156960D9020
:100480000020E9F7119785E0ECE4F4E601900D9285
:100490008A95E1F78CE090E00E948C1181110CC0EC
:1004A000FE01769601900020E9F7319780E298E509
:1004B0008083918312822BC080914804882364F446
:1004C000FE01769601900020E9F7319780E29FE4E3
:1004D0008083918312821BC080911628882361F04B
:1004E000FE01769601900020E9F7319780E294E5CD
:1004F0008083918312820BC0FE01769601900020CA
:10050000E9F7319780E293E480839183128281E05E
:100510008093232839C18DE0EBE5F4E6DE011196E6
:1005200001900D928A95E1F780911C28823098F411
:100530001F928F9388E694E69F938F93CE01469601
:100540009F938F930E94D50E0F900F900F900F9056
:100550000F900F9012C01F928F9382E794E69F93A3
:100560008F93CE0146969F938F930E94D50E0F9046
:100570000F900F900F900F900F9082E080932328A0
:1005800003C18EE0EDE7F4E6DE01119601900D92D5
:100590008A95E1F78AE090E00E948C11813099F40D
:1005A0001F928F9388E694E69F938F93CE01469691
:1005B0009F938F930E94D50E0F900F900F900F90E6
:1005C0000F900F9012C01F928F9382E794E69F9333
:1005D0008F93CE0146969F938F930E94D50E0F90D6
:1005E0000F900F900F900F900F9083E0809323282F
:1005F000CBC08EE0EBE8F4E6DE01119601900D929F
:100600008A95E1F78BE090E00E948C11823098F49B
:100610001F928F9388E694E69F938F93CE01469620
:100620009F938F930E94D50E0F900F900F900F9075
:100630000F900F9012C01F928F9382E794E69F93C2
:100640008F93CE0146969F938F930E94D50E0F9065
:100650000F900F900F900F900F9084E080932328BD
:1006600093C08DE0E9E9F4E6DE01119601900D9268
:100670008A95E1F7809121281F928F9386EA94E66C
:100680009F938F93CE0146969F938F930E94D50E92
:1006900085E0809323280F900F900F900F900F907C
:1006A0000F9072C08CE090E00E948C11882399F02A
:1006B00080E1EDEAF4E6DE01119601900D928A9553
:1006C000E1F780E1EDEBF4E6DE01569601900D9244
:1006D0008A95E1F712C081E1EDECF4E6DE011196B6
:1006E00001900D928A95E1F78FE0EEEDF4E6DE01E0
:1006F000569601900D928A95E1F786E08093232823
:1007000043C08DE090E00E948C11882399F08FE027
:10071000EDEEF4E6DE01119601900D928A95E1F777
:1007200080E1EDEBF4E6DE01569601900D928A959C
:10073000E1F712C080E1ECEFF4E6DE0111960190E2
:100740000D928A95E1F78FE0EEEDF4E6DE01569624
:1007500001900D928A95E1F787E08093232814C0D9
:1007600088E0ECE0F5E6DE01119601900D928A95A5
:10077000E1F788E0E4E1F5E6DE01569601900D929E
:100780008A95E1F71092232841E0BE016F5F7F4F09
:1007900080E00E94770742E0BE016A5E7F4F80E002
:1007A0000E947707AA96CDBFDEBFDF91CF91089553
:1007B0008CE090E00E948C1161E0811160E08CE09F
:1007C00090E00E94A4111092222886E00E948501E8
:1007D00008958DE090E00E948C1161E0811160E04D
:1007E0008DE090E00E94A4111092222887E00E94E0
:1007F00085010895EF92FF920F931F93CF93DF939C
:10080000CDB7DEB76597CDBFDEBF8AE090E00E942E
:100810008C1180932428809124288130A9F4809120
:1008200024281F928F9388E694E69F938F93CE019E
:1008300001969F938F930E94D50E0F900F900F906B
:100840000F900F900F9014C0809124281F928F93C7
:1008500082E794E69F938F93CE0101969F938F93A7
:100860000E94D50E0F900F900F900F900F900F9049
:1008700041E06CE175E680E00E94770742E0BE014E
:100880006F5F7F4F80E00E9477070F2EFEEFEF2E05
:10089000F02D6894FF24F1F802E714E632C080914D
:1008A0002228873071F580912428823018F4F09244
:1008B000242806C0809124288F3F11F4E092242838
:1008C000809124281F928F931F930F9381E090E0D3
:1008D0008C0F9D1F9F938F930E94D50E41E06DE278
:1008E00075E680E00E9477074F2DBE016F5F7F4F56
:1008F00080E00E9477070F900F900F900F900F905D
:100900000F9080912228853051F610922228609114
:1009100024288AE090E00E94A4118BE090E00E94DD
:100920008C11182F8AE090E00E948C11181730F07B
:100930006FEF680F8BE090E00E94A41183E00E94AB
:1009400085016596CDBFDEBFDF91CF911F910F91DD
:10095000FF90EF900895CF92DF92EF92FF920F9366
:100960001F93CF93DF93CDB7DEB76597CDBFDEBFC3
:100970008BE090E00E948C118093242880912428A1
:100980008130A9F4809124281F928F9388E694E601
:100990009F938F93CE0101969F938F930E94D50EC4
:1009A0000F900F900F900F900F900F9014C08091A8
:1009B00024281F928F9382E794E69F938F93CE0112
:1009C00001969F938F930E94D50E0F900F900F90DA
:1009D0000F900F900F9041E06DE375E680E00E946C
:1009E000770742E0BE016F5F7F4F80E00E9477078C
:1009F0000EEF11E00F2EF2E7EF2EF4E6FF2EF02DB2
:100A00000F2EF8E6CF2EF4E6DF2EF02D57C08091A2
:100A10002228873009F052C080912428811103C018
:100A20001093242806C0809124288F3F11F400934E
:100A300024288AE090E00E948C1190912428981735
:100A400018F0815080932428809124288130A9F4C3
:100A5000809124281F928F93DF92CF9281E090E0C3
:100A60008C0F9D1F9F938F930E94D50E0F900F9018
:100A70000F900F900F900F9014C0809124281F9218
:100A80008F93FF92EF9281E090E08C0F9D1F9F93D8
:100A90008F930E94D50E0F900F900F900F900F9094
:100AA0000F90412F6DE375E680E00E94770742E0EA
:100AB000BE016F5F7F4F80E00E9477078091222800
:100AC000853009F0A4CF10922228609124288BE071
:100AD00090E00E94A41184E00E9485016596CDBF3C
:100AE000DEBFDF91CF911F910F91FF90EF90DF90CC
:100AF000CF900895E0E4F4E08BE0838B98E0928B54
:100B0000818B08958CE090E00E948C11882379F00D
:100B10008091480488235CF08091880480FF07C09E
:100B200080E880934504E7E0F8E2138617868DE0BD
:100B300090E00E948C11882379F08091480486FD12
:100B40000BC08091880481FF07C080E48093450436
:100B5000E7E0F8E21486108A80912328813011F4AE
:100B60000E9485018AE090E00E948C1180931C28ED
:100B7000089580912828882329F0809123280E94B5
:100B800085010895809122288730A9F410922228A7
:100B90008091232890912528890F80932328809184
:100BA00023288091232887708093232880912328ED
:100BB0000E9485010895809122288530F9F41092D1
:100BC000222880912328843089F028F4823041F053
:100BD000833049F00895863061F0873069F00895D8
:100BE0000E94820508950E94FA0308950E94AB04B2
:100BF00008950E94D80308950E94E90308951F9262
:100C00000F920FB60F9211248F93EF93FF93809161
:100C1000490481FF07C082E08093490485E0809306
:100C200022281FC08091490483FF1BC0E0E4F4E048
:100C300088E08187808582FF09C0809124288F5FAA
:100C40008093242881E08093252808C0809124285F
:100C50008150809324288FEF8093252887E080930C
:100C60002228FF91EF918F910F900FBE0F901F9050
:100C70001895CF93DF93C7E0D8E28CE08E8B8AE0A3
:100C800090E00E948C118D8B1B861C861D861E8613
:100C90001F86188A198A1A8A1B8A1C8A0E943108A0
:100CA0008A8FDF91CF910895E0E6F4E084E0808BB5
:100CB000818B828B838B848B858B868B878B08952E
:100CC0001092012810920528109203280E945406C1
:100CD0000E94850C0E94370A0E94E20A0E942101AC
:100CE0000E947A050E94690A8FEF91E00E94B9097B
:100CF0000E9405080E94390680E00E94BD060E94FD
:100D0000670180E00E9485010E941D0108950E94F4
:100D100060067894CAE2D9E28091002881110E948D
:100D20007C008091222881110E94B90580910128C0
:100D300081110E9494088091052881110E949708D2
:100D40008091022881110E94FB088881882321F369
:100D50000E941F0BE1CFCF93DF93D62FC42F60E00B
:100D60000E94740A8D2F0E94B80A8C2F0E94B80A24
:100D70000E94B40ADF91CF910895CF93E0E0F4E0B0
:100D800090E896839183A6E4B0E11197F1F700C053
:100D90009583882311F0CDE301C0CCE34AE260E003
:100DA0008C2F0E94AB0641E760E08C2F0E94AB06BF
:100DB0004CE560E48C2F0E94AB0648E260E08C2F8B
:100DC0000E94AB0648E060E08C2F0E94AB064AE22E
:100DD00060E08C2F0E94AB0649E760E08C2F0E94F8
:100DE000AB0645ED60E08C2F0E94AB0640E760E06B
:100DF0008C2F0E94AB0648E760E08C2F0E94AB0668
:100E000048E060E08C2F0E94AB0646E060E08C2F4B
:100E10000E94AB0642E760E08C2F0E94AB0640E0E8
:100E200060E48C2F0E94AB064AE260E08C2F0E94A7
:100E3000AB0649E760E08C2F0E94AB064AED60E00C
:100E40008C2F0E94AB0640E060E08C2F0E94AB0626
:100E50004CED60E08C2F0E94AB0640E060E08C2FF0
:100E60000E94AB0641E860E08C2F0E94AB064FE782
:100E700060E08C2F0E94AB0649ED60E08C2F0E9451
:100E8000AB0641EF60E08C2F0E94AB064BED60E0BB
:100E90008C2F0E94AB0640E460E08C2F0E94AB06D2
:100EA00048E760E08C2F0E94AB0648E260E08C2FA0
:100EB0000E94AB0641E060E08C2F0E94AB0640E848
:100EC00060E08C2F0E94AB064CE060E08C2F0E940B
:100ED000AB06BAE624E081E0B15020408040E1F763
:100EE00000C01092262810922728CF910895CF9203
:100EF000DF92FF920F931F93CF93DF93CDB7DEB7AF
:100F0000E297CDBFDEBFD42E91E1EEE4F5E6DE013F
:100F1000929601900D929A95E1F7882329F00F2E71
:100F2000FDE3FF2EF02D04C00F2EFCE3FF2EF02D6D
:100F30008E010F5F1F4FC8010E94CE0EF801019075
:100F40000020E9F73197E01BF10B719708F0198A3F
:100F5000BE016E5D7F4FCE0101960E94C30E81E0FF
:100F6000D81206C040E860E08F2D0E94AB0619C081
:100F700040EC60E08F2D0E94AB0613C0F801419158
:100F80008F0160E48F2D0E94AB060C151D05B1F793
:100F900081E090E0809326289093272810922828BB
:100FA00008C08E010F5F1F4F6E01F1E1CF0ED11C03
:100FB000E5CFE296CDBFDEBFDF91CF911F910F91BC
:100FC000FF90DF90CF9008951F93CF93DF931F92F0
:100FD000CDB7DEB7182F198241E0BE016F5F7F4F9A
:100FE0000E94770742E0BE016F5F7F4F812F0E9412
:100FF0007707109226281092272881E080932828CE
:101000000F90DF91CF911F91089584E08093700439
:10101000E0E0F6E0808184608083A0EAB0E08C911B
:1010200080638C93A2E0B6E08C918C938C91806469
:101030008C9310920606808181608083E8E0F6E060
:10104000808181608083808180FF04C00000808176
:1010500080FDFCCF809110069091110610922128FE
:101060000895BF92CF92DF92EF92FF920F931F935A
:10107000CF93DF930F2EFAE0BF2EF02DC12CD12C91
:101080007601C8E0D6E000E116E0888181608883BF
:10109000888180FF04C00000888180FDFCCFF801BA
:1010A000608170E080E090E00E949E0D9B01AC01A9
:1010B000C701B6010E948C0C6B017C01BA94B1107F
:1010C000E4CF20E030E040E251E40E94FD0C2EE548
:1010D0003AEB49E55FE30E94500E2FE135E845EC1D
:1010E00051E40E948B0C6B017C0120E030E0A901EF
:1010F0000E94F80C88231CF4C12CD12C760120E02E
:1011000030E040E05FE3C701B6010E948C0C0E9412
:101110006F0D862FDF91CF911F910F91FF90EF9070
:10112000DF90CF90BF900895109201280895CF933B
:10113000809104288F5F809304288C3328F081E00D
:101140008093012810920428109205288091480469
:1011500088238CF4E7E0F8E2C385CF5FC3878BE098
:1011600090E00E948C11C81730F080E8809346040C
:1011700081E0809316288091480486FF11C0E7E043
:10118000F8E2C485CF5FC4878BE090E00E948C11A9
:10119000C81730F080E48093460481E080931728DC
:1011A0008091480485FF13C0E7E0F8E285858F5FF2
:1011B0008587843160F0E0E4F4E080E2868380E1BA
:1011C0008683E7E0F8E281E0818B8CE0868B80917A
:1011D000480484FF05C0E7E0F8E286858F5F8687D4
:1011E000E7E0F8E285898150858B811102C00E9479
:1011F0008205CF91089510920228809103288C33A4
:1012000028F081E080930528109203280E9431087D
:1012100080932128809148048823F4F480918804E5
:1012200080FD1AC080911A28833030F080E88093C6
:10123000460410921A2803C08F5F80931A28809169
:101240002328813049F48091262890912728892BE2
:1012500019F081E00E9485018091480486FF1EC03C
:101260008091880481FD1AC080911B28833030F062
:1012700080E48093460410921B2803C08F5F809304
:101280001B2880912328813049F480912628909151
:101290002728892B19F081E00E948501809148045C
:1012A00085FF2AC08091880482FD26C0809119287C
:1012B000853090F0E0E4F4E080E286831092192813
:1012C00024E588E594E1215080409040E1F700C09A
:1012D00000C080E1868303C08F5F809319288091CE
:1012E0002328813049F48091262890912728892B42
:1012F000D9F181E00E94850180911E288823E9F0C0
:101300008091280481FD15C0E7E0F8E2808D91E02E
:10131000980F908F823088F080E180934504168684
:10132000178A108E80912328813039F40E9485011C
:1013300004C0E7E0F8E2178A108E80912628909189
:1013400027280097A9F08B30910540F080E00E949B
:10135000E40710922628109227280895019680937A
:10136000262890932728089580911E288111C8CFA0
:1013700008959C01E0E6F0E0848D8E7F98ED94BFA7
:10138000848F838186FF04C00000938196FDFCCF8B
:10139000E0E6F0E0948D9B7F88ED84BF948F948D80
:1013A000916084BF948F80914101882331F0E0E403
:1013B000F1E0000091819111FCCFE0E4F1E022879F
:1013C000338782E0878385818160858381EB808399
:1013D00082818160828308951F920F920FB60F92CF
:1013E00011248F939F9391E0909343018091032860
:1013F0008F5F80930328909302289F918F910F9085
:101400000FBE0F901F9018951092292810922A282D
:1014100025E03DE0AC01429FC001439F900D529FEB
:10142000900D1124E0E8FAE08487958781E08583B8
:10143000808308951092800A08951F920F920FB62C
:101440000F9211248F939F9381E08093860A80915D
:10145000292890912A2801968093292890932A2858
:101460009F918F910F900FBE0F901F901895E0E401
:10147000F4E0808181608083E4E4F4E08081816035
:101480008083E0EAFAE08CE292E0848795878081AD
:101490008160808380818260808385818160858393
:1014A00008951F920F920FB60F9211248F93EF930E
:1014B000FF9381E08093A60AE0E4F4E087818160F5
:1014C0008783FF91EF918F910F900FBE0F901F9028
:1014D0001895E0EAF8E08BE086838381816083835E
:1014E0008581816085830895613029F4880F81604A
:1014F0008093A70803C0880F8093A70881E090E03D
:101500000E94040A8091A508807CB9F48091292862
:1015100090912A280B9748F4E0EAF8E00AC08091FD
:10152000292890912A280B9720F00E941A0A84E01B
:10153000089500008581807C91F30E941A0A8091B1
:10154000A50882FD0BC08091A50883FD09C090917C
:10155000A508892F807194FD05C0089583E0089542
:1015600082E0089585E0089587E08093A4080895B7
:101570009091A50896FD06C0E0EAF8E0000095818C
:1015800096FFFCCF8093A80881E090E00E94040AB7
:10159000E0EAF8E00BC000008091292890912A2809
:1015A000C39720F00E941A0A84E00895858186FF7F
:1015B000F2CF0E941A0A9091A508892F807194FD9C
:1015C00086E00895E0E0F4E081E085838183E0E057
:1015D000F8E02DE635E02087318795819068958386
:1015E00096819064968396819068968310922C29B8
:1015F00010922E2A10922B2910922D2A10922A290D
:1016000080932C2A089560932E2A10922D2A1092EE
:101610002C2A662371F0A82FB92FEDE2F9E2615070
:10162000262F30E0225D364D8D918193E217F3072E
:10163000D9F7E0E0F8E08581806285830895AF9274
:10164000BF92CF92DF92EF92FF920F931F93CF93AF
:10165000DF93CDB7DEB7C35AD109CDBFDEBF8FE36D
:10166000EFE5F5E6DE01119601900D928A95E1F71E
:1016700010922A298091480484FD05C00F2EF3E4BE
:10168000FF2EF02D04C00F2EFFE4FF2EF02D8091D1
:101690001828811109C08091480485FD0AC00F2EC9
:1016A000F3E4EF2EF02D09C00F2EF4E5EF2EF02D10
:1016B00004C00F2EFFE4EF2EF02D8DE090E00E948D
:1016C0008C11882369F08091172881110EC08091B8
:1016D000480486FD0FC00F2EF3E4DF2EF02D0EC060
:1016E0000F2EF8E5DF2EF02D09C00F2EF4E5DF2ECA
:1016F000F02D04C00F2EFFE4DF2EF02D8CE090E0E3
:101700000E948C11882369F08091162881110EC0E7
:101710008091480488237CF00F2EF3E4AF2EF02D47
:101720000EC00F2EF8E5AF2EF02D09C00F2EF4E5F8
:10173000AF2EF02D04C00F2EFFE4AF2EF02D8AE067
:1017400090E00E948C11B82E07E018E2F801C588DD
:101750008BE090E00E948C11F801928D209188041A
:1017600022FD02C023E401C028E43091880431FD49
:1017700002C033E401C038E44091880440FD02C057
:1017800043E401C048E41F924F931F923F931F927E
:101790002F931F929F931F92BF921F928F931F921E
:1017A000CF921F92AF921F92DF921F92EF921F92E1
:1017B000FF92CE0101969F938F93CF969F938F9325
:1017C0000E94D50E84E690E00E94040A80912C2AA3
:1017D000CDBFDEBF811113C08091292890912A28A6
:1017E0000B97D0F4ECE2FAE206C0809129289091A0
:1017F0002A280B9788F4000080818823B1F3CE015A
:10180000805C9F4FFC0101900020E9F73197BF01F8
:10181000681B790B0E94030BCD55DF4FCDBFDEBF98
:10182000DF91CF911F910F91FF90EF90DF90CF90BC
:10183000BF90AF9008951F920F920FB60F92112490
:101840008F939F93AF93BF93EF93FF938091000883
:1018500090912C299F3FB1F08D3051F4E0912C29CB
:10186000F0E0E55DF74D108281E080932A290AC0FF
:10187000ACE2B9E2EC9191E09E0F9C93F0E0E55D63
:10188000F74D8083FF91EF91BF91AF919F918F9121
:101890000F900FBE0F901F9018951F920F920FB6CA
:1018A0000F9211248F939F93AF93BF93CF93DF93A6
:1018B000EF93FF93C0E0D8E08D818F7D8D83ADE203
:1018C000BAE2EC9181E08E0F8C93F0E0E35DF64D8F
:1018D00080818A8390912E2A8C91981304C081E094
:1018E00080932C2A05C0E0E0F8E085818062858342
:1018F000FF91EF91DF91CF91BF91AF919F918F9128
:101900000F900FBE0F901F901895E0E4F4E080EF69
:101910008683818308955058BB27AA270E94A30C71
:101920000C94160E0E94080E38F00E940F0E20F044
:1019300039F49F3F19F426F40C94050E0EF4E0954B
:10194000E7FB0C94FF0DE92F0E94270E58F3BA17FE
:10195000620773078407950720F079F4A6F50C94C5
:10196000490E0EF4E0950B2EBA2FA02D0B01B901F4
:1019700090010C01CA01A0011124FF27591B99F005
:10198000593F50F4503E68F11A16F040A22F232F11
:10199000342F4427585FF3CF469537952795A79561
:1019A000F0405395C9F77EF41F16BA0B620B730B08
:1019B000840BBAF09150A1F0FF0FBB1F661F771F79
:1019C000881FC2F70EC0BA0F621F731F841F48F42E
:1019D000879577956795B795F7959E3F08F0B0CFB7
:1019E0009395880F08F09927EE0F9795879508959E
:1019F0000E94DB0D08F481E008950E94110D0C9403
:101A0000160E0E940F0E58F00E94080E40F029F4A6
:101A10005F3F29F00C94FF0D51110C944A0E0C9469
:101A2000050E0E94270E68F39923B1F3552391F315
:101A3000951B550BBB27AA2762177307840738F03D
:101A40009F5F5F4F220F331F441FAA1FA9F335D09A
:101A50000E2E3AF0E0E832D091505040E695001C4E
:101A6000CAF72BD0FE2F29D0660F771F881FBB1F08
:101A7000261737074807AB07B0E809F0BB0B802DE6
:101A8000BF01FF2793585F4F3AF09E3F510578F012
:101A90000C94FF0D0C944A0E5F3FE4F3983ED4F390
:101AA000869577956795B795F7959F5FC9F7880FE6
:101AB000911D9695879597F90895E1E0660F771F38
:101AC000881FBB1F621773078407BA0720F0621BC9
:101AD000730B840BBA0BEE1F88F7E09508950E94F4
:101AE0002F0E88F09F5798F0B92F9927B751B0F073
:101AF000E1F0660F771F881F991F1AF0BA95C9F792
:101B000014C0B13091F00E94490EB1E008950C94D8
:101B1000490E672F782F8827B85F39F0B93FCCF38B
:101B2000869577956795B395D9F73EF4909580950E
:101B3000709561957F4F8F4F9F4F0895E89409C02E
:101B400097FB3EF490958095709561957F4F8F4FF0
:101B50009F4F9923A9F0F92F96E9BB279395F69506
:101B6000879577956795B795F111F8CFFAF4BB0F84
:101B700011F460FF1BC06F5F7F4F8F4F9F4F16C0E8
:101B8000882311F096E911C0772321F09EE8872F72
:101B9000762F05C0662371F096E8862F70E060E02E
:101BA0002AF09A95660F771F881FDAF7880F9695A7
:101BB000879597F90895990F0008550FAA0BE0E84B
:101BC000FEEF16161706E807F907C0F012161306FF
:101BD000E407F50798F0621B730B840B950B39F43F
:101BE0000A2661F0232B242B252B21F408950A26A5
:101BF00009F4A140A6958FEF811D811D089597F9E5
:101C00009F6780E870E060E008959FEF80EC0895A2
:101C100000240A94161617061806090608950024CB
:101C20000A9412161306140605060895092E039445
:101C3000000C11F4882352F0BB0F40F4BF2B11F4B9
:101C400060FF04C06F5F7F4F8F4F9F4F089557FD18
:101C50009058440F551F59F05F3F71F04795880F1A
:101C600097FB991F61F09F3F79F0879508951216B1
:101C700013061406551FF2CF4695F1DF08C016165D
:101C800017061806991FF1CF86957105610508940E
:101C90000895E894BB2766277727CB0197F9089525
:101CA0000E94630E0C94160E0E94080E38F00E94DB
:101CB0000F0E20F0952311F00C94FF0D0C94050EDF
:101CC00011240C944A0E0E94270E70F3959FC1F3C5
:101CD000950F50E0551F629FF001729FBB27F00DDA
:101CE000B11D639FAA27F00DB11DAA1F649F66272F
:101CF000B00DA11D661F829F2227B00DA11D621F7E
:101D0000739FB00DA11D621F839FA00D611D221F37
:101D1000749F3327A00D611D231F849F600D211D1B
:101D2000822F762F6A2F11249F5750409AF0F1F09E
:101D300088234AF0EE0FFF1FBB1F661F771F881F07
:101D400091505040A9F79E3F510580F00C94FF0D33
:101D50000C944A0E5F3FE4F3983ED4F38695779552
:101D60006795B795F795E7959F5FC1F7FE2B880FAD
:101D7000911D9695879597F90895EE0FFF1F059091
:101D8000F491E02D0994FB01DC010D900020E9F7AE
:101D9000119701900D920020E1F70895FB01DC01FD
:101DA00001900D920020E1F70895AEE0B0E0EBED78
:101DB000FEE00C94D1110D891E8986E08C83098385
:101DC0001A838FEF9FE78D839E83AE01475E5F4F3F
:101DD0006F89788DCE0101960E94F70EEF81F8850C
:101DE000E00FF11F10822E96E4E00C94EA11ABE0B4
:101DF000B0E0EDEFFEE00C94C3116C017B018A01B1
:101E0000FC0116821782838181FFCCC1CE0101962D
:101E10003C01F6019381F70193FD859193FF819138
:101E20007F01882309F4BAC1853239F493FD859185
:101E300093FF81917F01853229F4B60190E00E94E1
:101E4000EE10E7CF912C212C312CFFE1F315D8F0C7
:101E50008B3279F038F4803279F08332A1F4232D7B
:101E600020611DC08D3261F0803369F4232D216023
:101E700016C0832D8260382EE32DE4603E2E2AC0EA
:101E8000F32DF8601DC037FC2DC020ED280F2A303F
:101E900040F08E32B9F436FC81C1232D2064322EFD
:101EA00019C036FE06C08AE0989E200D1124922E9D
:101EB00011C0EAE02E9E200D1124222EF32DF06297
:101EC0003F2E08C08C3621F4832D8068382E02C046
:101ED000883641F4F70193FD859193FF81917F014D
:101EE0008111B3CF982F9F7D9554933028F40C5FC8
:101EF0001F4F9FE399830DC0833631F0833771F014
:101F0000833509F059C021C0F801808189830E5FB3
:101F10001F4F88248394912C530113C02801F2E0B1
:101F20004F0E511CF801A080B18036FE03C0692D10
:101F300070E002C06FEF7FEFC5010E94E3104C011B
:101F40008201F32DFF773F2E16C0280122E0420EBA
:101F5000511CF801A080B18036FE03C0692D70E0ED
:101F600002C06FEF7FEFC5010E94D8104C01F32D26
:101F7000F0683F2E820133FC1BC0822D90E0881652
:101F80009906B0F4B60180E290E00E94EE102A9427
:101F9000F4CFF50137FC859137FE81915F01B601E1
:101FA00090E00E94EE1021102A9421E0821A9108FC
:101FB0008114910471F7E8C0843611F0893641F537
:101FC000F80137FE07C060817181828193810C5FC7
:101FD0001F4F08C060817181072E000C880B990B80
:101FE0000E5F1F4FF32DFF763F2E97FF09C0909590
:101FF0008095709561957F4F8F4F9F4FF0683F2E72
:102000002AE030E0A3010E942A11882E861845C0DC
:10201000853731F4232D2F7EB22E2AE030E025C003
:10202000932D997FB92E8F36C1F018F4883579F049
:10203000B5C0803719F0883721F0B0C0E92FE061D2
:10204000BE2EB4FE0DC0FB2DF460BF2E09C034FEC1
:102050000AC0292F2660B22E06C028E030E005C055
:1020600020E130E002C020E132E0F801B7FE07C015
:1020700060817181828193810C5F1F4F06C06081F6
:10208000718180E090E00E5F1F4FA3010E942A1132
:10209000882E8618FB2DFF773F2E36FE0DC0232D90
:1020A0002E7FA22E891458F434FE0BC032FC09C0D6
:1020B000832D8E7EA82E05C0B82CA32C03C0B82C6F
:1020C00001C0B92CA4FE0FC0FE01E80DF11D8081F6
:1020D000803321F49A2D997EA92E09C0A2FE06C054
:1020E000B394B39404C08A2D867809F0B394A3FC0A
:1020F00011C0A0FE06C0B21488F4280C922C9B18C4
:102100000EC0B21460F4B60180E290E00E94EE10BE
:10211000B394F7CFB21418F42B1802C0982C212CCA
:10212000A4FE10C0B60180E390E00E94EE10A2FE73
:1021300017C0A1FC03C088E790E002C088E590E0EA
:10214000B6010CC08A2D867859F0A1FE02C08BE240
:1021500001C080E2A7FC8DE2B60190E00E94EE1083
:10216000891438F4B60180E390E00E94EE109A944E
:10217000F7CF8A94F301E80DF11D8081B60190E05C
:102180000E94EE108110F5CF222009F442CEB60154
:1021900080E290E00E94EE102A94F6CFF60186814C
:1021A000978102C08FEF9FEF2B96E2E10C94DC1138
:1021B000FC010590615070400110D8F78095909512
:1021C0008E0F9F1F0895FC01615070400190011017
:1021D000D8F7809590958E0F9F1F08950F931F93AA
:1021E000CF93DF93FB01238121FD03C08FEF9FEF8E
:1021F0002CC022FF16C046815781248135814217A9
:10220000530744F4A081B1819D012F5F3F4F20838C
:1022100031838C93268137812F5F3F4F268337830D
:1022200014C08B01EC01FB010084F185E02D0995C0
:10223000892BE1F6D80116968D919C9117970196FE
:1022400016968D939C931797CE01DF91CF911F9196
:102250000F910895FA01AA27283051F1203181F118
:10226000E8946F936E7F6E5F7F4F8F4F9F4FAF4F9E
:10227000B1E03ED0B4E03CD0670F781F891F9A1FB1
:10228000A11D680F791F8A1F911DA11D6A0F711D65
:10229000811D911DA11D20D009F468943F912AE071
:1022A000269F11243019305D3193DEF6CF01089559
:1022B000462F4770405D4193B3E00FD0C9F7F6CF8A
:1022C000462F4F70405D4A3318F0495D31FD405252
:1022D000419302D0A9F7EACFB4E0A69597958795E8
:1022E00077956795BA95C9F70097610571050895C7
:1022F0009B01AC010A2E0694579547953795279573
:10230000BA95C9F7620F731F841F951FA01D08950A
:1023100060507C4E0C94F41103D08081992708956D
:10232000FC01E050FC4E0895DC01A40FB51F4150A4
:10233000504048F0CB01840F951F2E910E94A511AB
:1023400041505040D0F70895262F0E9490110080F0
:10235000021619F00E94B011019701970895262FD7
:10236000AF93BF93E0E0F0E1328131FDFDCFDC01BE
:10237000A050BC4E2C932DE924BF23E0208301966E
:10238000BF91AF9108952F923F924F925F926F92BB
:102390007F928F929F92AF92BF92CF92DF92EF92F5
:1023A000FF920F931F93CF93DF93CDB7DEB7CA1B76
:1023B000DB0BCDBFDEBF09942A88398848885F844B
:1023C0006E847D848C849B84AA84B984C884DF80D5
:1023D000EE80FD800C811B81AA81B981CE0FD11DB9
:1023E000CDBFDEBFED010895FB01DC0102C001900D
:0E23F0000D9241505040D8F70895F894FFCF59
:1023FE0053656E736F7220636F6C64206F7200632F
:10240E0061626C6520756E706C756767656400320D
:10241E003032322D30362D31310020204C4E3220CC
:10242E004175746F66696C6C005355502042554669
:10243E002052454420424C5500204F20200020437E
:10244E00202000205420200020582020004E6578A7
:10245E00742066696C6C20696E002564206D696E4F
:10246E00757465002564206D696E7574657300461C
:10247E00696C6C20696E74657276616C004D617862
:10248E00206F70656E2074696D65004C4E32207041
:10249E0072657373757265002564206B506100421E
:1024AE004C554520697320454E41424C45440050E1
:1024BE0075736820746F2064697361626C65004285
:1024CE006C75652069732044495341424C45440064
:1024DE005075736820746F20656E61626C65005272
:1024EE00454420697320454E41424C4544005245B7
:1024FE00442069732044495341424C45440064656D
:10250E006661756C74006F76657272756E005075CB
:10251E00736820746F2073657420696E7476005032
:10252E0075736820746F2073657420696E74005023
:10253E0075736820746F20736574206D61786F00F9
:10254E00202020202020202020202020202020207D
:10255E000025632563256325632C25642C4E585472
:10256E002C25642C4D41582C25642C494E542C2579
:10257E00642C505245532C25632C544255462C2521
:10258E00632C545245442C25632C54424C550D005B
:00000001FF
