:100000000C9458000C946A000C946A000C94AD098E
:100010000C946A000C946A000C946A000C946A00B8
:100020000C946A000C946A000C946A000C946A00A8
:100030000C94DE090C946A000C946A000C946A001B
:100040000C946A000C94D40C0C94060D0C946A0069
:100050000C946A000C946A000C946A000C946A0078
:100060000C9409060C946A000C946A000C946A00C3
:100070000C946A000C946A000C946A000C946A0058
:100080000C946A000C946A000C9433010C946A007E
:100090000C946A000C946A000C946A000C946A0038
:1000A000A001BE019502CB0203033B035C038B035B
:1000B00011241FBECFEFCDBFDFE3DEBF28E2A0E0FB
:1000C000B8E201C01D92AD3CB207E1F70E948B0679
:1000D0000C94B6120C94000080E00E94E30741E00B
:1000E00060E775E680E00E94760742E06FE775E61C
:1000F00080E00E9476070895809100288230D1F137
:1001000018F4813041F09AC0833009F462C0843021
:1001100009F487C093C080914804882324F480E8C0
:10012000809346048BC08CE090E00E9445128823A7
:1001300009F484C08091880480FF08C080E880931F
:100140004504E4E0F8E21386178678C080918804BD
:1001500080FD74C00E946C0024E588E594E1215084
:1001600080409040E1F700C000C080911D280E94AF
:100170008F0164C08091480486FF04C080E48093AE
:1001800046045CC08DE090E00E944512882309F48B
:1001900055C08091880481FF08C080E480934504A5
:1001A000E4E0F8E21486108A49C08091880481FD59
:1001B00045C00E946C0024E588E594E12150804010
:1001C0009040E1F700C000C080911D280E948F017F
:1001D00035C08091480485FF04C080E280934604C6
:1001E0002DC08091880482FF08C080E2809345047E
:1001F000E4E0F8E21586118A21C08091880482FD2E
:100200001DC00E946C0024E588E594E121508040E7
:100210009040E1F700C000C080911D280E948F012E
:100220000DC08091480484FF04C080E1809346049F
:1002300005C080E180934504109212281092002896
:1002400080911D28813011F40E948F0108958FE064
:10025000809329040895E0E2F4E08BE0828B838BA5
:10026000808B818B08951F920F920FB60F921124ED
:100270008F938091290482FF07C084E08093290432
:1002800081E08093002820C08091290483FF07C06B
:1002900088E08093290482E08093002815C0809133
:1002A000290480FF07C081E08093290483E08093C4
:1002B00000280AC08091290481FF06C082E0809353
:1002C000290484E0809300288F910F900FBE0F9037
:1002D0001F9018954AE050E060E070E00E944112E3
:1002E0000895CF93DF93CDB7DEB72B97CDBFDEBF99
:1002F0008BE0EFE8F5E6DE01119601900D928A950C
:10030000E1F74AE050E060E070E0CE0101960E9423
:100310004D122B96CDBFDEBFDF91CF910895CF93C5
:10032000DF93CDB7DEB7AA97CDBFDEBF90E08830B0
:10033000910508F01FC2FC01E05BFF4F0C94760FA3
:100340008FE0EAE9F5E6DE01119601900D928A95BB
:10035000E1F784E098E20E946A0180E290E28E8BED
:100360009F8B80E290E0888F998F64E078E2CE01E5
:1003700046960E947C0F10921D2810C280E1E9EA87
:10038000F5E6DE01119601900D928A95E1F78091D4
:10039000480484FF0AC085E0E9EBF5E6DE015696E5
:1003A00001900D928A95E1F709C085E0EEEBF5E644
:1003B000DE01569601900D928A95E1F780914804EE
:1003C00085FF0EC0DE0156960D900020E9F71197CB
:1003D00085E0E9EBF5E601900D928A95E1F71FC003
:1003E00080911528882371F0DE0156960D9000202B
:1003F000E9F7119785E0E3ECF5E601900D928A9517
:10040000E1F70DC0DE0156960D900020E9F7119737
:1004100085E0EEEBF5E601900D928A95E1F78DE02F
:1004200090E00E94451281110EC0DE0156960D909B
:100430000020E9F7119785E0E8ECF5E601900D92D0
:100440008A95E1F731C08091480486FF0EC0DE0135
:1004500056960D900020E9F7119785E0E9EBF5E657
:1004600001900D928A95E1F71FC08091142888238E
:1004700071F0DE0156960D900020E9F7119785E0A6
:10048000E3ECF5E601900D928A95E1F70DC0DE01EF
:1004900056960D900020E9F7119785E0EEEBF5E612
:1004A00001900D928A95E1F78CE090E00E94451250
:1004B00081110CC0FE01769601900020E9F731977A
:1004C00080E298E58083918312822BC0809148045A
:1004D000882364F4FE01769601900020E9F73197B5
:1004E00080E29FE48083918312821BC08091132855
:1004F000882361F0FE01769601900020E9F731979C
:1005000080E294E58083918312820BC0FE0176968F
:1005100001900020E9F7319780E293E48083918392
:10052000128281E080931D2839C18DE0EDECF5E663
:10053000DE01119601900D928A95E1F780911928BC
:10054000823098F41F928F938AED95E69F938F9354
:10055000CE0146969F938F930E948E0F0F900F901F
:100560000F900F900F900F9012C01F928F9384EEF8
:1005700095E69F938F93CE0146969F938F930E940B
:100580008E0F0F900F900F900F900F900F9082E0B2
:1005900080931D2803C18EE0EFEEF5E6DE01119693
:1005A00001900D928A95E1F78AE090E00E94451251
:1005B000813099F41F928F938AED95E69F938F93E4
:1005C000CE0146969F938F930E948E0F0F900F90AF
:1005D0000F900F900F900F9012C01F928F9384EE88
:1005E00095E69F938F93CE0146969F938F930E949B
:1005F0008E0F0F900F900F900F900F900F9083E041
:1006000080931D28CBC08EE0EDEFF5E6DE0111965C
:1006100001900D928A95E1F78BE090E00E944512DF
:10062000823098F41F928F938AED95E69F938F9373
:10063000CE0146969F938F930E948E0F0F900F903E
:100640000F900F900F900F9012C01F928F9384EE17
:1006500095E69F938F93CE0146969F938F930E942A
:100660008E0F0F900F900F900F900F900F9084E0CF
:1006700080931D2893C08DE0EBE0F6E6DE01119635
:1006800001900D928A95E1F780911B281F928F931C
:1006900088E196E69F938F93CE0146969F938F9322
:1006A0000E948E0F85E080931D280F900F900F9071
:1006B0000F900F900F9072C08CE090E00E94451256
:1006C000882399F080E1EFE1F6E6DE0111960190D2
:1006D0000D928A95E1F780E1EFE2F6E6DE015696AB
:1006E00001900D928A95E1F712C081E1EFE3F6E601
:1006F000DE01119601900D928A95E1F78FE0E0E519
:10070000F6E6DE01569601900D928A95E1F786E0B5
:1007100080931D2843C08DE090E00E9445128823FD
:1007200099F08FE0EFE5F6E6DE01119601900D926B
:100730008A95E1F780E1EFE2F6E6DE015696019058
:100740000D928A95E1F712C080E1EEE6F6E6DE0151
:10075000119601900D928A95E1F78FE0E0E5F6E6BB
:10076000DE01569601900D928A95E1F787E080931D
:100770001D2814C088E0EEE7F6E6DE011196019030
:100780000D928A95E1F788E0E6E8F6E6DE015696F6
:1007900001900D928A95E1F710921D2841E0BE016B
:1007A0006F5F7F4F80E00E94760742E0BE016A5E85
:1007B0007F4F80E00E947607AA96CDBFDEBFDF9113
:1007C000CF9108958CE090E00E94451261E0811184
:1007D00060E08CE090E00E945D1210921C2886E0A0
:1007E0000E948F0108958DE090E00E94451261E023
:1007F000811160E08DE090E00E945D1210921C2853
:1008000087E00E948F010895EF92FF920F931F934C
:10081000CF93DF93CDB7DEB76597CDBFDEBF8AE05C
:1008200090E00E94451280931E2880911E288130FE
:10083000A9F480911E281F928F938AED95E69F93CD
:100840008F93CE0101969F938F930E948E0F0F90EE
:100850000F900F900F900F900F9014C080911E2852
:100860001F928F9384EE95E69F938F93CE0101960E
:100870009F938F930E948E0F0F900F900F900F9069
:100880000F900F9041E06EE876E680E00E947607D8
:1008900042E0BE016F5F7F4F80E00E9476070F2E1F
:1008A000FEEFEF2EF02D6894FF24F1F804EE15E62C
:1008B00032C080911C28873071F580911E288230CB
:1008C00018F4F0921E2806C080911E288F3F11F464
:1008D000E0921E2880911E281F928F931F930F93E2
:1008E00081E090E08C0F9D1F9F938F930E948E0F4D
:1008F00041E06FE976E680E00E9476074F2DBE0169
:100900006F5F7F4F80E00E9476070F900F900F90EF
:100910000F900F900F9080911C28853051F6109207
:100920001C2860911E288AE090E00E945D128BE0F6
:1009300090E00E944512182F8AE090E00E94451234
:10094000181730F06FEF680F8BE090E00E945D1297
:1009500083E00E948F016596CDBFDEBFDF91CF910E
:100960001F910F91FF90EF900895CF92DF92EF9239
:10097000FF920F931F93CF93DF93CDB7DEB76597A9
:10098000CDBFDEBF8BE090E00E94451280931E2811
:1009900080911E288130A9F480911E281F928F9388
:1009A0008AED95E69F938F93CE0101969F938F9347
:1009B0000E948E0F0F900F900F900F900F900F903E
:1009C00014C080911E281F928F9384EE95E69F930A
:1009D0008F93CE0101969F938F930E948E0F0F905D
:1009E0000F900F900F900F900F9041E06FEA76E616
:1009F00080E00E94760742E0BE016F5F7F4F80E09B
:100A00000E9476070EEF11E00F2EF4EEEF2EF5E6C2
:100A1000FF2EF02D0F2EFAEDCF2EF5E6DF2EF02D66
:100A200057C080911C28873009F052C080911E2841
:100A3000811103C010931E2806C080911E288F3F8D
:100A400011F400931E288AE090E00E9445129091D4
:100A50001E28981718F0815080931E2880911E2818
:100A60008130A9F480911E281F928F93DF92CF923C
:100A700081E090E08C0F9D1F9F938F930E948E0FBB
:100A80000F900F900F900F900F900F9014C08091C7
:100A90001E281F928F93FF92EF9281E090E08C0FBF
:100AA0009D1F9F938F930E948E0F0F900F900F901A
:100AB0000F900F900F90412F6FEA76E680E00E9432
:100AC000760742E0BE016F5F7F4F80E00E947607AD
:100AD00080911C28853009F0A4CF10921C286091C9
:100AE0001E288BE090E00E945D1284E00E948F013E
:100AF0006596CDBFDEBFDF91CF911F910F91FF9023
:100B0000EF90DF90CF900895E0E4F4E08BE0838BEA
:100B100098E0928B818B08958CE090E00E944512C2
:100B2000882379F08091480488235CF080918804C0
:100B300080FF07C080E880934504E4E0F8E2138674
:100B400017868DE090E00E944512882379F080910D
:100B5000480486FD0BC08091880481FF07C080E4B3
:100B600080934504E4E0F8E21486108A80911D2801
:100B7000813011F40E948F018AE090E00E944512BA
:100B800080931928089580912228882329F0809144
:100B90001D280E948F01089580911C288730A9F498
:100BA00010921C2880911D2890911F28890F8093F6
:100BB0001D2880911D2880911D28877080931D28F5
:100BC00080911D280E948F01089580911C288530F6
:100BD000F9F410921C2880911D28843089F028F4A3
:100BE000823041F0833049F00895863061F08730DB
:100BF00069F008950E948C0508950E9404040895E8
:100C00000E94B50408950E94E20308950E94F30330
:100C100008951F920F920FB60F9211248F93EF93A6
:100C2000FF938091490481FF07C082E080934904CB
:100C300085E080931C281FC08091490483FF1BC05E
:100C4000E0E4F4E088E08187808582FF09C080913C
:100C50001E288F5F80931E2881E080931F2808C084
:100C600080911E28815080931E288FEF80931F282B
:100C700087E080931C28FF91EF918F910F900FBE1A
:100C80000F901F901895CF93DF938AE090E00E9419
:100C90004512C4E0D8E28D8B1B861C861D861E86FD
:100CA0001F86188A198A1A8A1B8A1C8A0E94300891
:100CB0008F8BDF91CF910895E0E6F4E084E0808BA4
:100CC000818B828B838B848B858B868B878B08951E
:100CD00010920128109203280E945C060E943E0D8B
:100CE0000E94710A0E942B010E9484050E94F8094B
:100CF0008FEF91E00E947A090E9404080E94430647
:100D000080E00E94BC060E94710180E00E948F0179
:100D10000E94270108950E9468067894C6E7D8E2E9
:100D20008091002881110E947C0080911C288111F3
:100D30000E94C3058091012881110E94930880912F
:100D4000022881110E94E5088881882349F30E94C6
:100D5000AE0AE6CFCF93DF93D62FC42F60E00E9478
:100D6000030A8D2F0E94470A8C2F0E94470A0E9477
:100D7000430ADF91CF910895CF93E0E0F4E090E84B
:100D800096839183A6E4B0E11197F1F700C09583B3
:100D9000882311F0CDE301C0CCE34AE260E08C2F60
:100DA0000E94AA0641E760E08C2F0E94AA064CE54B
:100DB00060E48C2F0E94AA0648E260E08C2F0E941B
:100DC000AA0648E060E08C2F0E94AA064AE260E092
:100DD0008C2F0E94AA0649E760E08C2F0E94AA0689
:100DE00045ED60E08C2F0E94AA0640E760E08C2F62
:100DF0000E94AA0648E760E08C2F0E94AA0648E0FD
:100E000060E08C2F0E94AA0646E060E08C2F0E94D2
:100E1000AA0642E760E08C2F0E94AA0640E060E448
:100E20008C2F0E94AA064AE260E08C2F0E94AA063C
:100E300049E760E08C2F0E94AA064AED60E08C2F03
:100E40000E94AA0640E060E08C2F0E94AA064CEDAA
:100E500060E08C2F0E94AA0640E060E08C2F0E9488
:100E6000AA0641E860E08C2F0E94AA064FE760E0E6
:100E70008C2F0E94AA0649ED60E08C2F0E94AA06E2
:100E800041EF60E08C2F0E94AA064BED60E08C2FB2
:100E90000E94AA0640E460E08C2F0E94AA0648E760
:100EA00060E08C2F0E94AA0648E260E08C2F0E942E
:100EB000AA0641E060E08C2F0E94AA0640E860E0AC
:100EC0008C2F0E94AA064CE060E08C2F0E94AA069C
:100ED000BAE624E081E0B15020408040E1F700C054
:100EE0001092202810922128CF910895CF92DF925E
:100EF000FF920F931F93CF93DF93CDB7DEB7E297A7
:100F0000CDBFDEBFD42E91E1E0ECF6E6DE01929695
:100F100001900D929A95E1F7882329F00F2EFDE3B9
:100F2000FF2EF02D04C00F2EFCE3FF2EF02D8E01BE
:100F30000F5F1F4FC8010E94870FF801019000202A
:100F4000E9F73197E01BF10B719708F0198ABE01A0
:100F50006E5D7F4FCE0101960E947C0F81E0D8121A
:100F600006C040E860E08F2D0E94AA0619C040EC40
:100F700060E08F2D0E94AA0613C0F80141918F01F5
:100F800060E48F2D0E94AA060C151D05B1F781E0C3
:100F900090E080932028909321281092222808C066
:100FA0008E010F5F1F4F6E01F1E1CF0ED11CE5CF17
:100FB000E296CDBFDEBFDF91CF911F910F91FF90E1
:100FC000DF90CF9008951F93CF93DF931F92CDB7FB
:100FD000DEB7182F198241E0BE016F5F7F4F0E947C
:100FE000760742E0BE016F5F7F4F812F0E94760738
:100FF000109220281092212881E0809322280F90BF
:10100000DF91CF911F91089584E080937004E0E018
:10101000F6E0808184608083A0EAB0E08C918063F8
:101020008C93A2E0B6E08C918C938C9180648C932D
:1010300010920606808181608083E8E0F6E080817E
:1010400081608083808180FF04C00000808180FDFA
:10105000FCCF809110069091110610921B280895E4
:10106000BF92CF92DF92EF92FF920F931F93CF9395
:10107000DF930F2EFAE0BF2EF02DC12CD12C76017C
:10108000C8E0D6E000E116E088818160888388812D
:1010900080FF04C00000888180FDFCCFF8016081E2
:1010A00070E080E090E00E94570E9B01AC01C70108
:1010B000B6010E94450D6B017C01BA94B110E4CFDA
:1010C00020E030E040E251E40E94B60D2EE53AEB1C
:1010D00049E55FE30E94090F2FE135E845EC51E453
:1010E0000E94440D6B017C0120E030E0A9010E94C8
:1010F000B10D88231CF4C12CD12C760120E030E006
:1011000040E05FE3C701B6010E94450D0E94280E32
:10111000862FDF91CF911F910F91FF90EF90DF907D
:10112000CF90BF900895CF931092012880914804EA
:1011300088238CF4E4E0F8E2C385CF5FC3878BE0BB
:1011400090E00E944512C81730F080E88093460472
:1011500081E0809313288091480486FF11C0E4E069
:10116000F8E2C485CF5FC4878BE090E00E9445120F
:10117000C81730F080E48093460481E080931428FF
:101180008091480485FF0DC0E4E0F8E285858F5F1B
:101190008587883730F080E28093460481E0809331
:1011A00015288091480484FF05C0E4E0F8E28685B4
:1011B0008F5F8687E4E0F8E285898150858B811115
:1011C00002C00E948C05CF91089510920228809150
:1011D00003288C3328F081E08093012810920328A3
:1011E0000E94300880931B28809148048823F4F4DF
:1011F0008091880480FD1AC0809117288A3030F0D1
:1012000080E8809346041092172803C08F5F809374
:10121000172880911D28813049F4809120289091D1
:101220002128892B19F081E00E948F0180914804C8
:1012300086FF1EC08091880481FD1AC08091182805
:101240008A3030F080E4809346041092182803C05E
:101250008F5F8093182880911D28813049F48091F8
:10126000202890912128892BE1F181E00E948F01B3
:101270008091480485FF1EC08091880482FD1AC0B9
:10128000809116288F3030F080E2809346041092CF
:10129000162803C08F5F8093162880911D28813007
:1012A00049F48091202890912128892B11F181E027
:1012B0000E948F0180912028909121280097C9F0E9
:1012C0008B30910540F080E00E94E30710922028C7
:1012D0001092212808950196809320289093212828
:1012E00008958091480485FF04C08091880482FF9E
:1012F000C7CF08959C01E0E6F0E0848D8E7F98EDE5
:1013000094BF848F838186FF04C00000938196FD83
:10131000FCCFE0E6F0E0948D9B7F88ED84BF948F56
:10132000948D916084BF948F80914101882331F026
:10133000E0E4F1E0000091819111FCCFE0E4F1E004
:101340002287338782E0878385818160858381EB73
:10135000808382818160828308951F920F920FB6ED
:101360000F9211248F939F9391E09093430180916A
:1013700003288F5F80930328909302289F918F9179
:101380000F900FBE0F901F90189510922328109267
:10139000242825E03DE0AC01429FC001439F900D11
:1013A000529F900D1124E0E8FAE08487958781E050
:1013B0008583808308951092800A08951F920F926A
:1013C0000FB60F9211248F939F9381E08093860A2A
:1013D000809123289091242801968093232890932C
:1013E00024289F918F910F900FBE0F901F901895FA
:1013F000E0EAF8E08BE086838381816083838581E6
:10140000816085830895613029F4880F816080931D
:10141000A70803C0880F8093A70881E090E00E948E
:10142000C5098091A508807CB9F48091232890910A
:1014300024280B9748F4E0EAF8E00AC080912328BA
:10144000909124280B9720F00E94DB0984E00895F6
:1014500000008581807C91F30E94DB098091A508C2
:1014600082FD0BC08091A50883FD09C09091A5085D
:10147000892F807194FD05C0089583E0089582E06E
:10148000089585E0089587E08093A40808959091D9
:10149000A50896FD06C0E0EAF8E00000958196FFF9
:1014A000FCCF8093A80881E090E00E94C509E0EAA3
:1014B000F8E00BC000008091232890912428C39766
:1014C00020F00E94DB0984E00895858186FFF2CF39
:1014D0000E94DB099091A508892F807194FD86E018
:1014E0000895E0E0F4E081E085838183E0E0F8E0C6
:1014F0002DE635E020873187958190689583968128
:1015000090649683968190689683109278281092C2
:10151000CC28109277281092CB28109276288093AE
:10152000CA2808956093CC281092CB281092CA281C
:10153000662371F0A82FB92FE9E7F8E26150262F52
:1015400030E02658374D8D918193E217F307D9F794
:10155000E0E0F8E08581806285830895AF92BF92D4
:10156000CF92DF92EF92FF920F931F93CF93DF936F
:10157000CDB7DEB7C25AD109CDBFDEBF10927628F3
:1015800085E0E1EDF6E6DE01119601900D928A9577
:10159000E1F78091480484FF0BC0FE013196019071
:1015A0000020E9F731978FE490E0808391830AC0AF
:1015B000FE01319601900020E9F7319783E490E035
:1015C00080839183DE0111960D900020E9F7119739
:1015D00086E0E6EDF6E601900D928A95E1F78091BE
:1015E0001528882359F0FE01319601900020E9F773
:1015F000319784E590E08083918319C080914804FD
:1016000085FF0BC0FE01319601900020E9F731976C
:101610008FE490E0808391830AC0FE0131960190AF
:101620000020E9F7319783E490E080839183DE0125
:1016300011960D900020E9F7119786E0ECEDF6E6A3
:1016400001900D928A95E1F78DE090E00E9445129D
:1016500081110BC0FE01319601900020E9F731970E
:1016600088E590E08083918328C0809114288823A6
:1016700059F0FE01319601900020E9F7319784E599
:1016800090E08083918319C08091480486FF0BC04D
:10169000FE01319601900020E9F731978FE490E048
:1016A000808391830AC0FE01319601900020E9F702
:1016B000319783E490E080839183DE0111960D9051
:1016C0000020E9F7119786E0E2EEF6E601900D9230
:1016D0008A95E1F78CE090E00E94451281110BC0E1
:1016E000FE01319601900020E9F7319788E590E0FE
:1016F0008083918328C080911328882359F0FE01AC
:10170000319601900020E9F7319784E590E08083DD
:10171000918319C08091480488235CF4FE013196BE
:1017200001900020E9F731978FE490E08083918366
:101730000AC0FE01319601900020E9F7319783E459
:1017400090E0808391838E010F5F1F4FD8010D9031
:101750000020E9F7119786E0E8EEF6E601900D9299
:101760008A95E1F78AE090E00E9445121F928F93DC
:101770000F2EFEEECF2EF6E6DF2EF02DDF92CF926B
:101780007E0122E5E20EF11CFF92EF920E948E0F85
:10179000B701C8010E947C0FD8010D900020E9F725
:1017A000119787E0E1EFF6E601900D928A95E1F757
:1017B0000F2EF4E0AF2EF8E2BF2EF02DF501858953
:1017C0001F928F93DF92CF92FF92EF920E948E0F23
:1017D000B701C8010E947C0FD8010D900020E9F7E5
:1017E000119786E0E8EFF6E601900D928A95E1F711
:1017F0008BE090E00E9445121F928F93DF92CF9270
:10180000FF92EF920E948E0FB701C8010E947C0FD9
:10181000D8010D900020E9F7119787E0EEEFF6E68A
:1018200001900D928A95E1F7F50187891F928F93B8
:10183000DF92CF92FF92EF920E948E0FB701C80104
:101840000E947C0FD8010D900020E9F7119787E0E6
:10185000E5E0F7E601900D928A95E1F78091880422
:10186000CDBFDEBF82FF0AC0F80101900020E9F77A
:10187000319788E490E0808391830AC0FE0131961D
:1018800001900020E9F7319783E490E08083918311
:10189000DE0111960D900020E9F7119787E0ECE04A
:1018A000F7E601900D928A95E1F78091880481FF17
:1018B0000BC0FE01319601900020E9F7319788E4D2
:1018C00090E0808391830AC0FE0131960190002050
:1018D000E9F7319783E490E080839183DE011196EC
:1018E0000D900020E9F7119787E0E3E1F7E601901A
:1018F0000D928A95E1F78091880480FF0BC0FE016C
:10190000319601900020E9F7319788E490E08083D8
:1019100091830AC0FE01319601900020E9F73197CA
:1019200083E490E080839183FE0131960190002052
:10193000E9F731978DE090E08083918384E690E031
:101940000E94C5098091CA28811113C08091232863
:10195000909124280B97C8F4EAECF8E206C0809135
:101960002328909124280B9780F4000080818823FD
:10197000B1F3CE010196FC0101900020E9F7319707
:10198000BF01681B790B0E94920ACE55DF4FCDBF75
:10199000DEBFDF91CF911F910F91FF90EF90DF900D
:1019A000CF90BF90AF9008951F920F920FB60F92F5
:1019B00011248F939F93AF93BF93EF93FF938091E5
:1019C0000008909178289135B0F48D3051F4E09171
:1019D0007828F0E0EB5DF74D108281E08093762867
:1019E0000AC0A8E7B8E2EC9191E09E0F9C93F0E06A
:1019F000EB5DF74D8083FF91EF91BF91AF919F9188
:101A00008F910F900FBE0F901F9018951F920F92FD
:101A10000FB60F9211248F939F93AF93BF93CF93E1
:101A2000DF93EF93FF93C0E0D8E08D818F7D8D83AE
:101A3000ABECB8E2EC9181E08E0F8C93F0E0E758CC
:101A4000F74D80818A839091CC288C91981304C0A3
:101A500081E08093CA2805C0E0E0F8E085818062DB
:101A60008583FF91EF91DF91CF91BF91AF919F91CE
:101A70008F910F900FBE0F901F901895E0E4F4E047
:101A800080EF8683818308955058BB27AA270E9440
:101A90005C0D0C94CF0E0E94C10E38F00E94C80E4F
:101AA00020F039F49F3F19F426F40C94BE0E0EF486
:101AB000E095E7FB0C94B80EE92F0E94E00E58F376
:101AC000BA17620773078407950720F079F4A6F523
:101AD0000C94020F0EF4E0950B2EBA2FA02D0B01E3
:101AE000B90190010C01CA01A0011124FF27591B63
:101AF00099F0593F50F4503E68F11A16F040A22F69
:101B0000232F342F4427585FF3CF469537952795D9
:101B1000A795F0405395C9F77EF41F16BA0B620BD8
:101B2000730B840BBAF09150A1F0FF0FBB1F661F1F
:101B3000771F881FC2F70EC0BA0F621F731F841F62
:101B400048F4879577956795B795F7959E3F08F088
:101B5000B0CF9395880F08F09927EE0F979587954A
:101B600008950E94940E08F481E008950E94CA0D21
:101B70000C94CF0E0E94C80E58F00E94C10E40F087
:101B800029F45F3F29F00C94B80E51110C94030F07
:101B90000C94BE0E0E94E00E68F39923B1F3552316
:101BA00091F3951B550BBB27AA2762177307840770
:101BB00038F09F5F5F4F220F331F441FAA1FA9F306
:101BC00035D00E2E3AF0E0E832D091505040E695F4
:101BD000001CCAF72BD0FE2F29D0660F771F881F55
:101BE000BB1F261737074807AB07B0E809F0BB0B48
:101BF000802DBF01FF2793585F4F3AF09E3F51055C
:101C000078F00C94B80E0C94030F5F3FE4F3983E09
:101C1000D4F3869577956795B795F7959F5FC9F744
:101C2000880F911D9695879597F90895E1E0660FC5
:101C3000771F881FBB1F621773078407BA0720F03E
:101C4000621B730B840BBA0BEE1F88F7E0950895A7
:101C50000E94E80E88F09F5798F0B92F9927B75146
:101C6000B0F0E1F0660F771F881F991F1AF0BA9540
:101C7000C9F714C0B13091F00E94020FB1E008958D
:101C80000C94020F672F782F8827B85F39F0B93F7F
:101C9000CCF3869577956795B395D9F73EF49095F3
:101CA0008095709561957F4F8F4F9F4F0895E89471
:101CB00009C097FB3EF490958095709561957F4F94
:101CC0008F4F9F4F9923A9F0F92F96E9BB27939542
:101CD000F695879577956795B795F111F8CFFAF452
:101CE000BB0F11F460FF1BC06F5F7F4F8F4F9F4F83
:101CF00016C0882311F096E911C0772321F09EE8E1
:101D0000872F762F05C0662371F096E8862F70E046
:101D100060E02AF09A95660F771F881FDAF7880F20
:101D20009695879597F90895990F0008550FAA0B76
:101D3000E0E8FEEF16161706E807F907C0F01216DE
:101D40001306E407F50798F0621B730B840B950BE1
:101D500039F40A2661F0232B242B252B21F4089536
:101D60000A2609F4A140A6958FEF811D811D0895D3
:101D700097F99F6780E870E060E008959FEF80EC3E
:101D8000089500240A9416161706180609060895E1
:101D900000240A9412161306140605060895092E47
:101DA0000394000C11F4882352F0BB0F40F4BF2BB6
:101DB00011F460FF04C06F5F7F4F8F4F9F4F0895F6
:101DC00057FD9058440F551F59F05F3F71F04795EC
:101DD000880F97FB991F61F09F3F79F087950895D1
:101DE000121613061406551FF2CF4695F1DF08C0F0
:101DF000161617061806991FF1CF8695710561050D
:101E000008940895E894BB2766277727CB0197F9B4
:101E100008950E941C0F0C94CF0E0E94C10E38F042
:101E20000E94C80E20F0952311F00C94B80E0C946B
:101E3000BE0E11240C94030F0E94E00E70F3959FC8
:101E4000C1F3950F50E0551F629FF001729FBB27B1
:101E5000F00DB11D639FAA27F00DB11DAA1F649F4D
:101E60006627B00DA11D661F829F2227B00DA11D00
:101E7000621F739FB00DA11D621F839FA00D611D86
:101E8000221F749F3327A00D611D231F849F600DA7
:101E9000211D822F762F6A2F11249F5750409AF0D0
:101EA000F1F088234AF0EE0FFF1FBB1F661F771F5C
:101EB000881F91505040A9F79E3F510580F00C9427
:101EC000B80E0C94030F5F3FE4F3983ED4F386956D
:101ED00077956795B795F795E7959F5FC1F7FE2BC7
:101EE000880F911D9695879597F90895EE0FFF1F1E
:101EF0000590F491E02D0994FB01DC010D90002088
:101F0000E9F7119701900D920020E1F70895FB0188
:101F1000DC0101900D920020E1F70895AEE0B0E001
:101F2000E4E9FFE00C948A120D891E8986E08C8317
:101F300009831A838FEF9FE78D839E83AE01475EEF
:101F40005F4F6F89788DCE0101960E94B00FEF81AF
:101F5000F885E00FF11F10822E96E4E00C94A31296
:101F6000ABE0B0E0E6EBFFE00C947C126C017B018F
:101F70008A01FC0116821782838181FFCCC1CE01C8
:101F800001963C01F6019381F70193FD859193FF42
:101F900081917F01882309F4BAC1853239F493FD18
:101FA000859193FF81917F01853229F4B60190E0FC
:101FB0000E94A711E7CF912C212C312CFFE1F315C2
:101FC000D8F08B3279F038F4803279F08332A1F492
:101FD000232D20611DC08D3261F0803369F4232DE3
:101FE000216016C0832D8260382EE32DE4603E2EE2
:101FF0002AC0F32DF8601DC037FC2DC020ED280F3E
:102000002A3040F08E32B9F436FC81C1232D206491
:10201000322E19C036FE06C08AE0989E200D11248B
:10202000922E11C0EAE02E9E200D1124222EF32DB7
:10203000F0623F2E08C08C3621F4832D8068382E44
:1020400002C0883641F4F70193FD859193FF819199
:102050007F018111B3CF982F9F7D9554933028F441
:102060000C5F1F4F9FE399830DC0833631F0833798
:1020700071F0833509F059C021C0F801808189834E
:102080000E5F1F4F88248394912C530113C02801A5
:10209000F2E04F0E511CF801A080B18036FE03C063
:1020A000692D70E002C06FEF7FEFC5010E949C11A7
:1020B0004C018201F32DFF773F2E16C0280122E04C
:1020C000420E511CF801A080B18036FE03C0692D7C
:1020D00070E002C06FEF7FEFC5010E9491114C01CB
:1020E000F32DF0683F2E820133FC1BC0822D90E05F
:1020F00088169906B0F4B60180E290E00E94A7111C
:102100002A94F4CFF50137FC859137FE81915F0168
:10211000B60190E00E94A71121102A9421E0821AB2
:1021200091088114910471F7E8C0843611F0893662
:1021300041F5F80137FE07C060817181828193818A
:102140000C5F1F4F08C060817181072E000C880B47
:10215000990B0E5F1F4FF32DFF763F2E97FF09C09F
:1021600090958095709561957F4F8F4F9F4FF06848
:102170003F2E2AE030E0A3010E94E311882E86184A
:1021800045C0853731F4232D2F7EB22E2AE030E072
:1021900025C0932D997FB92E8F36C1F018F488355C
:1021A00079F0B5C0803719F0883721F0B0C0E92F39
:1021B000E061BE2EB4FE0DC0FB2DF460BF2E09C041
:1021C00034FE0AC0292F2660B22E06C028E030E077
:1021D00005C020E130E002C020E132E0F801B7FEA6
:1021E00007C060817181828193810C5F1F4F06C09F
:1021F0006081718180E090E00E5F1F4FA3010E941B
:10220000E311882E8618FB2DFF773F2E36FE0DC07A
:10221000232D2E7FA22E891458F434FE0BC032FCDD
:1022200009C0832D8E7EA82E05C0B82CA32C03C018
:10223000B82C01C0B92CA4FE0FC0FE01E80DF11DA1
:102240008081803321F49A2D997EA92E09C0A2FEA7
:1022500006C0B394B39404C08A2D867809F0B39471
:10226000A3FC11C0A0FE06C0B21488F4280C922C66
:102270009B180EC0B21460F4B60180E290E00E9498
:10228000A711B394F7CFB21418F42B1802C0982CEE
:10229000212CA4FE10C0B60180E390E00E94A7119B
:1022A000A2FE17C0A1FC03C088E790E002C088E549
:1022B00090E0B6010CC08A2D867859F0A1FE02C0CC
:1022C0008BE201C080E2A7FC8DE2B60190E00E94A3
:1022D000A711891438F4B60180E390E00E94A71199
:1022E0009A94F7CF8A94F301E80DF11D8081B6012D
:1022F00090E00E94A7118110F5CF222009F442CE70
:10230000B60180E290E00E94A7112A94F6CFF60170
:102310008681978102C08FEF9FEF2B96E2E10C94AC
:102320009512FC010590615070400110D8F780951E
:1023300090958E0F9F1F0895FC0161507040019091
:102340000110D8F7809590958E0F9F1F08950F93D9
:102350001F93CF93DF93FB01238121FD03C08FEFF8
:102360009FEF2CC022FF16C0468157812481358102
:102370004217530744F4A081B1819D012F5F3F4F65
:10238000208331838C93268137812F5F3F4F2683B3
:10239000378314C08B01EC01FB010084F185E02D33
:1023A0000995892BE1F6D80116968D919C91179786
:1023B000019616968D939C931797CE01DF91CF913E
:1023C0001F910F910895FA01AA27283051F1203169
:1023D00081F1E8946F936E7F6E5F7F4F8F4F9F4FB9
:1023E000AF4FB1E03ED0B4E03CD0670F781F891FFB
:1023F0009A1FA11D680F791F8A1F911DA11D6A0FC9
:10240000711D811D911DA11D20D009F468943F917B
:102410002AE0269F11243019305D3193DEF6CF017A
:102420000895462F4770405D4193B3E00FD0C9F740
:10243000F6CF462F4F70405D4A3318F0495D31FDAD
:102440004052419302D0A9F7EACFB4E0A695979500
:10245000879577956795BA95C9F7009761057105D6
:1024600008959B01AC010A2E069457954795379520
:102470002795BA95C9F7620F731F841F951FA01D7A
:10248000089560507C4E0C94AD1203D08081992742
:102490000895FC01E050FC4E0895DC01A40FB51F27
:1024A0004150504048F0CB01840F951F2E910E945F
:1024B0005E1241505040D0F70895262F0E944912D5
:1024C0000080021619F00E94691201970197089581
:1024D000262FAF93BF93E0E0F0E1328131FDFDCFD5
:1024E000DC01A050BC4E2C932DE924BF23E02083B7
:1024F0000196BF91AF9108952F923F924F925F92B4
:102500006F927F928F929F92AF92BF92CF92DF9203
:10251000EF92FF920F931F93CF93DF93CDB7DEB768
:10252000CA1BDB0BCDBFDEBF09942A8839884888D7
:102530005F846E847D848C849B84AA84B984C884DF
:10254000DF80EE80FD800C811B81AA81B981CE0FD6
:10255000D11DCDBFDEBFED010895FB01DC0102C03E
:1025600001900D9241505040D8F70895F894FFCF54
:1025700053656E736F7220636F6C64206F720063BB
:1025800061626C6520756E706C756767656400329A
:102590003032312D31312D30380020204C4E322058
:1025A0004175746F66696C6C0053555020425546F6
:1025B0002052454420424C5500204F20200020430B
:1025C000202000205420200020582020004E657834
:1025D000742066696C6C20696E002564206D696EDC
:1025E000757465002564206D696E757465730046A9
:1025F000696C6C20696E74657276616C004D6178EF
:10260000206F70656E2074696D65004C4E322070CD
:1026100072657373757265002564206B50610042AA
:102620004C554520697320454E41424C454400506D
:1026300075736820746F2064697361626C65004211
:102640006C75652069732044495341424C454400F0
:102650005075736820746F20656E61626C650052FE
:10266000454420697320454E41424C454400524543
:10267000442069732044495341424C4544006465F9
:102680006661756C74006F76657272756E00507558
:10269000736820746F2073657420696E74760050BF
:1026A00075736820746F2073657420696E740050B0
:1026B00075736820746F20736574206D61786F0086
:1026C000202020202020202020202020202020200A
:1026D000005355502C002C4255462C002C5245449A
:1026E0002C002C424C552C002C494E542C002564B7
:1026F000002C4E4558542C002C4D41582C002C5089
:102700005245532C002C544255462C002C54524513
:0A271000442C002C54424C552C00C0
:00000001FF
