:100000000C9458000C946A000C946A000C94060A34
:100010000C946A000C946A000C946A000C946A00B8
:100020000C946A000C946A000C946A000C946A00A8
:100030000C94370A0C946A000C946A000C946A00C1
:100040000C946A000C94020C0C94340C0C946A000E
:100050000C946A000C946A000C946A000C946A0078
:100060000C9409060C946A000C946A000C946A00C3
:100070000C946A000C946A000C946A000C946A0058
:100080000C946A000C946A000C9433010C946A007E
:100090000C946A000C946A000C946A000C946A0038
:1000A000A001BE019502CB0203033B035C038B035B
:1000B00011241FBECFEFCDBFDFE3DEBF28E2A0E0FB
:1000C000B8E201C01D92A33DB207E1F70E948F067E
:1000D0000C94E4110C94000080E00E94EC0741E0D5
:1000E0006CEC73E680E00E947F0742E06BED73E604
:1000F00080E00E947F070895809100288230D1F12E
:1001000018F4813041F09AC0833009F462C0843021
:1001100009F487C093C080914804882324F480E8C0
:10012000809346048BC08CE090E00E94731188237A
:1001300009F484C08091880480FF08C080E880931F
:100140004504E7E0F8E21386178678C080918804BA
:1001500080FD74C00E946C0024E588E594E1215084
:1001600080409040E1F700C000C0809123280E94A9
:100170008F0164C08091480486FF04C080E48093AE
:1001800046045CC08DE090E00E947311882309F45E
:1001900055C08091880481FF08C080E480934504A5
:1001A000E7E0F8E21486108A49C08091880481FD56
:1001B00045C00E946C0024E588E594E12150804010
:1001C0009040E1F700C000C0809123280E948F0179
:1001D00035C08091480485FF04C080E280934604C6
:1001E0002DC08091880482FF08C080E2809345047E
:1001F000E7E0F8E21586118A21C08091880482FD2B
:100200001DC00E946C0024E588E594E121508040E7
:100210009040E1F700C000C0809123280E948F0128
:100220000DC08091480484FF04C080E1809346049F
:1002300005C0E7E0F8E281E0878B108E109200287D
:1002400080912328813011F40E948F0108958FE05E
:10025000809329040895E0E2F4E08BE0828B838BA5
:10026000808B818B08951F920F920FB60F921124ED
:100270008F938091290482FF07C084E08093290432
:1002800081E08093002820C08091290483FF07C06B
:1002900088E08093290482E08093002815C0809133
:1002A000290480FF07C081E08093290483E08093C4
:1002B00000280AC08091290481FF06C082E0809353
:1002C000290484E0809300288F910F900FBE0F9037
:1002D0001F9018954AE050E060E070E00E946F11B6
:1002E0000895CF93DF93CDB7DEB72B97CDBFDEBF99
:1002F0008BE0EBEEF3E6DE01119601900D928A950C
:10030000E1F74AE050E060E070E0CE0101960E9423
:100310007B112B96CDBFDEBFDF91CF910895CF9398
:10032000DF93CDB7DEB7AA97CDBFDEBF90E08830B0
:10033000910508F01FC2FC01E05BFF4F0C94A40E76
:100340008FE0E6EFF3E6DE01119601900D928A95BB
:10035000E1F787E098E20E946A0180E290E28E8BEA
:100360009F8B80E290E0888F998F67E078E2CE01E2
:1003700046960E94AA0E1092232810C280E1E5E062
:10038000F4E6DE01119601900D928A95E1F78091D5
:10039000480484FF0AC085E0E5E1F4E6DE015696F4
:1003A00001900D928A95E1F709C085E0EAE1F4E653
:1003B000DE01569601900D928A95E1F780914804EE
:1003C00085FF0EC0DE0156960D900020E9F71197CB
:1003D00085E0E5E1F4E601900D928A95E1F71FC012
:1003E00080911828882371F0DE0156960D90002028
:1003F000E9F7119785E0EFE1F4E601900D928A9517
:10040000E1F70DC0DE0156960D900020E9F7119737
:1004100085E0EAE1F4E601900D928A95E1F78DE03E
:1004200090E00E94731181110EC0DE0156960D906E
:100430000020E9F7119785E0E4E2F4E601900D92DF
:100440008A95E1F731C08091480486FF0EC0DE0135
:1004500056960D900020E9F7119785E0E5E1F4E666
:1004600001900D928A95E1F71FC08091172888238B
:1004700071F0DE0156960D900020E9F7119785E0A6
:10048000EFE1F4E601900D928A95E1F70DC0DE01EF
:1004900056960D900020E9F7119785E0EAE1F4E621
:1004A00001900D928A95E1F78CE090E00E94731123
:1004B00081110CC0FE01769601900020E9F731977A
:1004C00080E298E58083918312822BC0809148045A
:1004D000882364F4FE01769601900020E9F73197B5
:1004E00080E29FE48083918312821BC08091162852
:1004F000882361F0FE01769601900020E9F731979C
:1005000080E294E58083918312820BC0FE0176968F
:1005100001900020E9F7319780E293E48083918392
:10052000128281E08093232839C18DE0E9E2F4E66C
:10053000DE01119601900D928A95E1F780911C28B9
:10054000823098F41F928F9386E394E69F938F9363
:10055000CE0146969F938F930E94BC0E0F900F90F2
:100560000F900F900F900F9012C01F928F9380E406
:1005700094E69F938F93CE0146969F938F930E940C
:10058000BC0E0F900F900F900F900F900F9082E085
:100590008093232803C18EE0EBE4F4E6DE0111969C
:1005A00001900D928A95E1F78AE090E00E94731124
:1005B000813099F41F928F9386E394E69F938F93F3
:1005C000CE0146969F938F930E94BC0E0F900F9082
:1005D0000F900F900F900F9012C01F928F9380E496
:1005E00094E69F938F93CE0146969F938F930E949C
:1005F000BC0E0F900F900F900F900F900F9083E014
:1006000080932328CBC08EE0E9E5F4E6DE01119665
:1006100001900D928A95E1F78BE090E00E947311B2
:10062000823098F41F928F9386E394E69F938F9382
:10063000CE0146969F938F930E94BC0E0F900F9011
:100640000F900F900F900F9012C01F928F9380E425
:1006500094E69F938F93CE0146969F938F930E942B
:10066000BC0E0F900F900F900F900F900F9084E0A2
:100670008093232893C08DE0E7E6F4E6DE0111962F
:1006800001900D928A95E1F7809121281F928F9316
:1006900084E794E69F938F93CE0146969F938F9322
:1006A0000E94BC0E85E0809323280F900F900F903E
:1006B0000F900F900F9072C08CE090E00E94731129
:1006C000882399F080E1EBE7F4E6DE0111960190D2
:1006D0000D928A95E1F780E1EBE8F4E6DE015696AB
:1006E00001900D928A95E1F712C081E1EBE9F4E601
:1006F000DE01119601900D928A95E1F78FE0ECEA08
:10070000F4E6DE01569601900D928A95E1F786E0B7
:100710008093232843C08DE090E00E9473118823CA
:1007200099F08FE0EBEBF4E6DE01119601900D926B
:100730008A95E1F780E1EBE8F4E6DE015696019058
:100740000D928A95E1F712C080E1EAECF4E6DE0151
:10075000119601900D928A95E1F78FE0ECEAF4E6AC
:10076000DE01569601900D928A95E1F787E080931D
:10077000232814C088E0EAEDF4E6DE01119601902A
:100780000D928A95E1F788E0E2EEF4E6DE015696F6
:1007900001900D928A95E1F71092232841E0BE0165
:1007A0006F5F7F4F80E00E947F0742E0BE016A5E7C
:1007B0007F4F80E00E947F07AA96CDBFDEBFDF910A
:1007C000CF9108958CE090E00E94731161E0811157
:1007D00060E08CE090E00E948B111092222886E06D
:1007E0000E948F0108958DE090E00E94731161E0F6
:1007F000811160E08DE090E00E948B111092222820
:1008000087E00E948F010895EF92FF920F931F934C
:10081000CF93DF93CDB7DEB76597CDBFDEBF8AE05C
:1008200090E00E94731180932428809124288130C5
:10083000A9F4809124281F928F9386E394E69F93D6
:100840008F93CE0101969F938F930E94BC0E0F90C1
:100850000F900F900F900F900F9014C0809124284C
:100860001F928F9380E494E69F938F93CE0101961D
:100870009F938F930E94BC0E0F900F900F900F903C
:100880000F900F9041E06AEE74E680E00E947F07CF
:1008900042E0BE016F5F7F4F80E00E947F070F2E16
:1008A000FEEFEF2EF02D6894FF24F1F800E414E63B
:1008B00032C080912228873071F5809124288230BF
:1008C00018F4F092242806C0809124288F3F11F458
:1008D000E0922428809124281F928F931F930F93D6
:1008E00081E090E08C0F9D1F9F938F930E94BC0E20
:1008F00041E06BEF74E680E00E947F074F2DBE0160
:100900006F5F7F4F80E00E947F070F900F900F90E6
:100910000F900F900F9080912228853051F6109201
:100920002228609124288AE090E00E948B118BE0BD
:1009300090E00E947311182F8AE090E00E947311DA
:10094000181730F06FEF680F8BE090E00E948B116A
:1009500083E00E948F016596CDBFDEBFDF91CF910E
:100960001F910F91FF90EF900895CF92DF92EF9239
:10097000FF920F931F93CF93DF93CDB7DEB76597A9
:10098000CDBFDEBF8BE090E00E94731180932428DE
:10099000809124288130A9F4809124281F928F937C
:1009A00086E394E69F938F93CE0101969F938F9356
:1009B0000E94BC0E0F900F900F900F900F900F9011
:1009C00014C0809124281F928F9380E494E69F9313
:1009D0008F93CE0101969F938F930E94BC0E0F9030
:1009E0000F900F900F900F900F9041E06BE075E625
:1009F00080E00E947F0742E0BE016F5F7F4F80E092
:100A00000E947F070EEF11E00F2EF0E4EF2EF4E6C8
:100A1000FF2EF02D0F2EF6E3CF2EF4E6DF2EF02D75
:100A200057C080912228873009F052C08091242835
:100A3000811103C01093242806C0809124288F3F81
:100A400011F4009324288AE090E00E9473119091A1
:100A50002428981718F08150809324288091242806
:100A60008130A9F4809124281F928F93DF92CF9236
:100A700081E090E08C0F9D1F9F938F930E94BC0E8E
:100A80000F900F900F900F900F900F9014C08091C7
:100A900024281F928F93FF92EF9281E090E08C0FB9
:100AA0009D1F9F938F930E94BC0E0F900F900F90ED
:100AB0000F900F900F90412F6BE075E680E00E9441
:100AC0007F0742E0BE016F5F7F4F80E00E947F079B
:100AD00080912228853009F0A4CF109222286091BD
:100AE00024288BE090E00E948B1184E00E948F010B
:100AF0006596CDBFDEBFDF91CF911F910F91FF9023
:100B0000EF90DF90CF900895E0E4F4E08BE0838BEA
:100B100098E0928B818B08958CE090E00E94731195
:100B2000882379F08091480488235CF080918804C0
:100B300080FF07C080E880934504E7E0F8E2138671
:100B400017868DE090E00E947311882379F08091E0
:100B5000480486FD0BC08091880481FF07C080E4B3
:100B600080934504E7E0F8E21486108A80912328F8
:100B7000813011F40E948F018AE090E00E9473118D
:100B800080931C28089580912828882329F080913B
:100B900023280E948F010895809122288730A9F48C
:100BA000109222288091232890912528890F8093E4
:100BB00023288091232880912328877080932328DD
:100BC000809123280E948F010895809122288530EA
:100BD000F9F41092222880912328843089F028F497
:100BE000823041F0833049F00895863061F08730DB
:100BF00069F008950E948C0508950E9404040895E8
:100C00000E94B50408950E94E20308950E94F30330
:100C100008951F920F920FB60F9211248F93EF93A6
:100C2000FF938091490481FF07C082E080934904CB
:100C300085E0809322281FC08091490483FF1BC058
:100C4000E0E4F4E088E08187808582FF09C080913C
:100C500024288F5F8093242881E08093252808C072
:100C6000809124288150809324288FEF8093252819
:100C700087E080932228FF91EF918F910F900FBE14
:100C80000F901F901895CF93DF93C7E0D8E28CE0C8
:100C90008E8B8AE090E00E9473118D8B1B861C86E0
:100CA0001D861E861F86188A198A1A8A1B8A1C8A24
:100CB0000E9439088A8FDF91CF910895E0E6F4E031
:100CC00084E0808B818B828B838B848B858B868B5E
:100CD000878B0895109201281092052810920328FE
:100CE0000E945E060E946C0C0E94CA0A0E942B01A0
:100CF0000E9484050E94510A8FEF91E00E94D3095F
:100D00000E940D080E94430680E00E94C5060E94D2
:100D1000710180E00E948F010E94270108950E94C6
:100D20006A067894CCE7D8E28091002881110E946D
:100D30007C008091222881110E94C30580910128A6
:100D400081110E949C088091052881110E94B7089A
:100D50008091022881110E941B098881882321F338
:100D60000E94070BE1CFCF93DF93D62FC42F60E013
:100D70000E945C0A8D2F0E94A00A8C2F0E94A00A5C
:100D80000E949C0ADF91CF910895CF93E0E0F4E0B8
:100D900090E896839183A6E4B0E11197F1F700C043
:100DA0009583882311F0CDE301C0CCE34AE260E0F3
:100DB0008C2F0E94B30641E760E08C2F0E94B3069F
:100DC0004CE560E48C2F0E94B30648E260E08C2F73
:100DD0000E94B30648E060E08C2F0E94B3064AE20E
:100DE00060E08C2F0E94B30649E760E08C2F0E94E0
:100DF000B30645ED60E08C2F0E94B30640E760E04B
:100E00008C2F0E94B30648E760E08C2F0E94B30647
:100E100048E060E08C2F0E94B30646E060E08C2F33
:100E20000E94B30642E760E08C2F0E94B30640E0C8
:100E300060E48C2F0E94B3064AE260E08C2F0E948F
:100E4000B30649E760E08C2F0E94B3064AED60E0EC
:100E50008C2F0E94B30640E060E08C2F0E94B30606
:100E60004CED60E08C2F0E94B30640E060E08C2FD8
:100E70000E94B30641E860E08C2F0E94B3064FE762
:100E800060E08C2F0E94B30649ED60E08C2F0E9439
:100E9000B30641EF60E08C2F0E94B3064BED60E09B
:100EA0008C2F0E94B30640E460E08C2F0E94B306B2
:100EB00048E760E08C2F0E94B30648E260E08C2F88
:100EC0000E94B30641E060E08C2F0E94B30640E828
:100ED00060E08C2F0E94B3064CE060E08C2F0E94F3
:100EE000B306BAE624E081E0B15020408040E1F74B
:100EF00000C01092262810922728CF910895CF92F3
:100F0000DF92FF920F931F93CF93DF93CDB7DEB79E
:100F1000E297CDBFDEBFD42E91E1ECE1F5E6DE0134
:100F2000929601900D929A95E1F7882329F00F2E61
:100F3000FDE3FF2EF02D04C00F2EFCE3FF2EF02D5D
:100F40008E010F5F1F4FC8010E94B50EF80101907E
:100F50000020E9F73197E01BF10B719708F0198A2F
:100F6000BE016E5D7F4FCE0101960E94AA0E81E008
:100F7000D81206C040E860E08F2D0E94B30619C069
:100F800040EC60E08F2D0E94B30613C0F801419140
:100F90008F0160E48F2D0E94B3060C151D05B1F77B
:100FA00081E090E0809326289093272810922828AB
:100FB00008C08E010F5F1F4F6E01F1E1CF0ED11CF3
:100FC000E5CFE296CDBFDEBFDF91CF911F910F91AC
:100FD000FF90DF90CF9008951F93CF93DF931F92E0
:100FE000CDB7DEB7182F198241E0BE016F5F7F4F8A
:100FF0000E947F0742E0BE016F5F7F4F812F0E94FA
:101000007F07109226281092272881E080932828B5
:101010000F90DF91CF911F91089584E08093700429
:10102000E0E0F6E0808184608083A0EAB0E08C910B
:1010300080638C93A2E0B6E08C918C938C91806459
:101040008C9310920606808181608083E8E0F6E050
:10105000808181608083808180FF04C00000808166
:1010600080FDFCCF809110069091110610922128EE
:101070000895BF92CF92DF92EF92FF920F931F934A
:10108000CF93DF930F2EFAE0BF2EF02DC12CD12C81
:101090007601C8E0D6E000E116E0888181608883AF
:1010A000888180FF04C00000888180FDFCCFF801AA
:1010B000608170E080E090E00E94850D9B01AC01B2
:1010C000C701B6010E94730C6B017C01BA94B11088
:1010D000E4CF20E030E040E251E40E94E40C2EE551
:1010E0003AEB49E55FE30E94370E2FE135E845EC26
:1010F00051E40E94720C6B017C0120E030E0A901F8
:101100000E94DF0C88231CF4C12CD12C760120E036
:1011100030E040E05FE3C701B6010E94730C0E941B
:10112000560D862FDF91CF911F910F91FF90EF9079
:10113000DF90CF90BF90089510920128E7E0F8E289
:1011400086898150868B811111C08091880482FF2D
:101150000DC0A0E4B4E080E215968C931597158637
:1011600080E115968C9316868CE0868B0895CF933C
:10117000809104288F5F809304288C3328F081E0CD
:101180008093012810920428109205288091480429
:1011900088238CF4E7E0F8E2C385CF5FC3878BE058
:1011A00090E00E947311C81730F080E880934604E5
:1011B00081E0809316288091480486FF11C0E7E003
:1011C000F8E2C485CF5FC4878BE090E00E94731182
:1011D000C81730F080E48093460481E0809317289C
:1011E0008091480485FF13C0E7E0F8E285858F5FB2
:1011F0008587843160F0E0E4F4E080E2868380E17A
:101200008683E7E0F8E281E0818B8CE0868B809139
:10121000480484FF05C0E7E0F8E286858F5F868793
:10122000E7E0F8E285898150858B811102C00E9438
:101230008C05CF91089510920228809103288C3359
:1012400028F081E080930528109203280E94390835
:1012500080932128809148048823F4F480918804A5
:1012600080FD1AC080911A28853030F080E8809384
:10127000460410921A2803C08F5F80931A28809129
:101280002328813049F48091262890912728892BA2
:1012900019F081E00E948F018091480486FF1EC0F2
:1012A0008091880481FD1AC080911B28853030F020
:1012B00080E48093460410921B2803C08F5F8093C4
:1012C0001B2880912328813049F480912628909111
:1012D0002728892B19F081E00E948F018091480412
:1012E00085FF2AC08091880482FD26C0809119283C
:1012F000853090F0E0E4F4E080E2868310921928D3
:1013000024E588E594E1215080409040E1F700C059
:1013100000C080E1868303C08F5F8093192880918D
:101320002328813049F48091262890912728892B01
:10133000A9F181E00E948F0180911E288823B9F0D5
:101340008091280481FD0FC0E7E0F8E2808D91E0F4
:10135000980F908F823058F080E180934504168674
:10136000178A108E04C0E7E0F8E2178A108E809189
:101370002628909127280097A9F08B30910540F0FE
:1013800080E00E94EC0710922628109227280895EA
:1013900001968093262890932728089580911E28EF
:1013A0008111CECF08959C01E0E6F0E0848D8E7F20
:1013B00098ED94BF848F838186FF04C000009381E1
:1013C00096FDFCCFE0E6F0E0948D9B7F88ED84BF36
:1013D000948F948D916084BF948F80914101882374
:1013E00031F0E0E4F1E0000091819111FCCFE0E404
:1013F000F1E02287338782E087838581816085835E
:1014000081EB808382818160828308951F920F9295
:101410000FB60F9211248F939F9391E09093430105
:10142000809103288F5F80930328909302289F91D7
:101430008F910F900FBE0F901F9018951092292832
:1014400010922A2825E03DE0AC01429FC001439F55
:10145000900D529F900D1124E0E8FAE08487958763
:1014600081E08583808308951092800A08951F92F9
:101470000F920FB60F9211248F939F9381E0809368
:10148000860A8091292890912A28019680932928FC
:1014900090932A289F918F910F900FBE0F901F90CD
:1014A0001895E0EAF8E08BE086838381816083838E
:1014B0008581816085830895613029F4880F81607A
:1014C0008093A70803C0880F8093A70881E090E06D
:1014D0000E941E0A8091A508807CB9F48091292879
:1014E00090912A280B9748F4E0EAF8E00AC080912E
:1014F000292890912A280B9720F00E94340A84E032
:10150000089500008581807C91F30E94340A8091C7
:10151000A50882FD0BC08091A50883FD09C09091AC
:10152000A508892F807194FD05C0089583E0089572
:1015300082E0089585E0089587E08093A4080895E7
:101540009091A50896FD06C0E0EAF8E000009581BC
:1015500096FFFCCF8093A80881E090E00E941E0ACD
:10156000E0EAF8E00BC000008091292890912A2839
:10157000C39720F00E94340A84E00895858186FF95
:10158000F2CF0E94340A9091A508892F807194FDB2
:1015900086E00895E0E0F4E081E085838183E0E087
:1015A000F8E02DE635E020873187958190689583B6
:1015B00096819064968396819068968310927E2897
:1015C0001092D22810927D281092D12810927C2857
:1015D0008093D02808956093D2281092D128109239
:1015E000D028662371F0A82FB92FEFE7F8E26150F9
:1015F000262F30E02058374D8D918193E217F30765
:10160000D9F7E0E0F8E08581806285830895AF92A4
:10161000BF92CF92DF92EF92FF920F931F93CF93DF
:10162000DF93CDB7DEB7CA5BD109CDBFDEBF86E59C
:10163000EDE2F5E6DE01119601900D928A95E1F753
:101640008091480484FD05C00F2EF3E4FF2EF02D99
:1016500004C00F2EFFE4FF2EF02D80911828811179
:1016600009C08091480485FD0AC00F2EF3E4EF2ED7
:10167000F02D09C00F2EF4E5EF2EF02D04C00F2E33
:10168000FFE4EF2EF02D8DE090E00E94731188238F
:1016900069F08091172881110EC08091480486FD61
:1016A0000FC00F2EF3E4DF2EF02D0EC00F2EF8E545
:1016B000DF2EF02D09C00F2EF4E5DF2EF02D04C033
:1016C0000F2EFFE4DF2EF02D8CE090E00E947311CE
:1016D000882369F08091162881110EC080914804FA
:1016E00088237CF00F2EF3E4AF2EF02D0EC00F2ECA
:1016F000F8E5AF2EF02D09C00F2EF4E5AF2EF02D3A
:1017000004C00F2EFFE4AF2EF02D8AE090E00E947F
:101710007311B82E07E018E2F801C5888BE090E05D
:101720000E947311F801928D2091880422FD02C05D
:1017300023E401C028E43091880431FD02C033E481
:1017400001C038E44091880440FD02C043E401C078
:1017500048E41F924F931F923F931F922F931F9223
:101760009F931F92BF921F928F931F92CF921F92AF
:10177000AF921F92DF921F92EF921F92FF92CE01C3
:1017800001969F938F938A5A9F4F9F938F930E94A6
:10179000BC0E84E690E00E941E0A8091D028CDBF46
:1017A000DEBF811113C08091292890912A280B97C0
:1017B000D0F4E0EDF8E206C08091292890912A2823
:1017C0000B9788F4000080818823B1F3CE01895AF9
:1017D0009F4FFC0101900020E9F73197BF01681B82
:1017E000790B0E94EB0AC654DF4FCDBFDEBFDF91FD
:1017F000CF911F910F91FF90EF90DF90CF90BF900E
:10180000AF9008951F920F920FB60F9211248F93ED
:101810009F93AF93BF93EF93FF93809100089091B4
:101820007E289135B0F48D3051F4E0917E28F0E0BF
:10183000E55DF74D108281E080937C280AC0AEE719
:10184000B8E2EC9191E09E0F9C93F0E0E55DF74DDE
:101850008083FF91EF91BF91AF919F918F910F90F6
:101860000FBE0F901F9018951F920F920FB60F92F8
:1018700011248F939F93AF93BF93CF93DF93EF93F5
:10188000FF93C0E0D8E08D818F7D8D83A1EDB8E21C
:10189000EC9181E08E0F8C93F0E0E158F74D808160
:1018A0008A839091D2288C91981304C081E0809310
:1018B000D02805C0E0E0F8E0858180628583FF9153
:1018C000EF91DF91CF91BF91AF919F918F910F9049
:1018D0000FBE0F901F901895E0E4F4E080EF868330
:1018E000818308955058BB27AA270E948A0C0C9424
:1018F000FD0D0E94EF0D38F00E94F60D20F039F436
:101900009F3F19F426F40C94EC0D0EF4E095E7FBE0
:101910000C94E60DE92F0E940E0E58F3BA176207D9
:1019200073078407950720F079F4A6F50C94300E20
:101930000EF4E0950B2EBA2FA02D0B01B9019001EA
:101940000C01CA01A0011124FF27591B99F0593F2E
:1019500050F4503E68F11A16F040A22F232F342F76
:101960004427585FF3CF469537952795A795F040C4
:101970005395C9F77EF41F16BA0B620B730B840BD9
:10198000BAF09150A1F0FF0FBB1F661F771F881F91
:10199000C2F70EC0BA0F621F731F841F48F48795E9
:1019A00077956795B795F7959E3F08F0B0CF9395DB
:1019B000880F08F09927EE0F9795879508950E9454
:1019C000C20D08F481E008950E94F80C0C94FD0DFE
:1019D0000E94F60D58F00E94EF0D40F029F45F3F91
:1019E00029F00C94E60D51110C94310E0C94EC0D71
:1019F0000E940E0E68F39923B1F3552391F3951BC2
:101A0000550BBB27AA2762177307840738F09F5F1F
:101A10005F4F220F331F441FAA1FA9F335D00E2E8C
:101A20003AF0E0E832D091505040E695001CCAF7F9
:101A30002BD0FE2F29D0660F771F881FBB1F2617BC
:101A400037074807AB07B0E809F0BB0B802DBF0193
:101A5000FF2793585F4F3AF09E3F510578F00C9462
:101A6000E60D0C94310E5F3FE4F3983ED4F3869577
:101A700077956795B795F7959F5FC9F7880F911D83
:101A80009695879597F90895E1E0660F771F881F6F
:101A9000BB1F621773078407BA0720F0621B730B22
:101AA000840BBA0BEE1F88F7E09508950E94160E7E
:101AB00088F09F5798F0B92F9927B751B0F0E1F00F
:101AC000660F771F881F991F1AF0BA95C9F714C0BF
:101AD000B13091F00E94300EB1E008950C94300EB8
:101AE000672F782F8827B85F39F0B93FCCF38695F8
:101AF00077956795B395D9F73EF490958095709555
:101B000061957F4F8F4F9F4F0895E89409C097FBD1
:101B10003EF490958095709561957F4F8F4F9F4FC4
:101B20009923A9F0F92F96E9BB279395F695879508
:101B300077956795B795F111F8CFFAF4BB0F11F4CB
:101B400060FF1BC06F5F7F4F8F4F9F4F16C0882372
:101B500011F096E911C0772321F09EE8872F762FA8
:101B600005C0662371F096E8862F70E060E02AF0E9
:101B70009A95660F771F881FDAF7880F96958795D5
:101B800097F90895990F0008550FAA0BE0E8FEEFAA
:101B900016161706E807F907C0F012161306E40731
:101BA000F50798F0621B730B840B950B39F40A262A
:101BB00061F0232B242B252B21F408950A2609F408
:101BC000A140A6958FEF811D811D089597F99F670C
:101BD00080E870E060E008959FEF80EC08950024B5
:101BE0000A941616170618060906089500240A9482
:101BF00012161306140605060895092E0394000C08
:101C000011F4882352F0BB0F40F4BF2B11F460FF96
:101C100004C06F5F7F4F8F4F9F4F089557FD9058BF
:101C2000440F551F59F05F3F71F04795880F97FBA0
:101C3000991F61F09F3F79F087950895121613065A
:101C40001406551FF2CF4695F1DF08C01616170689
:101C50001806991FF1CF86957105610508940895BE
:101C6000E894BB2766277727CB0197F908950E9450
:101C70004A0E0C94FD0D0E94EF0D38F00E94F60DF7
:101C800020F0952311F00C94E60D0C94EC0D11242A
:101C90000C94310E0E940E0E70F3959FC1F3950FB8
:101CA00050E0551F629FF001729FBB27F00DB11DE0
:101CB000639FAA27F00DB11DAA1F649F6627B00D70
:101CC000A11D661F829F2227B00DA11D621F739F59
:101CD000B00DA11D621F839FA00D611D221F749F67
:101CE0003327A00D611D231F849F600D211D822FAE
:101CF000762F6A2F11249F5750409AF0F1F08823D5
:101D00004AF0EE0FFF1FBB1F661F771F881F915001
:101D10005040A9F79E3F510580F00C94E60D0C94BD
:101D2000310E5F3FE4F3983ED4F38695779567953F
:101D3000B795F795E7959F5FC1F7FE2B880F911D2B
:101D40009695879597F90895EE0FFF1F0590F491EA
:101D5000E02D0994FB01DC010D900020E9F71197BB
:101D600001900D920020E1F70895FB01DC01019044
:101D70000D920020E1F70895AEE0B0E0E2ECFEE065
:101D80000C94B8110D891E8986E08C8309831A830F
:101D90008FEF9FE78D839E83AE01475E5F4F6F8914
:101DA000788DCE0101960E94DE0EEF81F885E00F5E
:101DB000F11F10822E96E4E00C94D111ABE0B0E05C
:101DC000E4EEFEE00C94AA116C017B018A01FC0197
:101DD00016821782838181FFCCC1CE0101963C011E
:101DE000F6019381F70193FD859193FF81917F0126
:101DF000882309F4BAC1853239F493FD859193FFA4
:101E000081917F01853229F4B60190E00E94D510BE
:101E1000E7CF912C212C312CFFE1F315D8F08B3238
:101E200079F038F4803279F08332A1F4232D2061E7
:101E30001DC08D3261F0803369F4232D216016C0FE
:101E4000832D8260382EE32DE4603E2E2AC0F32DD0
:101E5000F8601DC037FC2DC020ED280F2A3040F05F
:101E60008E32B9F436FC81C1232D2064322E19C084
:101E700036FE06C08AE0989E200D1124922E11C0D5
:101E8000EAE02E9E200D1124222EF32DF0623F2E2B
:101E900008C08C3621F4832D8068382E02C0883625
:101EA00041F4F70193FD859193FF81917F018111A9
:101EB000B3CF982F9F7D9554933028F40C5F1F4F1C
:101EC0009FE399830DC0833631F0833771F08335FA
:101ED00009F059C021C0F801808189830E5F1F4F2E
:101EE00088248394912C530113C02801F2E04F0EF3
:101EF000511CF801A080B18036FE03C0692D70E04E
:101F000002C06FEF7FEFC5010E94CA104C01820131
:101F1000F32DFF773F2E16C0280122E0420E511C00
:101F2000F801A080B18036FE03C0692D70E002C0C8
:101F30006FEF7FEFC5010E94BF104C01F32DF068D9
:101F40003F2E820133FC1BC0822D90E0881699063B
:101F5000B0F4B60180E290E00E94D5102A94F4CF4C
:101F6000F50137FC859137FE81915F01B60190E064
:101F70000E94D51021102A9421E0821A9108811420
:101F8000910471F7E8C0843611F0893641F5F80103
:101F900037FE07C060817181828193810C5F1F4F82
:101FA00008C060817181072E000C880B990B0E5FB1
:101FB0001F4FF32DFF763F2E97FF09C09095809518
:101FC000709561957F4F8F4F9F4FF0683F2E2AE0AD
:101FD00030E0A3010E941111882E861845C0853774
:101FE00031F4232D2F7EB22E2AE030E025C0932D30
:101FF000997FB92E8F36C1F018F4883579F0B5C0C5
:10200000803719F0883721F0B0C0E92FE061BE2E8B
:10201000B4FE0DC0FB2DF460BF2E09C034FE0AC013
:10202000292F2660B22E06C028E030E005C020E14E
:1020300030E002C020E132E0F801B7FE07C0608165
:102040007181828193810C5F1F4F06C06081718115
:1020500080E090E00E5F1F4FA3010E941111882EB7
:102060008618FB2DFF773F2E36FE0DC0232D2E7FC9
:10207000A22E891458F434FE0BC032FC09C0832D03
:102080008E7EA82E05C0B82CA32C03C0B82C01C08E
:10209000B92CA4FE0FC0FE01E80DF11D8081803334
:1020A00021F49A2D997EA92E09C0A2FE06C0B394F0
:1020B000B39404C08A2D867809F0B394A3FC11C0B0
:1020C000A0FE06C0B21488F4280C922C9B180EC0F7
:1020D000B21460F4B60180E290E00E94D510B3948F
:1020E000F7CFB21418F42B1802C0982C212CA4FEA0
:1020F00010C0B60180E390E00E94D510A2FE17C088
:10210000A1FC03C088E790E002C088E590E0B6013A
:102110000CC08A2D867859F0A1FE02C08BE201C066
:1021200080E2A7FC8DE2B60190E00E94D5108914F0
:1021300038F4B60180E390E00E94D5109A94F7CF6E
:102140008A94F301E80DF11D8081B60190E00E94B0
:10215000D5108110F5CF222009F442CEB60180E2DD
:1021600090E00E94D5102A94F6CFF60186819781DF
:1021700002C08FEF9FEF2B96E2E10C94C311FC019C
:102180000590615070400110D8F7809590958E0FA2
:102190009F1F0895FC016150704001900110D8F715
:1021A000809590958E0F9F1F08950F931F93CF9347
:1021B000DF93FB01238121FD03C08FEF9FEF2CC034
:1021C00022FF16C04681578124813581421753076B
:1021D00044F4A081B1819D012F5F3F4F2083318363
:1021E0008C93268137812F5F3F4F2683378314C01E
:1021F0008B01EC01FB010084F185E02D0995892B11
:10220000E1F6D80116968D919C9117970196169636
:102210008D939C931797CE01DF91CF911F910F91D2
:102220000895FA01AA27283051F1203181F1E8946C
:102230006F936E7F6E5F7F4F8F4F9F4FAF4FB1E0B9
:102240003ED0B4E03CD0670F781F891F9A1FA11DB4
:10225000680F791F8A1F911DA11D6A0F711D811DB5
:10226000911DA11D20D009F468943F912AE0269F7A
:1022700011243019305D3193DEF6CF010895462FD9
:102280004770405D4193B3E00FD0C9F7F6CF462FBA
:102290004F70405D4A3318F0495D31FD4052419323
:1022A00002D0A9F7EACFB4E0A695979587957795E0
:1022B0006795BA95C9F700976105710508959B0167
:1022C000AC010A2E06945795479537952795BA95F0
:1022D000C9F7620F731F841F951FA01D08956050DA
:1022E0007C4E0C94DB1103D0808199270895FC016A
:1022F000E050FC4E0895DC01A40FB51F4150504042
:1023000048F0CB01840F951F2E910E948C114150F3
:102310005040D0F70895262F0E94771100800216B2
:1023200019F00E949711019701970895262FAF93F6
:10233000BF93E0E0F0E1328131FDFDCFDC01A05040
:10234000BC4E2C932DE924BF23E020830196BF913E
:10235000AF9108952F923F924F925F926F927F922A
:102360008F929F92AF92BF92CF92DF92EF92FF92A5
:102370000F931F93CF93DF93CDB7DEB7CA1BDB0B51
:10238000CDBFDEBF09942A88398848885F846E846F
:102390007D848C849B84AA84B984C884DF80EE8089
:1023A000FD800C811B81AA81B981CE0FD11DCDBFCB
:1023B000DEBFED010895FB01DC0102C001900D922A
:0C23C00041505040D8F70895F894FFCF2A
:1023CC0053656E736F7220636F6C64206F72006361
:1023DC0061626C6520756E706C7567676564003240
:1023EC003032322D30322D30310020204C4E322004
:1023FC004175746F66696C6C00535550204255469C
:10240C002052454420424C5500204F2020002043B0
:10241C00202000205420200020582020004E6578D9
:10242C00742066696C6C20696E002564206D696E81
:10243C00757465002564206D696E7574657300464E
:10244C00696C6C20696E74657276616C004D617894
:10245C00206F70656E2074696D65004C4E32207073
:10246C0072657373757265002564206B5061004250
:10247C004C554520697320454E41424C4544005013
:10248C0075736820746F2064697361626C650042B7
:10249C006C75652069732044495341424C45440096
:1024AC005075736820746F20656E61626C650052A4
:1024BC00454420697320454E41424C4544005245E9
:1024CC00442069732044495341424C45440064659F
:1024DC006661756C74006F76657272756E005075FE
:1024EC00736820746F2073657420696E7476005065
:1024FC0075736820746F2073657420696E74005056
:10250C0075736820746F20736574206D61786F002B
:10251C0020202020202020202020202020202020AF
:10252C00004C4E322C25632C5355502C25632C42D9
:10253C0055462C25632C5245442C25632C424C5576
:10254C002C25642C4E58542C25642C4D41582C258C
:10255C00642C494E542C25642C505245532C256325
:10256C002C544255462C25632C545245442C25633F
:07257C002C54424C550D00E8
:00000001FF
