S01400004C4E32204175746F66696C6C2E73726563E4
S11300000C9458000C946A000C946A000C945609E1
S11300100C946A000C946A000C946A000C946A00B4
S11300200C946A000C946A000C946A000C946A00A4
S11300300C9487090C946A000C946A000C946A006E
S11300400C946A000C940D0C0C943F0C0C946A00F4
S11300500C946A000C946A000C946A000C946A0074
S11300600C94A9050C946A000C946A000C946A0020
S11300700C946A000C946A000C946A000C946A0054
S11300800C946A000C946A000C94D3000C946A00DB
S11300900C946A000C946A000C946A000C946A0034
S11300A040015E0135026B02A302DB02FC022B035A
S11300B011241FBECFEFCDBFDFE3DEBF28E2A0E0F7
S11300C0B8E201C01D92AA3CB207E1F70E945206B1
S11300D00C94EF110C940000809100288230F9F008
S11300E018F4813031F04EC0833079F18430E9F175
S11300F049C080914804882324F480E8809346040E
S113010041C08CE090E00E947E118823D9F180E800
S113011080934504E4E0F8E21386178633C08091A7
S1130120480486FF04C080E4809346042BC08DE01D
S113013090E00E947E11882329F180E48093450495
S1130140E4E0F8E21486108A1DC08091480485FF1B
S113015004C080E28093460415C080E28093450485
S1130160E4E0F8E21586118A0DC08091480484FF0A
S113017004C080E18093460405C080E18093450477
S1130180109212281092002880911A28813011F4BC
S11301900E942F010895E0E2F4E08BE0828B838BD0
S11301A0808B818B08951F920F920FB60F921124AA
S11301B08F938091290482FF07C084E080932904EF
S11301C081E08093002820C08091290483FF07C028
S11301D088E08093290482E08093002815C08091F0
S11301E0290480FF07C081E08093290483E0809381
S11301F000280AC08091290481FF06C082E0809310
S1130200290484E0809300288F910F900FBE0F90F3
S11302101F9018954AE050E060E070E00E947A1167
S11302200895CF93DF93CDB7DEB72B97CDBFDEBF55
S11302308BE0E2EEF3E6DE01119601900D928A95D1
S1130240E1F74AE050E060E070E0CE0101960E94E0
S113025086112B96CDBFDEBFDF91CF910895CF934A
S1130260DF93CDB7DEB7AA97CDBFDEBF90E088306D
S1130270910508F01FC2FC01E05BFF4F0C94AF0E28
S11302808FE0EDEEF3E6DE01119601900D928A9572
S1130290E1F784E098E20E940A0180E290E28E8B0A
S11302A09F8B80E290E0888F998F64E078E2CE01A2
S11302B046960E94B50E10921A2810C280E1ECEF07
S11302C0F3E6DE01119601900D928A95E1F7809193
S11302D0480484FF0AC085E0ECE0F4E6DE015696AB
S11302E001900D928A95E1F709C085E0E1E1F4E619
S11302F0DE01569601900D928A95E1F780914804AB
S113030085FF0EC0DE0156960D900020E9F7119787
S113031085E0ECE0F4E601900D928A95E1F71FC0C8
S113032080911528882371F0DE0156960D900020E7
S1130330E9F7119785E0E6E1F4E601900D928A95DC
S1130340E1F70DC0DE0156960D900020E9F71197F4
S113035085E0E1E1F4E601900D928A95E1F78DE004
S113036090E00E947E1181110EC0DE0156960D9020
S11303700020E9F7119785E0EBE1F4E601900D9296
S11303808A95E1F731C08091480486FF0EC0DE01F2
S113039056960D900020E9F7119785E0ECE0F4E61D
S11303A001900D928A95E1F71FC08091142888234B
S11303B071F0DE0156960D900020E9F7119785E063
S11303C0E6E1F4E601900D928A95E1F70DC0DE01B5
S11303D056960D900020E9F7119785E0E1E1F4E6E7
S11303E001900D928A95E1F78CE090E00E947E11D5
S11303F081110CC0FE01769601900020E9F7319737
S113040080E298E58083918312822BC08091480416
S1130410882364F4FE01769601900020E9F7319771
S113042080E29FE48083918312821BC08091132811
S1130430882361F0FE01769601900020E9F7319758
S113044080E294E58083918312820BC0FE0176964C
S113045001900020E9F7319780E293E4808391834F
S1130460128281E080931A2839C18DE0E0E2F4E63B
S1130470DE01119601900D928A95E1F7809116287C
S1130480823098F41F928F938DE294E69F938F931A
S1130490CE0146969F938F930E94C70E0F900F90A4
S11304A00F900F900F900F9012C01F928F9387E3BD
S11304B094E69F938F93CE0146969F938F930E94C9
S11304C0C70E0F900F900F900F900F900F9082E037
S11304D080931A2803C18EE0E2E4F4E6DE0111966B
S11304E001900D928A95E1F78AE090E00E947E11D6
S11304F0813099F41F928F938DE294E69F938F93AA
S1130500CE0146969F938F930E94C70E0F900F9033
S11305100F900F900F900F9012C01F928F9387E34C
S113052094E69F938F93CE0146969F938F930E9458
S1130530C70E0F900F900F900F900F900F9083E0C5
S113054080931A28CBC08EE0E0E5F4E6DE01119634
S113055001900D928A95E1F78BE090E00E947E1164
S1130560823098F41F928F938DE294E69F938F9339
S1130570CE0146969F938F930E94C70E0F900F90C3
S11305800F900F900F900F9012C01F928F9387E3DC
S113059094E69F938F93CE0146969F938F930E94E8
S11305A0C70E0F900F900F900F900F900F9084E054
S11305B080931A2893C08DE0EEE5F4E6DE011196EF
S11305C001900D928A95E1F7809118281F928F93DC
S11305D08BE694E69F938F93CE0146969F938F93D9
S11305E00E94C70E85E080931A280F900F900F90F9
S11305F00F900F900F9072C08CE090E00E947E11DB
S1130600882399F080E1E2E7F4E6DE011196019097
S11306100D928A95E1F780E1E2E8F4E6DE01569670
S113062001900D928A95E1F712C081E1E2E9F4E6C6
S1130630DE01119601900D928A95E1F78FE0E3EACD
S1130640F4E6DE01569601900D928A95E1F786E074
S113065080931A2843C08DE090E00E947E11882385
S113066099F08FE0E2EBF4E6DE01119601900D9231
S11306708A95E1F780E1E2E8F4E6DE01569601901E
S11306800D928A95E1F712C080E1E1ECF4E6DE0117
S1130690119601900D928A95E1F78FE0E3EAF4E672
S11306A0DE01569601900D928A95E1F787E08093DA
S11306B01A2814C088E0E1EDF4E6DE0111960190F9
S11306C00D928A95E1F788E0E9EDF4E6DE015696AD
S11306D001900D928A95E1F710921A2841E0BE012B
S11306E06F5F7F4F80E00E943D0742E0BE016A5E7B
S11306F07F4F80E00E943D07AA96CDBFDEBFDF9109
S1130700CF9108958CE090E00E947E1161E0811108
S113071060E08CE090E00E9496111092192886E027
S11307200E942F0108958DE090E00E947E1161E007
S1130730811160E08DE090E00E94961110921928DA
S113074087E00E942F010895EF92FF920F931F9369
S1130750CF93DF93CDB7DEB76597CDBFDEBF8AE019
S113076090E00E947E1180931B2880911B28813089
S1130770A9F480911B281F928F938DE294E69F9396
S11307808F93CE0101969F938F930E94C70E0F9073
S11307900F900F900F900F900F9014C080911B2812
S11307A01F928F9387E394E69F938F93CE010196D4
S11307B09F938F930E94C70E0F900F900F900F90EE
S11307C00F900F9041E061EE74E680E00E943D07D7
S11307D042E0BE016F5F7F4F80E00E943D070F2E15
S11307E0FEEFEF2EF02D6894FF24F1F807E314E6F2
S11307F032C080911928873071F580911B2882308E
S113080018F4F0921B2806C080911B288F3F11F426
S1130810E0921B2880911B281F928F931F930F93A4
S113082081E090E08C0F9D1F9F938F930E94C70ED1
S113083041E062EF74E680E00E943D074F2DBE0167
S11308406F5F7F4F80E00E943D070F900F900F90E5
S11308500F900F900F9080911928853051F61092C7
S1130860192860911B288AE090E00E9496118BE081
S113087090E00E947E11182F8AE090E00E947E1181
S1130880181730F06FEF680F8BE090E00E9496111C
S113089083E00E942F016596CDBFDEBFDF91CF912B
S11308A01F910F91FF90EF900895CF92DF92EF92F6
S11308B0FF920F931F93CF93DF93CDB7DEB7659766
S11308C0CDBFDEBF8BE090E00E947E1180931B2899
S11308D080911B288130A9F480911B281F928F934B
S11308E08DE294E69F938F93CE0101969F938F930D
S11308F00E94C70E0F900F900F900F900F900F90C3
S113090014C080911B281F928F9387E394E69F93D2
S11309108F93CE0101969F938F930E94C70E0F90E1
S11309200F900F900F900F900F9041E062E075E6EA
S113093080E00E943D0742E0BE016F5F7F4F80E090
S11309400E943D070EEF11E00F2EF7E3EF2EF4E6C1
S1130950FF2EF02D0F2EFDE2CF2EF4E6DF2EF02D2C
S113096057C080911928873009F052C080911B2804
S1130970811103C010931B2806C080911B288F3F50
S113098011F400931B288AE090E00E947E1190915C
S11309901B28981718F0815080931B2880911B28DE
S11309A08130A9F480911B281F928F93DF92CF92FC
S11309B081E090E08C0F9D1F9F938F930E94C70E40
S11309C00F900F900F900F900F900F9014C0809184
S11309D01B281F928F93FF92EF9281E090E08C0F7F
S11309E09D1F9F938F930E94C70E0F900F900F909F
S11309F00F900F900F90412F62E075E680E00E9407
S1130A003D0742E0BE016F5F7F4F80E00E943D07DB
S1130A1080911928853009F0A4CF1092192860918B
S1130A201B288BE090E00E94961184E00E942F0125
S1130A306596CDBFDEBFDF91CF911F910F91FF90DF
S1130A40EF90DF90CF900895E0E4F4E08BE0838BA7
S1130A5098E0928B818B08958CE090E00E947E1147
S1130A60882379F08091480488235CF0809188047D
S1130A7080FF07C080E880934504E4E0F8E2138631
S1130A8017868DE090E00E947E11882379F0809192
S1130A90480486FD0BC08091880481FF07C080E470
S1130AA080934504E4E0F8E21486108A80911A28C1
S1130AB0813011F40E942F018AE090E00E947E119F
S1130AC080931628089580911F28882329F0809107
S1130AD01A280E942F010895809119288730A9F4BB
S1130AE01092192880911A2890911C28890F8093BC
S1130AF01A2880911A2880911A28877080931A28BE
S1130B0080911A280E942F01089580911928853018
S1130B10F9F41092192880911A28843089F028F465
S1130B20823041F0833049F00895863061F0873097
S1130B3069F008950E942C0508950E94A403089565
S1130B400E94550408950E94820308950E9493030D
S1130B5008951F920F920FB60F9211248F93EF9363
S1130B60FF938091490481FF07C082E08093490488
S1130B7085E0809319281FC08091490483FF1BC01E
S1130B80E0E4F4E088E08187808582FF09C08091F9
S1130B901B288F5F80931B2881E080931C2808C04A
S1130BA080911B28815080931B288FEF80931C28F1
S1130BB087E080931928FF91EF918F910F900FBEDA
S1130BC00F901F901895CF93DF938AE090E00E94D6
S1130BD07E11C4E0D8E28A8B1B861C861D861E8685
S1130BE01F86188A198A0E94F7078C8BDF91CF9190
S1130BF00895E0E0F4E088E0808B818B828B838B26
S1130C00848B858B868B878BE0E2F4E0808B818BF1
S1130C10828B838B848B858BE0E4F4E0808B818BE7
S1130C20828B838B848B858B868B878BE0E6F4E0C9
S1130C3094E0908B918B928B938B948B958B968B6A
S1130C40978BE0E8F4E0808B818B828B838BE0EAE6
S1130C50F4E0808B818B828B838B848B858B868B5A
S1130C60089510920128109203280E9411010E94F5
S1130C70F9050E941A0A0E94770C0E94CB000E9478
S1130C8024050E94A1098FEF91E00E9423090E948C
S1130C90CB070E94E30580E00E94830680E00E9467
S1130CA02F0108950E9431067894C3E7D8E2809119
S1130CB0002881110E946C008091192881110E94E2
S1130CC063058091012881110E945A0880910228AD
S1130CD081110E94AC088881882349F30E94570A35
S1130CE0E6CFCF93DF93D62FC42F60E00E94AC09E8
S1130CF08D2F0E94F0098C2F0E94F0090E94EC09AC
S1130D00DF91CF910895CF93E0E0F4E090E89683EB
S1130D109183A1E4B3E01197F1F700009583882350
S1130D2011F0CDE301C0CCE34AE260E08C2F0E94D5
S1130D30710641E760E08C2F0E9471064CE560E487
S1130D408C2F0E94710648E260E08C2F0E9471068D
S1130D5048E060E08C2F0E9471064AE260E08C2F2C
S1130D600E94710649E760E08C2F0E94710645EDF0
S1130D7060E08C2F0E94710640E760E08C2F0E9497
S1130D80710648E760E08C2F0E94710648E060E03D
S1130D908C2F0E94710646E060E08C2F0E94710641
S1130DA042E760E08C2F0E94710640E060E48C2FE3
S1130DB00E9471064AE260E08C2F0E94710649E7A6
S1130DC060E08C2F0E9471064AED60E08C2F0E9437
S1130DD0710640E060E08C2F0E9471064CED60E0EB
S1130DE08C2F0E94710640E060E08C2F0E947106F7
S1130DF041E860E08C2F0E9471064FE760E08C2F81
S1130E000E94710649ED60E08C2F0E94710641EF4B
S1130E1060E08C2F0E9471064BED60E08C2F0E94E5
S1130E20710640E460E08C2F0E94710648E760E0A0
S1130E308C2F0E94710648E260E08C2F0E9471069C
S1130E4041E060E08C2F0E94710640E860E08C2F46
S1130E500E9471064CE060E08C2F0E947106BAE695
S1130E6024E081E0B15020408040E1F700C01092BE
S1130E701D2810921E28CF910895CF92DF92FF92E1
S1130E800F931F93CF93DF93CDB7DEB7E297CDBF18
S1130E90DEBFD42E91E1E3E1F5E6DE019296019006
S1130EA00D929A95E1F7882329F00F2EFDE3FF2E8A
S1130EB0F02D04C00F2EFCE3FF2EF02D8E010F5FEA
S1130EC01F4FC8010E94C00EF80101900020E9F7ED
S1130ED03197E01BF10B719708F0198ABE016E5D22
S1130EE07F4FCE0101960E94B50E81E0D81206C054
S1130EF040E860E08F2D0E94710619C040EC60E06C
S1130F008F2D0E94710613C0F80141918F0160E496
S1130F108F2D0E9471060C151D05B1F781E090E03C
S1130F2080931D2890931E2810921F2808C08E01BC
S1130F300F5F1F4F6E01F1E1CF0ED11CE5CFE2969A
S1130F40CDBFDEBFDF91CF911F910F91FF90DF9056
S1130F50CF9008951F93CF93DF931F92CDB7DEB741
S1130F60182F198241E0BE016F5F7F4F0E943D0739
S1130F7042E0BE016F5F7F4F812F0E943D071092B8
S1130F801D2810921E2881E080931F280F90DF9166
S1130F90CF911F91089584E080937004E0E0F6E01F
S1130FA0808184608083A0EAB0E08C9180638C931C
S1130FB0A2E0B6E08C918C938C9180648C93109217
S1130FC00606808181608083E8E0F6E080818160AC
S1130FD08083808180FF04C00000808180FDFCCF7D
S1130FE08091100690911106109218280895BF92CE
S1130FF0CF92DF92EF92FF920F931F93CF93DF93E1
S11310000F2EFAE0BF2EF02DC12CD12C7601C8E0B2
S1131010D6E000E116E0888181608883888180FFC2
S113102004C00000888180FDFCCFF801608170E07D
S113103080E090E00E94900D9B01AC01C701B601D5
S11310400E947E0C6B017C01BA94B110E4CF20E0C5
S113105030E040E251E40E94EF0C2EE53AEB49E522
S11310605FE30E94420E2FE135E845EC51E40E9413
S11310707D0C6B017C0120E030E0A9010E94EA0CA8
S113108088231CF4C12CD12C760120E030E040E010
S11310905FE3C701B6010E947E0C0E94610D862F9A
S11310A0DF91CF911F910F91FF90EF90DF90CF9040
S11310B0BF900895CF93109201288091480488230B
S11310C08CF4E4E0F8E2C385CF5FC3878BE090E063
S11310D00E947E118C1730F480E88093460481E0EE
S11310E0809313288091480486FF11C0E4E0F8E25D
S11310F0C485CF5FC4878BE090E00E947E118C177B
S113110030F480E48093460481E080931428809135
S1131110480485FF0DC0E4E0F8E285858F5F85878C
S11311208B3030F080E28093460481E08093152870
S11311308091480484FF05C0E4E0F8E286858F5F6F
S11311408687E4E0F8E282898150828B811102C0B3
S11311500E942C05CF9108951092022880910328B3
S11311608C3328F081E080930128109203280E9498
S1131170F70780931828809148048823A4F4809169
S1131180880480FD10C080E88093460480911A286A
S1131190813049F480911D2890911E28892B19F0E3
S11311A081E00E942F018091480486FF14C0809141
S11311B0880481FD10C080E48093460480911A283D
S11311C0813049F480911D2890911E28892B91F13A
S11311D081E00E942F018091480485FF14C0809112
S11311E0880482FD10C080E28093460480911A280E
S11311F0813049F480911D2890911E28892B11F18A
S113120081E00E942F0180911D2890911E28009753
S1131210C9F08531910540F080E00E94AA07109240
S11312201D2810921E280895019680931D289093DE
S11312301E2808958091480485FF04C08091880485
S113124082FFD1CF08959C01E0E6F0E0848D8E7F8B
S113125098ED94BF848F838186FF04C0000093813E
S113126096FDFCCFE0E6F0E0948D9B7F88ED84BF93
S1131270948F948D916084BF948F809141018823D1
S113128031F0E0E4F1E0000091819111FCCFE0E461
S1131290F1E02287338782E08783858181608583BB
S11312A081EB808382818160828308951F920F92F3
S11312B00FB60F9211248F939F9391E09093430163
S11312C0809103288F5F80930328909302289F9135
S11312D08F910F900FBE0F901F9018951092202899
S11312E01092212825E03DE0AC01429FC001439FBC
S11312F0900D529F900D1124E0E8FAE084879587C1
S113130081E08583808308951092800A08951F9256
S11313100F920FB60F9211248F939F9381E08093C5
S1131320860A809120289091212801968093202874
S1131330909321289F918F910F900FBE0F901F9033
S11313401895E0EAF8E08BE08683838181608383EB
S11313508581816085830895613029F4880F8160D7
S11313608093A70803C0880F8093A70881E090E0CA
S11313700E946E098091A508807CB9F48091202890
S1131380909121280B9748F4E0EAF8E00AC0809194
S11313902028909121280B9720F00E94840984E052
S11313A0089500008581807C91F30E9484098091D6
S11313B0A50882FD0BC08091A50883FD09C090910A
S11313C0A508892F807194FD05C0089583E00895D0
S11313D082E0089585E0089587E08093A408089545
S11313E09091A50896FD06C0E0EAF8E0000095811A
S11313F096FFFCCF8093A80881E090E00E946E09DC
S1131400E0EAF8E00BC000008091202890912128A8
S1131410C39720F00E94840984E00895858186FFA3
S1131420F2CF0E9484099091A508892F807194FDC0
S113143086E00895E0E0F4E081E085838183E0E0E4
S1131440F8E02DE635E02087318795819068958313
S113145096819064968396819068968310927528FD
S11314601092C928109274281092C82810927328D8
S11314708093C72808956093C9281092C8281092B1
S1131480C728662371F0A82FB92FE6E7F8E2615068
S1131490262F30E02958374D8D918193E217F307B9
S11314A0D9F7E0E0F8E08581806285830895AF9202
S11314B0BF92CF92DF92EF92FF920F931F93CF933D
S11314C0DF93CDB7DEB7C25AD109CDBFDEBF1092CC
S11314D0732885E0E4E2F5E6DE01119601900D92B1
S11314E08A95E1F78091480484FF0BC0FE01319690
S11314F001900020E9F731978FE490E08083918395
S11315000AC0FE01319601900020E9F7319783E487
S113151090E080839183DE0111960D900020E9F71D
S1131520119786E0E9E2F5E601900D928A95E1F7DC
S113153080911528882359F0FE01319601900020EE
S1131540E9F7319784E590E08083918319C0809115
S1131550480485FF0BC0FE01319601900020E9F795
S113156031978FE490E0808391830AC0FE01319625
S113157001900020E9F7319783E490E08083918320
S1131580DE0111960D900020E9F7119786E0EFE255
S1131590F5E601900D928A95E1F78DE090E00E94C6
S11315A07E1181110BC0FE01319601900020E9F7F4
S11315B0319784E490E08083918328C0809114283B
S11315C0882359F0FE01319601900020E9F7319704
S11315D084E590E08083918319C08091480486FF5C
S11315E00BC0FE01319601900020E9F731978FE49A
S11315F090E0808391830AC0FE013196019000201F
S1131600E9F7319783E490E080839183DE011196BA
S11316100D900020E9F7119786E0E5E3F5E60190E7
S11316200D928A95E1F78CE090E00E947E11811181
S11316300BC0FE01319601900020E9F7319784E454
S113164090E08083918328C080911328882359F0E7
S1131650FE01319601900020E9F7319784E590E08E
S11316608083918319C08091480488235CF4FE012F
S1131670319601900020E9F731978FE490E0808360
S113168091830AC0FE01319601900020E9F7319759
S113169083E490E0808391838E010F5F1F4FD80114
S11316A00D900020E9F7119786E0EBE3F5E6019051
S11316B00D928A95E1F78AE090E00E947E111F92D4
S11316C08F930F2EF1E4CF2EF5E6DF2EF02DDF926F
S11316D0CF927E0122E5E20EF11CFF92EF920E946E
S11316E0C70EB701C8010E94B50ED8010D900020A5
S11316F0E9F7119787E0E4E4F5E601900D928A9505
S1131700E1F70F2EF4E0AF2EF8E2BF2EF02DF50135
S113171082891F928F93DF92CF92FF92EF920E9461
S1131720C70EB701C8010E94B50ED8010D90002064
S1131730E9F7119786E0EBE4F5E601900D928A95BE
S1131740E1F78BE090E00E947E111F928F93DF926D
S1131750CF92FF92EF920E94C70EB701C8010E9478
S1131760B50ED8010D900020E9F7119787E0E1E567
S1131770F5E601900D928A95E1F7F50184891F92AF
S11317808F93DF92CF92FF92EF920E94C70EB70120
S1131790C8010E94B50EF80101900020E9F73197C5
S11317A08DE09AE080839183128284E690E00E9427
S11317B06E098091C728CDBFDEBF811113C080910F
S11317C02028909121280B97C8F4E7ECF8E206C092
S11317D080912028909121280B9780F4000080812B
S11317E08823B1F3CE010196FC0101900020E9F7B2
S11317F03197BF01681B790B0E943B0ACE55DF4F1E
S1131800CDBFDEBFDF91CF911F910F91FF90EF907D
S1131810DF90CF90BF90AF9008951F920F920FB6B4
S11318200F9211248F939F93AF93BF93EF93FF93E2
S113183080910008909175289135B0F48D3051F461
S1131840E0917528F0E0EE5DF74D108281E0809321
S113185073280AC0A5E7B8E2EC9191E09E0F9C932F
S1131860F0E0EE5DF74D8083FF91EF91BF91AF9172
S11318709F918F910F900FBE0F901F9018951F92FC
S11318800F920FB60F9211248F939F93AF93BF9330
S1131890CF93DF93EF93FF93C0E0D8E08D818F7DEA
S11318A08D83A8ECB8E2EC9181E08E0F8C93F0E08C
S11318B0EA58F74D80818A839091C9288C919813B6
S11318C004C081E08093C72805C0E0E0F8E085818A
S11318D080628583FF91EF91DF91CF91BF91AF91AA
S11318E09F918F910F900FBE0F901F901895E0E479
S11318F0F4E080EF8683818308955058BB27AA279C
S11319000E94950C0C94080E0E94FA0D38F00E9467
S1131910010E20F039F49F3F19F426F40C94F70DCE
S11319200EF4E095E7FB0C94F10DE92F0E94190EDB
S113193058F3BA17620773078407950720F079F400
S1131940A6F50C943B0E0EF4E0950B2EBA2FA02DA9
S11319500B01B90190010C01CA01A0011124FF2758
S1131960591B99F0593F50F4503E68F11A16F04053
S1131970A22F232F342F4427585FF3CF4695379552
S11319802795A795F0405395C9F77EF41F16BA0B17
S1131990620B730B840BBAF09150A1F0FF0FBB1FC5
S11319A0661F771F881FC2F70EC0BA0F621F731F0E
S11319B0841F48F4879577956795B795F7959E3F6B
S11319C008F0B0CF9395880F08F09927EE0F9795FC
S11319D0879508950E94CD0D08F481E008950E9432
S11319E0030D0C94080E0E94010E58F00E94FA0D8B
S11319F040F029F45F3F29F00C94F10D51110C943F
S1131A003C0E0C94F70D0E94190E68F39923B1F360
S1131A10552391F3951B550BBB27AA276217730710
S1131A20840738F09F5F5F4F220F331F441FAA1FA4
S1131A30A9F335D00E2E3AF0E0E832D09150504060
S1131A40E695001CCAF72BD0FE2F29D0660F771F0E
S1131A50881FBB1F261737074807AB07B0E809F0F4
S1131A60BB0B802DBF01FF2793585F4F3AF09E3F79
S1131A70510578F00C94F10D0C943C0E5F3FE4F3A7
S1131A80983ED4F3869577956795B795F7959F5FBC
S1131A90C9F7880F911D9695879597F90895E1E008
S1131AA0660F771F881FBB1F621773078407BA0767
S1131AB020F0621B730B840BBA0BEE1F88F7E095C2
S1131AC008950E94210E88F09F5798F0B92F992706
S1131AD0B751B0F0E1F0660F771F881F991F1AF015
S1131AE0BA95C9F714C0B13091F00E943B0EB1E031
S1131AF008950C943B0E672F782F8827B85F39F030
S1131B00B93FCCF3869577956795B395D9F73EF4AD
S1131B1090958095709561957F4F8F4F9F4F089555
S1131B20E89409C097FB3EF4909580957095619573
S1131B307F4F8F4F9F4F9923A9F0F92F96E9BB2729
S1131B409395F695879577956795B795F111F8CFA5
S1131B50FAF4BB0F11F460FF1BC06F5F7F4F8F4F10
S1131B609F4F16C0882311F096E911C0772321F006
S1131B709EE8872F762F05C0662371F096E8862F9E
S1131B8070E060E02AF09A95660F771F881FDAF7F5
S1131B90880F9695879597F90895990F0008550F22
S1131BA0AA0BE0E8FEEF16161706E807F907C0F0DF
S1131BB012161306E407F50798F0621B730B840BE7
S1131BC0950B39F40A2661F0232B242B252B21F4C1
S1131BD008950A2609F4A140A6958FEF811D811D61
S1131BE0089597F99F6780E870E060E008959FEF9B
S1131BF080EC089500240A941616170618060906A0
S1131C00089500240A94121613061406050608956E
S1131C10092E0394000C11F4882352F0BB0F40F4F6
S1131C20BF2B11F460FF04C06F5F7F4F8F4F9F4F36
S1131C30089557FD9058440F551F59F05F3F71F0B8
S1131C404795880F97FB991F61F09F3F79F087951F
S1131C500895121613061406551FF2CF4695F1DFA8
S1131C6008C0161617061806991FF1CF8695710538
S1131C70610508940895E894BB2766277727CB016C
S1131C8097F908950E94550E0C94080E0E94FA0DBF
S1131C9038F00E94010E20F0952311F00C94F10D00
S1131CA00C94F70D11240C943C0E0E94190E70F341
S1131CB0959FC1F3950F50E0551F629FF001729FED
S1131CC0BB27F00DB11D639FAA27F00DB11DAA1FFC
S1131CD0649F6627B00DA11D661F829F2227B00D49
S1131CE0A11D621F739FB00DA11D621F839FA00DD4
S1131CF0611D221F749F3327A00D611D231F849F24
S1131D00600D211D822F762F6A2F11249F5750407A
S1131D109AF0F1F088234AF0EE0FFF1FBB1F661FF5
S1131D20771F881F91505040A9F79E3F510580F0BE
S1131D300C94F10D0C943C0E5F3FE4F3983ED4F305
S1131D40869577956795B795F795E7959F5FC1F762
S1131D50FE2B880F911D9695879597F90895EE0FA0
S1131D60FF1F0590F491E02D0994FB01DC010D9017
S1131D700020E9F7119701900D920020E1F70895F2
S1131D80FB01DC0101900D920020E1F70895AEE023
S1131D90B0E0EDECFEE00C94C3110D891E8986E0E1
S1131DA08C8309831A838FEF9FE78D839E83AE0113
S1131DB0475E5F4F6F89788DCE0101960E94E90ED0
S1131DC0EF81F885E00FF11F10822E96E4E00C9469
S1131DD0DC11ABE0B0E0EFEEFEE00C94B5116C0169
S1131DE07B018A01FC0116821782838181FFCCC1A9
S1131DF0CE0101963C01F6019381F70193FD859193
S1131E0093FF81917F01882309F4BAC1853239F4A3
S1131E1093FD859193FF81917F01853229F4B60169
S1131E2090E00E94E010E7CF912C212C312CFFE1AF
S1131E30F315D8F08B3279F038F4803279F08332AC
S1131E40A1F4232D20611DC08D3261F0803369F42B
S1131E50232D216016C0832D8260382EE32DE4608B
S1131E603E2E2AC0F32DF8601DC037FC2DC020ED96
S1131E70280F2A3040F08E32B9F436FC81C1232D6C
S1131E802064322E19C036FE06C08AE0989E200DCA
S1131E901124922E11C0EAE02E9E200D1124222E30
S1131EA0F32DF0623F2E08C08C3621F4832D806818
S1131EB0382E02C0883641F4F70193FD859193FFD3
S1131EC081917F018111B3CF982F9F7D95549330D9
S1131ED028F40C5F1F4F9FE399830DC0833631F0C4
S1131EE0833771F0833509F059C021C0F80180812E
S1131EF089830E5F1F4F88248394912C530113C050
S1131F002801F2E04F0E511CF801A080B18036FE8A
S1131F1003C0692D70E002C06FEF7FEFC5010E941E
S1131F20D5104C018201F32DFF773F2E16C02801F6
S1131F3022E0420E511CF801A080B18036FE03C09D
S1131F40692D70E002C06FEF7FEFC5010E94CA10D7
S1131F504C01F32DF0683F2E820133FC1BC0822D0F
S1131F6090E088169906B0F4B60180E290E00E94F1
S1131F70E0102A94F4CFF50137FC859137FE819166
S1131F805F01B60190E00E94E01021102A9421E044
S1131F90821A91088114910471F7E8C0843611F013
S1131FA0893641F5F80137FE07C06081718182816D
S1131FB093810C5F1F4F08C060817181072E000C54
S1131FC0880B990B0E5F1F4FF32DFF763F2E97FF63
S1131FD009C090958095709561957F4F8F4F9F4F65
S1131FE0F0683F2E2AE030E0A3010E941C11882EE5
S1131FF0861845C0853731F4232D2F7EB22E2AE072
S113200030E025C0932D997FB92E8F36C1F018F496
S1132010883579F0B5C0803719F0883721F0B0C021
S1132020E92FE061BE2EB4FE0DC0FB2DF460BF2E7F
S113203009C034FE0AC0292F2660B22E06C028E04B
S113204030E005C020E130E002C020E132E0F801D8
S1132050B7FE07C060817181828193810C5F1F4F3D
S113206006C06081718180E090E00E5F1F4FA30184
S11320700E941C11882E8618FB2DFF773F2E36FEFA
S11320800DC0232D2E7FA22E891458F434FE0BC0CC
S113209032FC09C0832D8E7EA82E05C0B82CA32C3B
S11320A003C0B82C01C0B92CA4FE0FC0FE01E80D7A
S11320B0F11D8081803321F49A2D997EA92E09C0C7
S11320C0A2FE06C0B394B39404C08A2D867809F0A6
S11320D0B394A3FC11C0A0FE06C0B21488F4280C6B
S11320E0922C9B180EC0B21460F4B60180E290E00A
S11320F00E94E010B394F7CFB21418F42B1802C066
S1132100982C212CA4FE10C0B60180E390E00E941C
S1132110E010A2FE17C0A1FC03C088E790E002C053
S113212088E590E0B6010CC08A2D867859F0A1FEAE
S113213002C08BE201C080E2A7FC8DE2B60190E010
S11321400E94E010891438F4B60180E390E00E9404
S1132150E0109A94F7CF8A94F301E80DF11D808181
S1132160B60190E00E94E0108110F5CF222009F41E
S113217042CEB60180E290E00E94E0102A94F6CFAD
S1132180F6018681978102C08FEF9FEF2B96E2E1E3
S11321900C94CE11FC010590615070400110D8F7E9
S11321A0809590958E0F9F1F0895FC01615070409B
S11321B001900110D8F7809590958E0F9F1F089578
S11321C00F931F93CF93DF93FB01238121FD03C062
S11321D08FEF9FEF2CC022FF16C0468157812481C8
S11321E035814217530744F4A081B1819D012F5FCB
S11321F03F4F208331838C93268137812F5F3F4F5C
S11322002683378314C08B01EC01FB010084F18524
S1132210E02D0995892BE1F6D80116968D919C91B4
S11322201797019616968D939C931797CE01DF917D
S1132230CF911F910F910895FA01AA27283051F1E7
S1132240203181F1E8946F936E7F6E5F7F4F8F4FE3
S11322509F4FAF4FB1E03ED0B4E03CD0670F781F42
S1132260891F9A1FA11D680F791F8A1F911DA11D27
S11322706A0F711D811D911DA11D20D009F4689460
S11322803F912AE0269F11243019305D3193DEF608
S1132290CF010895462F4770405D4193B3E00FD0BE
S11322A0C9F7F6CF462F4F70405D4A3318F0495DA9
S11322B031FD4052419302D0A9F7EACFB4E0A6958C
S11322C09795879577956795BA95C9F700976105AE
S11322D0710508959B01AC010A2E06945795479504
S11322E037952795BA95C9F7620F731F841F951FF9
S11322F0A01D089560507C4E0C94E61103D080819B
S113230099270895FC01E050FC4E0895DC01A40FC8
S1132310B51F4150504048F0CB01840F951F2E91BA
S11323200E94971141505040D0F70895262F0E94E3
S113233082110080021619F00E94A21101970197E0
S11323400895262FAF93BF93E0E0F0E1328131FD91
S1132350FDCFDC01A050BC4E2C932DE924BF23E01B
S113236020830196BF91AF9108952F923F924F928F
S11323705F926F927F928F929F92AF92BF92CF9211
S1132380DF92EF92FF920F931F93CF93DF93CDB71A
S1132390DEB7CA1BDB0BCDBFDEBF09942A883988A0
S11323A048885F846E847D848C849B84AA84B984E9
S11323B0C884DF80EE80FD800C811B81AA81B981F5
S11323C0CE0FD11DCDBFDEBFED010895FB01DC01B1
S11323D002C001900D9241505040D8F70895F894EE
S10523E0FFCF29
S11323E2323032312D30382D32350020204C4E32ED
S11323F2204175746F66696C6C00535550204255C8
S1132402462052454420424C5500204F20200020B3
S113241243202000205420200020582020004E6514
S113242278742066696C6C20696E002564206D697D
S11324326E757465002564206D696E75746573002C
S113244246696C6C20696E74657276616C004D61CC
S113245278206F70656E2074696D65004C4E322071
S11324627072657373757265002564206B50610028
S1132472424C554520697320454E41424C45440027
S11324825075736820746F2064697361626C6500AF
S1132492426C75652069732044495341424C45445A
S11324A2005075736820746F20656E61626C6500FC
S11324B252454420697320454E41424C45440052E2
S11324C245442069732044495341424C45440064C5
S11324D2656661756C74006F76657272756E005014
S11324E275736820746F2073657420696E74760046
S11324F25075736820746F2073657420696E74005C
S11325025075736820746F20736574206D61786FE1
S113251200202020202020202020202020202020D5
S113252220005355502C002C4255462C002C524569
S1132532442C002C424C552C002C494E542C002582
S113254264002C4E4558542C002C4D41582C002C20
S1092552505245532C0019
S9030000FC
