:100000000C9458000C946A000C946A000C949209A9
:100010000C946A000C946A000C946A000C946A00B8
:100020000C946A000C946A000C946A000C946A00A8
:100030000C94C3090C946A000C946A000C946A0036
:100040000C946A000C94B90C0C94EB0C0C946A00A0
:100050000C946A000C946A000C946A000C946A0078
:100060000C9405060C946A000C946A000C946A00C7
:100070000C946A000C946A000C946A000C946A0058
:100080000C946A000C946A000C942F010C946A0082
:100090000C946A000C946A000C946A000C946A0038
:1000A0009C01BA019102C702FF023703580387037C
:1000B00011241FBECFEFCDBFDFE3DEBF28E2A0E0FB
:1000C000B8E201C01D92AA3CB207E1F70E94820685
:1000D0000C949B120C94000080E00E94DA0741E02F
:1000E0006AE375E680E00E946D0742E069E475E628
:1000F00080E00E946D070895809100288230D1F140
:1001000018F4813041F09AC0833009F462C0843021
:1001100009F487C093C080914804882324F480E8C0
:10012000809346048BC08CE090E00E942A128823C2
:1001300009F484C08091880480FF08C080E880931F
:100140004504E4E0F8E21386178678C080918804BD
:1001500080FD74C00E946C0024E588E594E1215084
:1001600080409040E1F700C000C080911A280E94B2
:100170008B0164C08091480486FF04C080E48093B2
:1001800046045CC08DE090E00E942A12882309F4A6
:1001900055C08091880481FF08C080E480934504A5
:1001A000E4E0F8E21486108A49C08091880481FD59
:1001B00045C00E946C0024E588E594E12150804010
:1001C0009040E1F700C000C080911A280E948B0186
:1001D00035C08091480485FF04C080E280934604C6
:1001E0002DC08091880482FF08C080E2809345047E
:1001F000E4E0F8E21586118A21C08091880482FD2E
:100200001DC00E946C0024E588E594E121508040E7
:100210009040E1F700C000C080911A280E948B0135
:100220000DC08091480484FF04C080E1809346049F
:1002300005C080E180934504109212281092002896
:1002400080911A28813011F40E948B010895E0E218
:10025000F4E08BE0828B838B808B818B08951F92DF
:100260000F920FB60F9211248F938091290482FF71
:1002700007C084E08093290481E08093002820C097
:100280008091290483FF07C088E08093290482E0DD
:100290008093002815C08091290480FF07C081E069
:1002A0008093290483E0809300280AC08091290468
:1002B00081FF06C082E08093290484E080930028B7
:1002C0008F910F900FBE0F901F9018954AE050E04D
:1002D00060E070E00E9426120895CF93DF93CDB7BF
:1002E000DEB72B97CDBFDEBF8BE0E9E5F5E6DE019B
:1002F000119601900D928A95E1F74AE050E060E096
:1003000070E0CE0101960E9432122B96CDBFDEBF67
:10031000DF91CF910895CF93DF93CDB7DEB7AA9742
:10032000CDBFDEBF90E08830910508F01FC2FC0110
:10033000E05BFF4F0C945B0F8FE0E4E6F5E6DE0137
:10034000119601900D928A95E1F784E098E20E945F
:10035000660180E290E28E8B9F8B80E290E0888F36
:10036000998F64E078E2CE0146960E94610F109268
:100370001A2810C280E1E3E7F5E6DE01119601904C
:100380000D928A95E1F78091480484FF0AC085E0C8
:10039000E3E8F5E6DE01569601900D928A95E1F7C5
:1003A00009C085E0E8E8F5E6DE01569601900D9279
:1003B0008A95E1F78091480485FF0EC0DE015696CC
:1003C0000D900020E9F7119785E0E3E8F5E601904C
:1003D0000D928A95E1F71FC080911528882371F04E
:1003E000DE0156960D900020E9F7119785E0EDE8C3
:1003F000F5E601900D928A95E1F70DC0DE01569663
:100400000D900020E9F7119785E0E8E8F5E6019006
:100410000D928A95E1F78DE090E00E942A128111F9
:100420000EC0DE0156960D900020E9F7119785E089
:10043000E2E9F5E601900D928A95E1F731C08091ED
:10044000480486FF0EC0DE0156960D900020E9F7A5
:10045000119785E0E3E8F5E601900D928A95E1F7C2
:100460001FC080911428882371F0DE0156960D90EC
:100470000020E9F7119785E0EDE8F5E601900D928F
:100480008A95E1F70DC0DE0156960D900020E9F740
:10049000119785E0E8E8F5E601900D928A95E1F77D
:1004A0008CE090E00E942A1281110CC0FE01769629
:1004B00001900020E9F7319780E298E580839183ED
:1004C00012822BC080914804882364F4FE01769642
:1004D00001900020E9F7319780E29FE480839183C7
:1004E00012821BC080911328882361F0FE0176964A
:1004F00001900020E9F7319780E294E580839183B1
:1005000012820BC0FE01769601900020E9F7319728
:1005100080E293E480839183128281E080931A28A1
:1005200039C18DE0E7E9F5E6DE01119601900D9203
:100530008A95E1F780911628823098F41F928F9364
:1005400084EA95E69F938F93CE0146969F938F936F
:100550000E94730F0F900F900F900F900F900F90BD
:1005600012C01F928F938EEA95E69F938F93CE01D0
:1005700046969F938F930E94730F0F900F900F904A
:100580000F900F900F9082E080931A2803C18EE0A5
:10059000E9EBF5E6DE01119601900D928A95E1F7FF
:1005A0008AE090E00E942A12813099F41F928F9382
:1005B00084EA95E69F938F93CE0146969F938F93FF
:1005C0000E94730F0F900F900F900F900F900F904D
:1005D00012C01F928F938EEA95E69F938F93CE0160
:1005E00046969F938F930E94730F0F900F900F90DA
:1005F0000F900F900F9083E080931A28CBC08EE06D
:10060000E7ECF5E6DE01119601900D928A95E1F78F
:100610008BE090E00E942A12823098F41F928F9310
:1006200084EA95E69F938F93CE0146969F938F938E
:100630000E94730F0F900F900F900F900F900F90DC
:1006400012C01F928F938EEA95E69F938F93CE01EF
:1006500046969F938F930E94730F0F900F900F9069
:100660000F900F900F9084E080931A2893C08DE034
:10067000E5EDF5E6DE01119601900D928A95E1F720
:10068000809118281F928F9382EE95E69F938F9307
:10069000CE0146969F938F930E94730F85E08093BF
:1006A0001A280F900F900F900F900F900F9072C01C
:1006B0008CE090E00E942A12882399F080E1E9EE14
:1006C000F5E6DE01119601900D928A95E1F780E141
:1006D000E9EFF5E6DE01569601900D928A95E1F775
:1006E00012C081E1E9E0F6E6DE01119601900D927B
:1006F0008A95E1F78FE0EAE1F6E6DE015696019091
:100700000D928A95E1F786E080931A2843C08DE028
:1007100090E00E942A12882399F08FE0E9E2F6E641
:10072000DE01119601900D928A95E1F780E1E9EFE3
:10073000F5E6DE01569601900D928A95E1F712C01A
:1007400080E1E8E3F6E6DE01119601900D928A95CC
:10075000E1F78FE0EAE1F6E6DE01569601900D92B0
:100760008A95E1F787E080931A2814C088E0E8E4CE
:10077000F6E6DE01119601900D928A95E1F788E088
:10078000E0E5F6E6DE01569601900D928A95E1F7D6
:1007900010921A2841E0BE016F5F7F4F80E00E94F7
:1007A0006D0742E0BE016A5E7F4F80E00E946D07E8
:1007B000AA96CDBFDEBFDF91CF9108958CE090E087
:1007C0000E942A1261E0811160E08CE090E00E94BA
:1007D00042121092192886E00E948B0108958DE044
:1007E00090E00E942A1261E0811160E08DE090E0CB
:1007F0000E9442121092192887E00E948B010895EE
:10080000EF92FF920F931F93CF93DF93CDB7DEB795
:100810006597CDBFDEBF8AE090E00E942A128093E8
:100820001B2880911B288130A9F480911B281F92DE
:100830008F9384EA95E69F938F93CE0101969F93C1
:100840008F930E94730F0F900F900F900F900F9047
:100850000F9014C080911B281F928F938EEA95E60B
:100860009F938F93CE0101969F938F930E94730F56
:100870000F900F900F900F900F900F9041E068E550
:1008800076E680E00E946D0742E0BE016F5F7F4F19
:1008900080E00E946D070F2EFEEFEF2EF02D689482
:1008A000FF24F1F80EEA15E632C08091192887304E
:1008B00071F580911B28823018F4F0921B2806C035
:1008C00080911B288F3F11F4E0921B2880911B28F8
:1008D0001F928F931F930F9381E090E08C0F9D1FC9
:1008E0009F938F930E94730F41E069E676E680E064
:1008F0000E946D074F2DBE016F5F7F4F80E00E9409
:100900006D070F900F900F900F900F900F908091A8
:100910001928853051F61092192860911B288AE019
:1009200090E00E9442128BE090E00E942A12182F61
:100930008AE090E00E942A12181730F06FEF680FDB
:100940008BE090E00E94421283E00E948B0165964A
:10095000CDBFDEBFDF91CF911F910F91FF90EF9040
:100960000895CF92DF92EF92FF920F931F93CF9350
:10097000DF93CDB7DEB76597CDBFDEBF8BE090E0EC
:100980000E942A1280931B2880911B288130A9F491
:1009900080911B281F928F9384EA95E69F938F93F3
:1009A000CE0101969F938F930E94730F0F900F902B
:1009B0000F900F900F900F9014C080911B281F92E2
:1009C0008F938EEA95E69F938F93CE0101969F9326
:1009D0008F930E94730F0F900F900F900F900F90B6
:1009E0000F9041E069E776E680E00E946D0742E003
:1009F000BE016F5F7F4F80E00E946D070EEF11E038
:100A00000F2EFEEAEF2EF5E6FF2EF02D0F2EF4EA64
:100A1000CF2EF5E6DF2EF02D57C0809119288730B4
:100A200009F052C080911B28811103C010931B282C
:100A300006C080911B288F3F11F400931B288AE089
:100A400090E00E942A1290911B28981718F081506C
:100A500080931B2880911B288130A9F480911B284A
:100A60001F928F93DF92CF9281E090E08C0F9D1FB9
:100A70009F938F930E94730F0F900F900F900F9082
:100A80000F900F9014C080911B281F928F93FF929C
:100A9000EF9281E090E08C0F9D1F9F938F930E94B7
:100AA000730F0F900F900F900F900F900F90412F9A
:100AB00069E776E680E00E946D0742E0BE016F5F65
:100AC0007F4F80E00E946D0780911928853009F0E2
:100AD000A4CF1092192860911B288BE090E00E940F
:100AE000421284E00E948B016596CDBFDEBFDF918C
:100AF000CF911F910F91FF90EF90DF90CF900895CD
:100B0000E0E4F4E08BE0838B98E0928B818B089596
:100B10008CE090E00E942A12882379F080914804AA
:100B200088235CF08091880480FF07C080E8809370
:100B30004504E4E0F8E2138617868DE090E00E9419
:100B40002A12882379F08091480486FD0BC0809199
:100B5000880481FF07C080E480934504E4E0F8E264
:100B60001486108A80911A28813011F40E948B011A
:100B70008AE090E00E942A128093162808958091BE
:100B80001F28882329F080911A280E948B0108953C
:100B9000809119288730A9F41092192880911A2879
:100BA00090911C28890F80931A2880911A2880918F
:100BB0001A28877080931A2880911A280E948B0126
:100BC0000895809119288530F9F4109219288091A0
:100BD0001A28843089F028F4823041F0833049F0BB
:100BE0000895863061F0873069F008950E94880585
:100BF00008950E94000408950E94B10408950E947F
:100C0000DE0308950E94EF0308951F920F920FB61E
:100C10000F9211248F93EF93FF938091490481FFEA
:100C200007C082E08093490485E0809319281FC0A3
:100C30008091490483FF1BC0E0E4F4E088E08187F1
:100C4000808582FF09C080911B288F5F80931B28BD
:100C500081E080931C2808C080911B2881508093DC
:100C60001B288FEF80931C2887E080931928FF9121
:100C7000EF918F910F900FBE0F901F901895CF930B
:100C8000DF938AE090E00E942A12C4E0D8E28A8BC7
:100C90001B861C861D861E861F86188A198A0E943E
:100CA00027088C8BDF91CF910895E0E6F4E084E093
:100CB000808B818B828B838B848B858B868B878BC0
:100CC000089510920128109203280E9455060E9450
:100CD000230D0E94560A0E9427010E9480050E944F
:100CE000DD098FEF91E00E945F090E94FB070E94DF
:100CF0003F0680E00E94B3060E946D0180E00E94E2
:100D00008B0108950E9461067894C3E7D8E2809130
:100D1000002881110E947C008091192881110E9475
:100D2000BF058091012881110E94960880910228B8
:100D300081110E94E8088881882349F30E94930A60
:100D4000E6CFCF93DF93D62FC42F60E00E94E8094F
:100D50008D2F0E942C0A8C2F0E942C0A0E94280A98
:100D6000DF91CF910895CF93E0E0F4E090E896838F
:100D70009183A6E4B0E11197F1F700C09583882331
:100D800011F0CDE301C0CCE34AE260E08C2F0E9479
:100D9000A10641E760E08C2F0E94A1064CE560E4CB
:100DA0008C2F0E94A10648E260E08C2F0E94A106D1
:100DB00048E060E08C2F0E94A1064AE260E08C2FA0
:100DC0000E94A10649E760E08C2F0E94A10645ED34
:100DD00060E08C2F0E94A10640E760E08C2F0E940B
:100DE000A10648E760E08C2F0E94A10648E060E081
:100DF0008C2F0E94A10646E060E08C2F0E94A10685
:100E000042E760E08C2F0E94A10640E060E48C2F56
:100E10000E94A1064AE260E08C2F0E94A10649E7E9
:100E200060E08C2F0E94A1064AED60E08C2F0E94AA
:100E3000A10640E060E08C2F0E94A1064CED60E02E
:100E40008C2F0E94A10640E060E08C2F0E94A1063A
:100E500041E860E08C2F0E94A1064FE760E08C2FF4
:100E60000E94A10649ED60E08C2F0E94A10641EF8F
:100E700060E08C2F0E94A1064BED60E08C2F0E9459
:100E8000A10640E460E08C2F0E94A10648E760E0E4
:100E90008C2F0E94A10648E260E08C2F0E94A106E0
:100EA00041E060E08C2F0E94A10640E860E08C2FBA
:100EB0000E94A1064CE060E08C2F0E94A106BAE6D9
:100EC00024E081E0B15020408040E1F700C0109262
:100ED0001D2810921E28CF910895CF92DF92FF9285
:100EE0000F931F93CF93DF93CDB7DEB7E297CDBFBC
:100EF000DEBFD42E91E1EAE8F6E6DE01929601909B
:100F00000D929A95E1F7882329F00F2EFDE3FF2E2D
:100F1000F02D04C00F2EFCE3FF2EF02D8E010F5F8D
:100F20001F4FC8010E946C0FF80101900020E9F7E3
:100F30003197E01BF10B719708F0198ABE016E5DC5
:100F40007F4FCE0101960E94610F81E0D81206C04A
:100F500040E860E08F2D0E94A10619C040EC60E0DF
:100F60008F2D0E94A10613C0F80141918F0160E40A
:100F70008F2D0E94A1060C151D05B1F781E090E0B0
:100F800080931D2890931E2810921F2808C08E0160
:100F90000F5F1F4F6E01F1E1CF0ED11CE5CFE2963E
:100FA000CDBFDEBFDF91CF911F910F91FF90DF90FA
:100FB000CF9008951F93CF93DF931F92CDB7DEB7E5
:100FC000182F198241E0BE016F5F7F4F0E946D07AD
:100FD00042E0BE016F5F7F4F812F0E946D0710922C
:100FE0001D2810921E2881E080931F280F90DF910A
:100FF000CF911F91089584E080937004E0E0F6E0C3
:10100000808184608083A0EAB0E08C9180638C93BF
:10101000A2E0B6E08C918C938C9180648C931092BA
:101020000606808181608083E8E0F6E0808181604F
:101030008083808180FF04C00000808180FDFCCF20
:101040008091100690911106109218280895BF9271
:10105000CF92DF92EF92FF920F931F93CF93DF9384
:101060000F2EFAE0BF2EF02DC12CD12C7601C8E056
:10107000D6E000E116E0888181608883888180FF66
:1010800004C00000888180FDFCCFF801608170E021
:1010900080E090E00E943C0E9B01AC01C701B601CC
:1010A0000E942A0D6B017C01BA94B110E4CF20E0BC
:1010B00030E040E251E40E949B0D2EE53AEB49E519
:1010C0005FE30E94EE0E2FE135E845EC51E40E940B
:1010D000290D6B017C0120E030E0A9010E94960DF2
:1010E00088231CF4C12CD12C760180911F288111FA
:1010F00008C080911A28853021F480911A280E9416
:101100008B0120E030E040E05FE3C701B6010E94C0
:101110002A0D0E940D0E862FDF91CF911F910F9106
:10112000FF90EF90DF90CF90BF900895CF931092F3
:1011300001288091480488238CF4E4E0F8E2C38518
:10114000CF5FC3878BE090E00E942A12C81730F06F
:1011500080E88093460481E08093132880914804BE
:1011600086FF11C0E4E0F8E2C485CF5FC4878BE05E
:1011700090E00E942A12C81730F080E48093460461
:1011800081E0809314288091480485FF0DC0E4E03D
:10119000F8E285858F5F8587883730F080E280931D
:1011A000460481E0809315288091480484FF05C09F
:1011B000E4E0F8E286858F5F8687E4E0F8E28289E2
:1011C0008150828B811102C00E948805CF910895C1
:1011D00010920228809103288C3328F081E08093BC
:1011E0000128109203280E942708809318288091D4
:1011F00048048823A4F48091880480FD10C080E80E
:101200008093460480911A28813049F480911D28EA
:1012100090911E28892B19F081E00E948B0180910A
:10122000480486FF14C08091880481FD10C080E4CA
:101230008093460480911A28813049F480911D28BA
:1012400090911E28892B91F181E00E948B01809161
:10125000480485FF14C08091880482FD10C080E29C
:101260008093460480911A28813049F480911D288A
:1012700090911E28892B11F181E00E948B018091B1
:101280001D2890911E280097C9F08B30910540F0E1
:1012900080E00E94DA0710921D2810921E280895FF
:1012A000019680931D2890931E28089580914804EC
:1012B00085FF04C08091880482FFD1CF08959C01EE
:1012C000E0E6F0E0848D8E7F98ED94BF848F83817B
:1012D00086FF04C00000938196FDFCCFE0E6F0E0BD
:1012E000948D9B7F88ED84BF948F948D916084BF93
:1012F000948F80914101882331F0E0E4F1E0000017
:1013000091819111FCCFE0E4F1E02287338782E004
:10131000878385818160858381EB80838281816081
:10132000828308951F920F920FB60F9211248F930C
:101330009F9391E090934301809103288F5F809366
:101340000328909302289F918F910F900FBE0F90CA
:101350001F901895109220281092212825E03DE03A
:10136000AC01429FC001439F900D529F900D1124EC
:10137000E0E8FAE08487958781E08583808308959B
:101380001092800A08951F920F920FB60F921124A7
:101390008F939F9381E08093860A8091202890917B
:1013A0002128019680932028909321289F918F9146
:1013B0000F900FBE0F901F901895E0EAF8E08BE0B9
:1013C000868383818160838385818160858308959D
:1013D000613029F4880F81608093A70803C0880FCB
:1013E0008093A70881E090E00E94AA098091A50857
:1013F000807CB9F480912028909121280B9748F4A3
:10140000E0EAF8E00AC080912028909121280B970B
:1014100020F00E94C00984E0089500008581807C4E
:1014200091F30E94C0098091A50882FD0BC08091B4
:10143000A50883FD09C09091A508892F807194FDAE
:1014400005C0089583E0089582E0089585E0089539
:1014500087E08093A40808959091A50896FD06C0A2
:10146000E0EAF8E00000958196FFFCCF8093A808A1
:1014700081E090E00E94AA09E0EAF8E00BC00000D9
:101480008091202890912128C39720F00E94C009C4
:1014900084E00895858186FFF2CF0E94C009909173
:1014A000A508892F807194FD86E00895E0E0F4E0BE
:1014B00081E085838183E0E0F8E02DE635E0208758
:1014C0003187958190689583968190649683968103
:1014D00090689683109275281092C92810927428EB
:1014E0001092C828109273288093C728089560939B
:1014F000C9281092C8281092C728662371F0A82F17
:10150000B92FE6E7F8E26150262F30E02958374D31
:101510008D918193E217F307D9F7E0E0F8E0858138
:10152000806285830895AF92BF92CF92DF92EF924F
:10153000FF920F931F93CF93DF93CDB7DEB7C25ABD
:10154000D109CDBFDEBF1092732885E0EBE9F6E646
:10155000DE01119601900D928A95E1F78091480481
:1015600084FF0BC0FE01319601900020E9F731970E
:101570008FE490E0808391830AC0FE013196019050
:101580000020E9F7319783E490E080839183DE01C6
:1015900011960D900020E9F7119786E0E0EAF6E653
:1015A00001900D928A95E1F780911528882359F0D2
:1015B000FE01319601900020E9F7319784E590E033
:1015C0008083918319C08091480485FF0BC0FE0180
:1015D000319601900020E9F731978FE490E0808305
:1015E00091830AC0FE01319601900020E9F73197FE
:1015F00083E490E080839183DE0111960D900020BA
:10160000E9F7119786E0E6EAF6E601900D928A95F1
:10161000E1F78DE090E00E942A1281110BC0FE01DB
:10162000319601900020E9F7319788E590E08083BA
:10163000918328C080911428882359F0FE013196A7
:1016400001900020E9F7319784E590E08083918351
:1016500019C08091480486FF0BC0FE0131960190AD
:101660000020E9F731978FE490E0808391830AC0EE
:10167000FE01319601900020E9F7319783E490E074
:1016800080839183DE0111960D900020E9F7119778
:1016900086E0ECEAF6E601900D928A95E1F78CE09F
:1016A00090E00E942A1281110BC0FE013196019038
:1016B0000020E9F7319788E590E08083918328C086
:1016C00080911328882359F0FE0131960190002063
:1016D000E9F7319784E590E08083918319C0809188
:1016E000480488235CF4FE01319601900020E9F75C
:1016F00031978FE490E0808391830AC0FE01319698
:1017000001900020E9F7319783E490E08083918392
:101710008E010F5F1F4FD8010D900020E9F7119740
:1017200086E0E2EBF6E601900D928A95E1F78AE019
:1017300090E00E942A121F928F930F2EF8EBCF2E6B
:10174000F6E6DF2EF02DDF92CF927E0122E5E20E4B
:10175000F11CFF92EF920E94730FB701C8010E9423
:10176000610FD8010D900020E9F7119787E0EBEBAE
:10177000F6E601900D928A95E1F70F2EF4E0AF2E78
:10178000F8E2BF2EF02DF50182891F928F93DF9230
:10179000CF92FF92EF920E94730FB701C8010E948F
:1017A000610FD8010D900020E9F7119786E0E2EC77
:1017B000F6E601900D928A95E1F78BE090E00E94A9
:1017C0002A121F928F93DF92CF92FF92EF920E9484
:1017D000730FB701C8010E94610FD8010D9000205E
:1017E000E9F7119787E0E8ECF6E601900D928A950B
:1017F000E1F7F50184891F928F93DF92CF92FF92D8
:10180000EF920E94730FB701C8010E94610FD801C7
:101810000D900020E9F7119787E0EFECF6E60190D4
:101820000D928A95E1F780918804CDBFDEBF82FFDB
:101830000AC0F80101900020E9F7319788E490E0B0
:10184000808391830AC0FE01319601900020E9F760
:10185000319783E490E080839183DE0111960D90AF
:101860000020E9F7119787E0E6EDF6E601900D928A
:101870008A95E1F78091880481FF0BC0FE013196C3
:1018800001900020E9F7319788E490E0808391830C
:101890000AC0FE01319601900020E9F7319783E4F8
:1018A00090E080839183DE0111960D900020E9F78E
:1018B000119787E0EDEDF6E601900D928A95E1F73C
:1018C0008091880480FF0BC0FE01319601900020BA
:1018D000E9F7319788E490E0808391830AC0FE01A4
:1018E000319601900020E9F7319783E490E08083FE
:1018F0009183FE01319601900020E9F731978DE048
:1019000090E08083918384E690E00E94AA09809110
:10191000C728811113C080912028909121280B970E
:10192000C8F4E7ECF8E206C08091202890912128C5
:101930000B9780F4000080818823B1F3CE010196DB
:10194000FC0101900020E9F73197BF01681B790B7A
:101950000E94770ACE55DF4FCDBFDEBFDF91CF911A
:101960001F910F91FF90EF90DF90CF90BF90AF90BD
:1019700008951F920F920FB60F9211248F939F9389
:10198000AF93BF93EF93FF938091000890917528D8
:101990009135B0F48D3051F4E0917528F0E0EE5DB2
:1019A000F74D108281E0809373280AC0A5E7B8E262
:1019B000EC9191E09E0F9C93F0E0EE5DF74D8083FB
:1019C000FF91EF91BF91AF919F918F910F900FBEBB
:1019D0000F901F9018951F920F920FB60F9211241F
:1019E0008F939F93AF93BF93CF93DF93EF93FF9327
:1019F000C0E0D8E08D818F7D8D83A8ECB8E2EC91BA
:101A000081E08E0F8C93F0E0EA58F74D80818A8355
:101A10009091C9288C91981304C081E08093C728C5
:101A200005C0E0E0F8E0858180628583FF91EF9159
:101A3000DF91CF91BF91AF919F918F910F900FBE8A
:101A40000F901F901895E0E4F4E080EF8683818387
:101A500008955058BB27AA270E94410D0C94B40E3C
:101A60000E94A60E38F00E94AD0E20F039F49F3F80
:101A700019F426F40C94A30E0EF4E095E7FB0C94F5
:101A80009D0EE92F0E94C50E58F3BA17620773071F
:101A90008407950720F079F4A6F50C94E70E0EF470
:101AA000E0950B2EBA2FA02D0B01B90190010C016E
:101AB000CA01A0011124FF27591B99F0593F50F486
:101AC000503E68F11A16F040A22F232F342F4427DE
:101AD000585FF3CF469537952795A795F0405395D6
:101AE000C9F77EF41F16BA0B620B730B840BBAF0A6
:101AF0009150A1F0FF0FBB1F661F771F881FC2F711
:101B00000EC0BA0F621F731F841F48F48795779524
:101B10006795B795F7959E3F08F0B0CF9395880FDE
:101B200008F09927EE0F9795879508950E94790EF2
:101B300008F481E008950E94AF0D0C94B40E0E9449
:101B4000AD0E58F00E94A60E40F029F45F3F29F038
:101B50000C949D0E51110C94E80E0C94A30E0E944F
:101B6000C50E68F39923B1F3552391F3951B550BDB
:101B7000BB27AA2762177307840738F09F5F5F4F60
:101B8000220F331F441FAA1FA9F335D00E2E3AF09F
:101B9000E0E832D091505040E695001CCAF72BD0B7
:101BA000FE2F29D0660F771F881FBB1F2617370708
:101BB0004807AB07B0E809F0BB0B802DBF01FF273A
:101BC00093585F4F3AF09E3F510578F00C949D0E6C
:101BD0000C94E80E5F3FE4F3983ED4F38695779536
:101BE0006795B795F7959F5FC9F7880F911D9695F3
:101BF000879597F90895E1E0660F771F881FBB1F4F
:101C0000621773078407BA0720F0621B730B840BFB
:101C1000BA0BEE1F88F7E09508950E94CD0E88F06C
:101C20009F5798F0B92F9927B751B0F0E1F0660FA0
:101C3000771F881F991F1AF0BA95C9F714C0B130E1
:101C400091F00E94E70EB1E008950C94E70E672F23
:101C5000782F8827B85F39F0B93FCCF38695779510
:101C60006795B395D9F73EF49095809570956195F9
:101C70007F4F8F4F9F4F0895E89409C097FB3EF424
:101C800090958095709561957F4F8F4F9F4F9923C9
:101C9000A9F0F92F96E9BB279395F6958795779547
:101CA0006795B795F111F8CFFAF4BB0F11F460FF07
:101CB0001BC06F5F7F4F8F4F9F4F16C0882311F05F
:101CC00096E911C0772321F09EE8872F762F05C073
:101CD000662371F096E8862F70E060E02AF09A950E
:101CE000660F771F881FDAF7880F9695879597F903
:101CF0000895990F0008550FAA0BE0E8FEEF16169D
:101D00001706E807F907C0F012161306E407F507EF
:101D100098F0621B730B840B950B39F40A2661F063
:101D2000232B242B252B21F408950A2609F4A14006
:101D3000A6958FEF811D811D089597F99F6780E813
:101D400070E060E008959FEF80EC089500240A940D
:101D50001616170618060906089500240A94121686
:101D60001306140605060895092E0394000C11F4B9
:101D7000882352F0BB0F40F4BF2B11F460FF04C066
:101D80006F5F7F4F8F4F9F4F089557FD9058440FBF
:101D9000551F59F05F3F71F04795880F97FB991FCA
:101DA00061F09F3F79F08795089512161306140687
:101DB000551FF2CF4695F1DF08C016161706180614
:101DC000991FF1CF86957105610508940895E894EF
:101DD000BB2766277727CB0197F908950E94010F4B
:101DE0000C94B40E0E94A60E38F00E94AD0E20F0A6
:101DF000952311F00C949D0E0C94A30E11240C94B9
:101E0000E80E0E94C50E70F3959FC1F3950F50E048
:101E1000551F629FF001729FBB27F00DB11D639F9C
:101E2000AA27F00DB11DAA1F649F6627B00DA11D42
:101E3000661F829F2227B00DA11D621F739FB00DE8
:101E4000A11D621F839FA00D611D221F749F332758
:101E5000A00D611D231F849F600D211D822F762FF1
:101E60006A2F11249F5750409AF0F1F088234AF0CE
:101E7000EE0FFF1FBB1F661F771F881F915050403A
:101E8000A9F79E3F510580F00C949D0E0C94E80E2E
:101E90005F3FE4F3983ED4F3869577956795B795C1
:101EA000F795E7959F5FC1F7FE2B880F911D9695DB
:101EB000879597F90895EE0FFF1F0590F491E02D97
:101EC0000994FB01DC010D900020E9F711970190C6
:101ED0000D920020E1F70895FB01DC0101900D92C5
:101EE0000020E1F70895AEE0B0E0E9E7FFE00C94F0
:101EF0006F120D891E8986E08C8309831A838FEF08
:101F00009FE78D839E83AE01475E5F4F6F89788D1B
:101F1000CE0101960E94950FEF81F885E00FF11F29
:101F200010822E96E4E00C948812ABE0B0E0EBE96E
:101F3000FFE00C9461126C017B018A01FC011682A6
:101F40001782838181FFCCC1CE0101963C01F6014D
:101F50009381F70193FD859193FF81917F01882300
:101F600009F4BAC1853239F493FD859193FF8191CB
:101F70007F01853229F4B60190E00E948C11E7CFF1
:101F8000912C212C312CFFE1F315D8F08B3279F014
:101F900038F4803279F08332A1F4232D20611DC002
:101FA0008D3261F0803369F4232D216016C0832DBA
:101FB0008260382EE32DE4603E2E2AC0F32DF860B7
:101FC0001DC037FC2DC020ED280F2A3040F08E3286
:101FD000B9F436FC81C1232D2064322E19C036FE9F
:101FE00006C08AE0989E200D1124922E11C0EAE0CE
:101FF0002E9E200D1124222EF32DF0623F2E08C0BC
:102000008C3621F4832D8068382E02C0883641F446
:10201000F70193FD859193FF81917F018111B3CFEA
:10202000982F9F7D9554933028F40C5F1F4F9FE3AA
:1020300099830DC0833631F0833771F0833509F011
:1020400059C021C0F801808189830E5F1F4F882409
:102050008394912C530113C02801F2E04F0E511CC0
:10206000F801A080B18036FE03C0692D70E002C087
:102070006FEF7FEFC5010E9481114C018201F32DAA
:10208000FF773F2E16C0280122E0420E511CF801B6
:10209000A080B18036FE03C0692D70E002C06FEFF2
:1020A0007FEFC5010E9476114C01F32DF0683F2EA1
:1020B000820133FC1BC0822D90E088169906B0F493
:1020C000B60180E290E00E948C112A94F4CFF501D1
:1020D00037FC859137FE81915F01B60190E00E9447
:1020E0008C1121102A9421E0821A91088114910404
:1020F00071F7E8C0843611F0893641F5F80137FEF2
:1021000007C060817181828193810C5F1F4F08C07D
:1021100060817181072E000C880B990B0E5F1F4F99
:10212000F32DFF763F2E97FF09C09095809570950F
:1021300061957F4F8F4F9F4FF0683F2E2AE030E030
:10214000A3010E94C811882E861845C0853731F436
:10215000232D2F7EB22E2AE030E025C0932D997FCB
:10216000B92E8F36C1F018F4883579F0B5C08037B4
:1021700019F0883721F0B0C0E92FE061BE2EB4FE1F
:102180000DC0FB2DF460BF2E09C034FE0AC0292FFC
:102190002660B22E06C028E030E005C020E130E025
:1021A00002C020E132E0F801B7FE07C06081718112
:1021B000828193810C5F1F4F06C06081718180E036
:1021C00090E00E5F1F4FA3010E94C811882E861851
:1021D000FB2DFF773F2E36FE0DC0232D2E7FA22E26
:1021E000891458F434FE0BC032FC09C0832D8E7E56
:1021F000A82E05C0B82CA32C03C0B82C01C0B92C44
:10220000A4FE0FC0FE01E80DF11D8081803321F492
:102210009A2D997EA92E09C0A2FE06C0B394B3944C
:1022200004C08A2D867809F0B394A3FC11C0A0FEE7
:1022300006C0B21488F4280C922C9B180EC0B2145D
:1022400060F4B60180E290E00E948C11B394F7CF65
:10225000B21418F42B1802C0982C212CA4FE10C024
:10226000B60180E390E00E948C11A2FE17C0A1FC91
:1022700003C088E790E002C088E590E0B6010CC09A
:102280008A2D867859F0A1FE02C08BE201C080E25F
:10229000A7FC8DE2B60190E00E948C11891438F4FD
:1022A000B60180E390E00E948C119A94F7CF8A9453
:1022B000F301E80DF11D8081B60190E00E948C11C0
:1022C0008110F5CF222009F442CEB60180E290E0E1
:1022D0000E948C112A94F6CFF6018681978102C064
:1022E0008FEF9FEF2B96E2E10C947A12FC010590A0
:1022F000615070400110D8F7809590958E0F9F1F08
:102300000895FC016150704001900110D8F780954C
:1023100090958E0F9F1F08950F931F93CF93DF9378
:10232000FB01238121FD03C08FEF9FEF2CC022FF13
:1023300016C046815781248135814217530744F4E2
:10234000A081B1819D012F5F3F4F208331838C930A
:10235000268137812F5F3F4F2683378314C08B013F
:10236000EC01FB010084F185E02D0995892BE1F654
:10237000D80116968D919C911797019616968D937C
:102380009C931797CE01DF91CF911F910F910895E4
:10239000FA01AA27283051F1203181F1E8946F9396
:1023A0006E7F6E5F7F4F8F4F9F4FAF4FB1E03ED03C
:1023B000B4E03CD0670F781F891F9A1FA11D680FDA
:1023C000791F8A1F911DA11D6A0F711D811D911D0D
:1023D000A11D20D009F468943F912AE0269F112482
:1023E0003019305D3193DEF6CF010895462F4770E6
:1023F000405D4193B3E00FD0C9F7F6CF462F4F7041
:10240000405D4A3318F0495D31FD4052419302D09E
:10241000A9F7EACFB4E0A695979587957795679544
:10242000BA95C9F700976105710508959B01AC0144
:102430000A2E06945795479537952795BA95C9F76B
:10244000620F731F841F951FA01D089560507C4E5E
:102450000C94921203D0808199270895FC01E050DA
:10246000FC4E0895DC01A40FB51F4150504048F0C8
:10247000CB01840F951F2E910E9443124150504072
:10248000D0F70895262F0E942E120080021619F010
:102490000E944E12019701970895262FAF93BF9384
:1024A000E0E0F0E1328131FDFDCFDC01A050BC4E17
:1024B0002C932DE924BF23E020830196BF91AF9197
:1024C00008952F923F924F925F926F927F928F92D8
:1024D0009F92AF92BF92CF92DF92EF92FF920F93B3
:1024E0001F93CF93DF93CDB7DEB7CA1BDB0BCDBFF6
:1024F000DEBF09942A88398848885F846E847D8489
:102500008C849B84AA84B984C884DF80EE80FD809B
:102510000C811B81AA81B981CE0FD11DCDBFDEBF39
:10252000ED010895FB01DC0102C001900D924150C4
:0A2530005040D8F70895F894FFCF4B
:10253A0053656E736F7220636F6C64206F720063F1
:10254A0061626C6520756E706C75676765640032D0
:10255A003032312D30392D30320020204C4E32208D
:10256A004175746F66696C6C00535550204255462C
:10257A002052454420424C5500204F202000204341
:10258A00202000205420200020582020004E65786A
:10259A00742066696C6C20696E002564206D696E12
:1025AA00757465002564206D696E757465730046DF
:1025BA00696C6C20696E74657276616C004D617825
:1025CA00206F70656E2074696D65004C4E32207004
:1025DA0072657373757265002564206B50610042E1
:1025EA004C554520697320454E41424C45440050A4
:1025FA0075736820746F2064697361626C65004248
:10260A006C75652069732044495341424C45440026
:10261A005075736820746F20656E61626C65005234
:10262A00454420697320454E41424C454400524579
:10263A00442069732044495341424C45440064652F
:10264A006661756C74006F76657272756E0050758E
:10265A00736820746F2073657420696E74760050F5
:10266A0075736820746F2073657420696E740050E6
:10267A0075736820746F20736574206D61786F00BC
:10268A002020202020202020202020202020202040
:10269A00005355502C002C4255462C002C524544D0
:1026AA002C002C424C552C002C494E542C002564ED
:1026BA00002C4E4558542C002C4D41582C002C50BF
:1026CA005245532C002C544255462C002C5452454A
:0A26DA00442C002C54424C552C00F7
:00000001FF
